{
  "_format": "hh-sol-artifact-1",
  "contractName": "CryptoClash",
  "sourceName": "contracts/CryptoClash.sol",
  "abi": [
    {
      "inputs": [],
      "stateMutability": "nonpayable",
      "type": "constructor"
    },
    {
      "inputs": [
        {
          "internalType": "address",
          "name": "spender",
          "type": "address"
        },
        {
          "internalType": "uint256",
          "name": "allowance",
          "type": "uint256"
        },
        {
          "internalType": "uint256",
          "name": "needed",
          "type": "uint256"
        }
      ],
      "name": "ERC20InsufficientAllowance",
      "type": "error"
    },
    {
      "inputs": [
        {
          "internalType": "address",
          "name": "sender",
          "type": "address"
        },
        {
          "internalType": "uint256",
          "name": "balance",
          "type": "uint256"
        },
        {
          "internalType": "uint256",
          "name": "needed",
          "type": "uint256"
        }
      ],
      "name": "ERC20InsufficientBalance",
      "type": "error"
    },
    {
      "inputs": [
        {
          "internalType": "address",
          "name": "approver",
          "type": "address"
        }
      ],
      "name": "ERC20InvalidApprover",
      "type": "error"
    },
    {
      "inputs": [
        {
          "internalType": "address",
          "name": "receiver",
          "type": "address"
        }
      ],
      "name": "ERC20InvalidReceiver",
      "type": "error"
    },
    {
      "inputs": [
        {
          "internalType": "address",
          "name": "sender",
          "type": "address"
        }
      ],
      "name": "ERC20InvalidSender",
      "type": "error"
    },
    {
      "inputs": [
        {
          "internalType": "address",
          "name": "spender",
          "type": "address"
        }
      ],
      "name": "ERC20InvalidSpender",
      "type": "error"
    },
    {
      "anonymous": false,
      "inputs": [
        {
          "indexed": true,
          "internalType": "address",
          "name": "owner",
          "type": "address"
        },
        {
          "indexed": true,
          "internalType": "address",
          "name": "spender",
          "type": "address"
        },
        {
          "indexed": false,
          "internalType": "uint256",
          "name": "value",
          "type": "uint256"
        }
      ],
      "name": "Approval",
      "type": "event"
    },
    {
      "anonymous": false,
      "inputs": [
        {
          "indexed": true,
          "internalType": "address",
          "name": "from",
          "type": "address"
        },
        {
          "indexed": true,
          "internalType": "address",
          "name": "to",
          "type": "address"
        },
        {
          "indexed": false,
          "internalType": "uint256",
          "name": "value",
          "type": "uint256"
        }
      ],
      "name": "Transfer",
      "type": "event"
    },
    {
      "inputs": [
        {
          "internalType": "address",
          "name": "owner",
          "type": "address"
        },
        {
          "internalType": "address",
          "name": "spender",
          "type": "address"
        }
      ],
      "name": "allowance",
      "outputs": [
        {
          "internalType": "uint256",
          "name": "",
          "type": "uint256"
        }
      ],
      "stateMutability": "view",
      "type": "function"
    },
    {
      "inputs": [
        {
          "internalType": "address",
          "name": "spender",
          "type": "address"
        },
        {
          "internalType": "uint256",
          "name": "value",
          "type": "uint256"
        }
      ],
      "name": "approve",
      "outputs": [
        {
          "internalType": "bool",
          "name": "",
          "type": "bool"
        }
      ],
      "stateMutability": "nonpayable",
      "type": "function"
    },
    {
      "inputs": [
        {
          "internalType": "address",
          "name": "spender",
          "type": "address"
        },
        {
          "internalType": "uint256",
          "name": "amount",
          "type": "uint256"
        }
      ],
      "name": "approveSpending",
      "outputs": [],
      "stateMutability": "nonpayable",
      "type": "function"
    },
    {
      "inputs": [
        {
          "internalType": "address",
          "name": "account",
          "type": "address"
        }
      ],
      "name": "balanceOf",
      "outputs": [
        {
          "internalType": "uint256",
          "name": "",
          "type": "uint256"
        }
      ],
      "stateMutability": "view",
      "type": "function"
    },
    {
      "inputs": [],
      "name": "decimals",
      "outputs": [
        {
          "internalType": "uint8",
          "name": "",
          "type": "uint8"
        }
      ],
      "stateMutability": "view",
      "type": "function"
    },
    {
      "inputs": [
        {
          "internalType": "address",
          "name": "_owner",
          "type": "address"
        },
        {
          "internalType": "address",
          "name": "spender",
          "type": "address"
        }
      ],
      "name": "getAllowance",
      "outputs": [
        {
          "internalType": "uint256",
          "name": "",
          "type": "uint256"
        }
      ],
      "stateMutability": "view",
      "type": "function"
    },
    {
      "inputs": [
        {
          "internalType": "address",
          "name": "to",
          "type": "address"
        },
        {
          "internalType": "uint256",
          "name": "amount",
          "type": "uint256"
        }
      ],
      "name": "mint",
      "outputs": [],
      "stateMutability": "nonpayable",
      "type": "function"
    },
    {
      "inputs": [],
      "name": "name",
      "outputs": [
        {
          "internalType": "string",
          "name": "",
          "type": "string"
        }
      ],
      "stateMutability": "view",
      "type": "function"
    },
    {
      "inputs": [],
      "name": "owner",
      "outputs": [
        {
          "internalType": "address",
          "name": "",
          "type": "address"
        }
      ],
      "stateMutability": "view",
      "type": "function"
    },
    {
      "inputs": [],
      "name": "symbol",
      "outputs": [
        {
          "internalType": "string",
          "name": "",
          "type": "string"
        }
      ],
      "stateMutability": "view",
      "type": "function"
    },
    {
      "inputs": [],
      "name": "totalSupply",
      "outputs": [
        {
          "internalType": "uint256",
          "name": "",
          "type": "uint256"
        }
      ],
      "stateMutability": "view",
      "type": "function"
    },
    {
      "inputs": [
        {
          "internalType": "address",
          "name": "to",
          "type": "address"
        },
        {
          "internalType": "uint256",
          "name": "value",
          "type": "uint256"
        }
      ],
      "name": "transfer",
      "outputs": [
        {
          "internalType": "bool",
          "name": "",
          "type": "bool"
        }
      ],
      "stateMutability": "nonpayable",
      "type": "function"
    },
    {
      "inputs": [
        {
          "internalType": "address",
          "name": "from",
          "type": "address"
        },
        {
          "internalType": "address",
          "name": "to",
          "type": "address"
        },
        {
          "internalType": "uint256",
          "name": "value",
          "type": "uint256"
        }
      ],
      "name": "transferFrom",
      "outputs": [
        {
          "internalType": "bool",
          "name": "",
          "type": "bool"
        }
      ],
      "stateMutability": "nonpayable",
      "type": "function"
    }
  ],
  "bytecode": "0x60806040523480156200001157600080fd5b506040518060400160405280600b81526020017f43727970746f436c6173680000000000000000000000000000000000000000008152506040518060400160405280600381526020017f434348000000000000000000000000000000000000000000000000000000000081525081600390816200008f91906200063e565b508060049081620000a191906200063e565b505050620000c03369d3c21bcecceda10000006200010760201b60201c565b33600560006101000a81548173ffffffffffffffffffffffffffffffffffffffff021916908373ffffffffffffffffffffffffffffffffffffffff1602179055506200085c565b600073ffffffffffffffffffffffffffffffffffffffff168273ffffffffffffffffffffffffffffffffffffffff16036200017c5760006040517fec442f050000000000000000000000000000000000000000000000000000000081526004016200017391906200076a565b60405180910390fd5b62000190600083836200019460201b60201c565b5050565b600073ffffffffffffffffffffffffffffffffffffffff168373ffffffffffffffffffffffffffffffffffffffff1603620001ea578060026000828254620001dd9190620007b6565b92505081905550620002c0565b60008060008573ffffffffffffffffffffffffffffffffffffffff1673ffffffffffffffffffffffffffffffffffffffff1681526020019081526020016000205490508181101562000279578381836040517fe450d38c000000000000000000000000000000000000000000000000000000008152600401620002709392919062000802565b60405180910390fd5b8181036000808673ffffffffffffffffffffffffffffffffffffffff1673ffffffffffffffffffffffffffffffffffffffff16815260200190815260200160002081905550505b600073ffffffffffffffffffffffffffffffffffffffff168273ffffffffffffffffffffffffffffffffffffffff16036200030b578060026000828254039250508190555062000358565b806000808473ffffffffffffffffffffffffffffffffffffffff1673ffffffffffffffffffffffffffffffffffffffff168152602001908152602001600020600082825401925050819055505b8173ffffffffffffffffffffffffffffffffffffffff168373ffffffffffffffffffffffffffffffffffffffff167fddf252ad1be2c89b69c2b068fc378daa952ba7f163c4a11628f55a4df523b3ef83604051620003b791906200083f565b60405180910390a3505050565b600081519050919050565b7f4e487b7100000000000000000000000000000000000000000000000000000000600052604160045260246000fd5b7f4e487b7100000000000000000000000000000000000000000000000000000000600052602260045260246000fd5b600060028204905060018216806200044657607f821691505b6020821081036200045c576200045b620003fe565b5b50919050565b60008190508160005260206000209050919050565b60006020601f8301049050919050565b600082821b905092915050565b600060088302620004c67fffffffffffffffffffffffffffffffffffffffffffffffffffffffffffffffff8262000487565b620004d2868362000487565b95508019841693508086168417925050509392505050565b6000819050919050565b6000819050919050565b60006200051f620005196200051384620004ea565b620004f4565b620004ea565b9050919050565b6000819050919050565b6200053b83620004fe565b620005536200054a8262000526565b84845462000494565b825550505050565b600090565b6200056a6200055b565b6200057781848462000530565b505050565b5b818110156200059f576200059360008262000560565b6001810190506200057d565b5050565b601f821115620005ee57620005b88162000462565b620005c38462000477565b81016020851015620005d3578190505b620005eb620005e28562000477565b8301826200057c565b50505b505050565b600082821c905092915050565b60006200061360001984600802620005f3565b1980831691505092915050565b60006200062e838362000600565b9150826002028217905092915050565b6200064982620003c4565b67ffffffffffffffff811115620006655762000664620003cf565b5b6200067182546200042d565b6200067e828285620005a3565b600060209050601f831160018114620006b65760008415620006a1578287015190505b620006ad858262000620565b8655506200071d565b601f198416620006c68662000462565b60005b82811015620006f057848901518255600182019150602085019450602081019050620006c9565b868310156200071057848901516200070c601f89168262000600565b8355505b6001600288020188555050505b505050505050565b600073ffffffffffffffffffffffffffffffffffffffff82169050919050565b6000620007528262000725565b9050919050565b620007648162000745565b82525050565b600060208201905062000781600083018462000759565b92915050565b7f4e487b7100000000000000000000000000000000000000000000000000000000600052601160045260246000fd5b6000620007c382620004ea565b9150620007d083620004ea565b9250828201905080821115620007eb57620007ea62000787565b5b92915050565b620007fc81620004ea565b82525050565b600060608201905062000819600083018662000759565b620008286020830185620007f1565b620008376040830184620007f1565b949350505050565b6000602082019050620008566000830184620007f1565b92915050565b61119e806200086c6000396000f3fe608060405234801561001057600080fd5b50600436106100cf5760003560e01c806340c10f191161008c5780638da5cb5b116100665780638da5cb5b1461022657806395d89b4114610244578063a9059cbb14610262578063dd62ed3e14610292576100cf565b806340c10f19146101be57806370a08231146101da5780637d4b71951461020a576100cf565b806306fdde03146100d4578063095ea7b3146100f25780630af4187d1461012257806318160ddd1461015257806323b872dd14610170578063313ce567146101a0575b600080fd5b6100dc6102c2565b6040516100e99190610d86565b60405180910390f35b61010c60048036038101906101079190610e41565b610354565b6040516101199190610e9c565b60405180910390f35b61013c60048036038101906101379190610eb7565b610377565b6040516101499190610f06565b60405180910390f35b61015a61038b565b6040516101679190610f06565b60405180910390f35b61018a60048036038101906101859190610f21565b610395565b6040516101979190610e9c565b60405180910390f35b6101a86103c4565b6040516101b59190610f90565b60405180910390f35b6101d860048036038101906101d39190610e41565b6103cd565b005b6101f460048036038101906101ef9190610fab565b61046b565b6040516102019190610f06565b60405180910390f35b610224600480360381019061021f9190610e41565b6104b3565b005b61022e610574565b60405161023b9190610fe7565b60405180910390f35b61024c61059a565b6040516102599190610d86565b60405180910390f35b61027c60048036038101906102779190610e41565b61062c565b6040516102899190610e9c565b60405180910390f35b6102ac60048036038101906102a79190610eb7565b61064f565b6040516102b99190610f06565b60405180910390f35b6060600380546102d190611031565b80601f01602080910402602001604051908101604052809291908181526020018280546102fd90611031565b801561034a5780601f1061031f5761010080835404028352916020019161034a565b820191906000526020600020905b81548152906001019060200180831161032d57829003601f168201915b5050505050905090565b60008061035f6106d6565b905061036c8185856106de565b600191505092915050565b6000610383838361064f565b905092915050565b6000600254905090565b6000806103a06106d6565b90506103ad8582856106f0565b6103b8858585610784565b60019150509392505050565b60006012905090565b600560009054906101000a900473ffffffffffffffffffffffffffffffffffffffff1673ffffffffffffffffffffffffffffffffffffffff163373ffffffffffffffffffffffffffffffffffffffff161461045d576040517f08c379a0000000000000000000000000000000000000000000000000000000008152600401610454906110ae565b60405180910390fd5b6104678282610878565b5050565b60008060008373ffffffffffffffffffffffffffffffffffffffff1673ffffffffffffffffffffffffffffffffffffffff168152602001908152602001600020549050919050565b600560009054906101000a900473ffffffffffffffffffffffffffffffffffffffff1673ffffffffffffffffffffffffffffffffffffffff163373ffffffffffffffffffffffffffffffffffffffff1614610543576040517f08c379a000000000000000000000000000000000000000000000000000000000815260040161053a906110ae565b60405180910390fd5b610570600560009054906101000a900473ffffffffffffffffffffffffffffffffffffffff1683836106de565b5050565b600560009054906101000a900473ffffffffffffffffffffffffffffffffffffffff1681565b6060600480546105a990611031565b80601f01602080910402602001604051908101604052809291908181526020018280546105d590611031565b80156106225780601f106105f757610100808354040283529160200191610622565b820191906000526020600020905b81548152906001019060200180831161060557829003601f168201915b5050505050905090565b6000806106376106d6565b9050610644818585610784565b600191505092915050565b6000600160008473ffffffffffffffffffffffffffffffffffffffff1673ffffffffffffffffffffffffffffffffffffffff16815260200190815260200160002060008373ffffffffffffffffffffffffffffffffffffffff1673ffffffffffffffffffffffffffffffffffffffff16815260200190815260200160002054905092915050565b600033905090565b6106eb83838360016108fa565b505050565b60006106fc848461064f565b90507fffffffffffffffffffffffffffffffffffffffffffffffffffffffffffffffff811461077e578181101561076e578281836040517ffb8f41b2000000000000000000000000000000000000000000000000000000008152600401610765939291906110ce565b60405180910390fd5b61077d848484840360006108fa565b5b50505050565b600073ffffffffffffffffffffffffffffffffffffffff168373ffffffffffffffffffffffffffffffffffffffff16036107f65760006040517f96c6fd1e0000000000000000000000000000000000000000000000000000000081526004016107ed9190610fe7565b60405180910390fd5b600073ffffffffffffffffffffffffffffffffffffffff168273ffffffffffffffffffffffffffffffffffffffff16036108685760006040517fec442f0500000000000000000000000000000000000000000000000000000000815260040161085f9190610fe7565b60405180910390fd5b610873838383610ad1565b505050565b600073ffffffffffffffffffffffffffffffffffffffff168273ffffffffffffffffffffffffffffffffffffffff16036108ea5760006040517fec442f050000000000000000000000000000000000000000000000000000000081526004016108e19190610fe7565b60405180910390fd5b6108f660008383610ad1565b5050565b600073ffffffffffffffffffffffffffffffffffffffff168473ffffffffffffffffffffffffffffffffffffffff160361096c5760006040517fe602df050000000000000000000000000000000000000000000000000000000081526004016109639190610fe7565b60405180910390fd5b600073ffffffffffffffffffffffffffffffffffffffff168373ffffffffffffffffffffffffffffffffffffffff16036109de5760006040517f94280d620000000000000000000000000000000000000000000000000000000081526004016109d59190610fe7565b60405180910390fd5b81600160008673ffffffffffffffffffffffffffffffffffffffff1673ffffffffffffffffffffffffffffffffffffffff16815260200190815260200160002060008573ffffffffffffffffffffffffffffffffffffffff1673ffffffffffffffffffffffffffffffffffffffff168152602001908152602001600020819055508015610acb578273ffffffffffffffffffffffffffffffffffffffff168473ffffffffffffffffffffffffffffffffffffffff167f8c5be1e5ebec7d5bd14f71427d1e84f3dd0314c0f7b2291e5b200ac8c7c3b92584604051610ac29190610f06565b60405180910390a35b50505050565b600073ffffffffffffffffffffffffffffffffffffffff168373ffffffffffffffffffffffffffffffffffffffff1603610b23578060026000828254610b179190611134565b92505081905550610bf6565b60008060008573ffffffffffffffffffffffffffffffffffffffff1673ffffffffffffffffffffffffffffffffffffffff16815260200190815260200160002054905081811015610baf578381836040517fe450d38c000000000000000000000000000000000000000000000000000000008152600401610ba6939291906110ce565b60405180910390fd5b8181036000808673ffffffffffffffffffffffffffffffffffffffff1673ffffffffffffffffffffffffffffffffffffffff16815260200190815260200160002081905550505b600073ffffffffffffffffffffffffffffffffffffffff168273ffffffffffffffffffffffffffffffffffffffff1603610c3f5780600260008282540392505081905550610c8c565b806000808473ffffffffffffffffffffffffffffffffffffffff1673ffffffffffffffffffffffffffffffffffffffff168152602001908152602001600020600082825401925050819055505b8173ffffffffffffffffffffffffffffffffffffffff168373ffffffffffffffffffffffffffffffffffffffff167fddf252ad1be2c89b69c2b068fc378daa952ba7f163c4a11628f55a4df523b3ef83604051610ce99190610f06565b60405180910390a3505050565b600081519050919050565b600082825260208201905092915050565b60005b83811015610d30578082015181840152602081019050610d15565b60008484015250505050565b6000601f19601f8301169050919050565b6000610d5882610cf6565b610d628185610d01565b9350610d72818560208601610d12565b610d7b81610d3c565b840191505092915050565b60006020820190508181036000830152610da08184610d4d565b905092915050565b600080fd5b600073ffffffffffffffffffffffffffffffffffffffff82169050919050565b6000610dd882610dad565b9050919050565b610de881610dcd565b8114610df357600080fd5b50565b600081359050610e0581610ddf565b92915050565b6000819050919050565b610e1e81610e0b565b8114610e2957600080fd5b50565b600081359050610e3b81610e15565b92915050565b60008060408385031215610e5857610e57610da8565b5b6000610e6685828601610df6565b9250506020610e7785828601610e2c565b9150509250929050565b60008115159050919050565b610e9681610e81565b82525050565b6000602082019050610eb16000830184610e8d565b92915050565b60008060408385031215610ece57610ecd610da8565b5b6000610edc85828601610df6565b9250506020610eed85828601610df6565b9150509250929050565b610f0081610e0b565b82525050565b6000602082019050610f1b6000830184610ef7565b92915050565b600080600060608486031215610f3a57610f39610da8565b5b6000610f4886828701610df6565b9350506020610f5986828701610df6565b9250506040610f6a86828701610e2c565b9150509250925092565b600060ff82169050919050565b610f8a81610f74565b82525050565b6000602082019050610fa56000830184610f81565b92915050565b600060208284031215610fc157610fc0610da8565b5b6000610fcf84828501610df6565b91505092915050565b610fe181610dcd565b82525050565b6000602082019050610ffc6000830184610fd8565b92915050565b7f4e487b7100000000000000000000000000000000000000000000000000000000600052602260045260246000fd5b6000600282049050600182168061104957607f821691505b60208210810361105c5761105b611002565b5b50919050565b7f43616c6c6572206973206e6f7420746865206f776e6572000000000000000000600082015250565b6000611098601783610d01565b91506110a382611062565b602082019050919050565b600060208201905081810360008301526110c78161108b565b9050919050565b60006060820190506110e36000830186610fd8565b6110f06020830185610ef7565b6110fd6040830184610ef7565b949350505050565b7f4e487b7100000000000000000000000000000000000000000000000000000000600052601160045260246000fd5b600061113f82610e0b565b915061114a83610e0b565b925082820190508082111561116257611161611105565b5b9291505056fea26469706673582212202fd63961ffd52df1a539c6a76c78365f813ea8510331832e665c01d4aa82fc3f64736f6c63430008180033",
  "linkReferences": {},
  "deployedLinkReferences": {}
}