{
  "_format": "hh-sol-artifact-1",
  "contractName": "CryptoClash",
  "sourceName": "contracts/CryptoClash.sol",
  "abi": [
    {
      "inputs": [],
      "stateMutability": "nonpayable",
      "type": "constructor"
    },
    {
      "inputs": [
        {
          "internalType": "address",
          "name": "spender",
          "type": "address"
        },
        {
          "internalType": "uint256",
          "name": "allowance",
          "type": "uint256"
        },
        {
          "internalType": "uint256",
          "name": "needed",
          "type": "uint256"
        }
      ],
      "name": "ERC20InsufficientAllowance",
      "type": "error"
    },
    {
      "inputs": [
        {
          "internalType": "address",
          "name": "sender",
          "type": "address"
        },
        {
          "internalType": "uint256",
          "name": "balance",
          "type": "uint256"
        },
        {
          "internalType": "uint256",
          "name": "needed",
          "type": "uint256"
        }
      ],
      "name": "ERC20InsufficientBalance",
      "type": "error"
    },
    {
      "inputs": [
        {
          "internalType": "address",
          "name": "approver",
          "type": "address"
        }
      ],
      "name": "ERC20InvalidApprover",
      "type": "error"
    },
    {
      "inputs": [
        {
          "internalType": "address",
          "name": "receiver",
          "type": "address"
        }
      ],
      "name": "ERC20InvalidReceiver",
      "type": "error"
    },
    {
      "inputs": [
        {
          "internalType": "address",
          "name": "sender",
          "type": "address"
        }
      ],
      "name": "ERC20InvalidSender",
      "type": "error"
    },
    {
      "inputs": [
        {
          "internalType": "address",
          "name": "spender",
          "type": "address"
        }
      ],
      "name": "ERC20InvalidSpender",
      "type": "error"
    },
    {
      "anonymous": false,
      "inputs": [
        {
          "indexed": true,
          "internalType": "address",
          "name": "owner",
          "type": "address"
        },
        {
          "indexed": true,
          "internalType": "address",
          "name": "spender",
          "type": "address"
        },
        {
          "indexed": false,
          "internalType": "uint256",
          "name": "value",
          "type": "uint256"
        }
      ],
      "name": "Approval",
      "type": "event"
    },
    {
      "anonymous": false,
      "inputs": [
        {
          "indexed": true,
          "internalType": "address",
          "name": "from",
          "type": "address"
        },
        {
          "indexed": true,
          "internalType": "address",
          "name": "to",
          "type": "address"
        },
        {
          "indexed": false,
          "internalType": "uint256",
          "name": "value",
          "type": "uint256"
        }
      ],
      "name": "Transfer",
      "type": "event"
    },
    {
      "inputs": [
        {
          "internalType": "address",
          "name": "owner",
          "type": "address"
        },
        {
          "internalType": "address",
          "name": "spender",
          "type": "address"
        }
      ],
      "name": "allowance",
      "outputs": [
        {
          "internalType": "uint256",
          "name": "",
          "type": "uint256"
        }
      ],
      "stateMutability": "view",
      "type": "function"
    },
    {
      "inputs": [
        {
          "internalType": "address",
          "name": "spender",
          "type": "address"
        },
        {
          "internalType": "uint256",
          "name": "value",
          "type": "uint256"
        }
      ],
      "name": "approve",
      "outputs": [
        {
          "internalType": "bool",
          "name": "",
          "type": "bool"
        }
      ],
      "stateMutability": "nonpayable",
      "type": "function"
    },
    {
      "inputs": [
        {
          "internalType": "address",
          "name": "spender",
          "type": "address"
        },
        {
          "internalType": "uint256",
          "name": "amount",
          "type": "uint256"
        }
      ],
      "name": "approveSpending",
      "outputs": [],
      "stateMutability": "nonpayable",
      "type": "function"
    },
    {
      "inputs": [
        {
          "internalType": "address",
          "name": "account",
          "type": "address"
        }
      ],
      "name": "balanceOf",
      "outputs": [
        {
          "internalType": "uint256",
          "name": "",
          "type": "uint256"
        }
      ],
      "stateMutability": "view",
      "type": "function"
    },
    {
      "inputs": [],
      "name": "decimals",
      "outputs": [
        {
          "internalType": "uint8",
          "name": "",
          "type": "uint8"
        }
      ],
      "stateMutability": "view",
      "type": "function"
    },
    {
      "inputs": [
        {
          "internalType": "address",
          "name": "to",
          "type": "address"
        },
        {
          "internalType": "uint256",
          "name": "amount",
          "type": "uint256"
        }
      ],
      "name": "mint",
      "outputs": [],
      "stateMutability": "nonpayable",
      "type": "function"
    },
    {
      "inputs": [],
      "name": "name",
      "outputs": [
        {
          "internalType": "string",
          "name": "",
          "type": "string"
        }
      ],
      "stateMutability": "view",
      "type": "function"
    },
    {
      "inputs": [],
      "name": "owner",
      "outputs": [
        {
          "internalType": "address",
          "name": "",
          "type": "address"
        }
      ],
      "stateMutability": "view",
      "type": "function"
    },
    {
      "inputs": [],
      "name": "symbol",
      "outputs": [
        {
          "internalType": "string",
          "name": "",
          "type": "string"
        }
      ],
      "stateMutability": "view",
      "type": "function"
    },
    {
      "inputs": [],
      "name": "totalSupply",
      "outputs": [
        {
          "internalType": "uint256",
          "name": "",
          "type": "uint256"
        }
      ],
      "stateMutability": "view",
      "type": "function"
    },
    {
      "inputs": [
        {
          "internalType": "address",
          "name": "to",
          "type": "address"
        },
        {
          "internalType": "uint256",
          "name": "value",
          "type": "uint256"
        }
      ],
      "name": "transfer",
      "outputs": [
        {
          "internalType": "bool",
          "name": "",
          "type": "bool"
        }
      ],
      "stateMutability": "nonpayable",
      "type": "function"
    },
    {
      "inputs": [
        {
          "internalType": "address",
          "name": "from",
          "type": "address"
        },
        {
          "internalType": "address",
          "name": "to",
          "type": "address"
        },
        {
          "internalType": "uint256",
          "name": "value",
          "type": "uint256"
        }
      ],
      "name": "transferFrom",
      "outputs": [
        {
          "internalType": "bool",
          "name": "",
          "type": "bool"
        }
      ],
      "stateMutability": "nonpayable",
      "type": "function"
    }
  ],
  "bytecode": "0x60806040523480156200001157600080fd5b506040518060400160405280600b81526020017f43727970746f436c6173680000000000000000000000000000000000000000008152506040518060400160405280600381526020017f434348000000000000000000000000000000000000000000000000000000000081525081600390816200008f91906200063e565b508060049081620000a191906200063e565b505050620000c03369d3c21bcecceda10000006200010760201b60201c565b33600560006101000a81548173ffffffffffffffffffffffffffffffffffffffff021916908373ffffffffffffffffffffffffffffffffffffffff1602179055506200085c565b600073ffffffffffffffffffffffffffffffffffffffff168273ffffffffffffffffffffffffffffffffffffffff16036200017c5760006040517fec442f050000000000000000000000000000000000000000000000000000000081526004016200017391906200076a565b60405180910390fd5b62000190600083836200019460201b60201c565b5050565b600073ffffffffffffffffffffffffffffffffffffffff168373ffffffffffffffffffffffffffffffffffffffff1603620001ea578060026000828254620001dd9190620007b6565b92505081905550620002c0565b60008060008573ffffffffffffffffffffffffffffffffffffffff1673ffffffffffffffffffffffffffffffffffffffff1681526020019081526020016000205490508181101562000279578381836040517fe450d38c000000000000000000000000000000000000000000000000000000008152600401620002709392919062000802565b60405180910390fd5b8181036000808673ffffffffffffffffffffffffffffffffffffffff1673ffffffffffffffffffffffffffffffffffffffff16815260200190815260200160002081905550505b600073ffffffffffffffffffffffffffffffffffffffff168273ffffffffffffffffffffffffffffffffffffffff16036200030b578060026000828254039250508190555062000358565b806000808473ffffffffffffffffffffffffffffffffffffffff1673ffffffffffffffffffffffffffffffffffffffff168152602001908152602001600020600082825401925050819055505b8173ffffffffffffffffffffffffffffffffffffffff168373ffffffffffffffffffffffffffffffffffffffff167fddf252ad1be2c89b69c2b068fc378daa952ba7f163c4a11628f55a4df523b3ef83604051620003b791906200083f565b60405180910390a3505050565b600081519050919050565b7f4e487b7100000000000000000000000000000000000000000000000000000000600052604160045260246000fd5b7f4e487b7100000000000000000000000000000000000000000000000000000000600052602260045260246000fd5b600060028204905060018216806200044657607f821691505b6020821081036200045c576200045b620003fe565b5b50919050565b60008190508160005260206000209050919050565b60006020601f8301049050919050565b600082821b905092915050565b600060088302620004c67fffffffffffffffffffffffffffffffffffffffffffffffffffffffffffffffff8262000487565b620004d2868362000487565b95508019841693508086168417925050509392505050565b6000819050919050565b6000819050919050565b60006200051f620005196200051384620004ea565b620004f4565b620004ea565b9050919050565b6000819050919050565b6200053b83620004fe565b620005536200054a8262000526565b84845462000494565b825550505050565b600090565b6200056a6200055b565b6200057781848462000530565b505050565b5b818110156200059f576200059360008262000560565b6001810190506200057d565b5050565b601f821115620005ee57620005b88162000462565b620005c38462000477565b81016020851015620005d3578190505b620005eb620005e28562000477565b8301826200057c565b50505b505050565b600082821c905092915050565b60006200061360001984600802620005f3565b1980831691505092915050565b60006200062e838362000600565b9150826002028217905092915050565b6200064982620003c4565b67ffffffffffffffff811115620006655762000664620003cf565b5b6200067182546200042d565b6200067e828285620005a3565b600060209050601f831160018114620006b65760008415620006a1578287015190505b620006ad858262000620565b8655506200071d565b601f198416620006c68662000462565b60005b82811015620006f057848901518255600182019150602085019450602081019050620006c9565b868310156200071057848901516200070c601f89168262000600565b8355505b6001600288020188555050505b505050505050565b600073ffffffffffffffffffffffffffffffffffffffff82169050919050565b6000620007528262000725565b9050919050565b620007648162000745565b82525050565b600060208201905062000781600083018462000759565b92915050565b7f4e487b7100000000000000000000000000000000000000000000000000000000600052601160045260246000fd5b6000620007c382620004ea565b9150620007d083620004ea565b9250828201905080821115620007eb57620007ea62000787565b5b92915050565b620007fc81620004ea565b82525050565b600060608201905062000819600083018662000759565b620008286020830185620007f1565b620008376040830184620007f1565b949350505050565b6000602082019050620008566000830184620007f1565b92915050565b61113f806200086c6000396000f3fe608060405234801561001057600080fd5b50600436106100b45760003560e01c806370a082311161007157806370a082311461018f5780637d4b7195146101bf5780638da5cb5b146101db57806395d89b41146101f9578063a9059cbb14610217578063dd62ed3e14610247576100b4565b806306fdde03146100b9578063095ea7b3146100d757806318160ddd1461010757806323b872dd14610125578063313ce5671461015557806340c10f1914610173575b600080fd5b6100c1610277565b6040516100ce9190610d27565b60405180910390f35b6100f160048036038101906100ec9190610de2565b610309565b6040516100fe9190610e3d565b60405180910390f35b61010f61032c565b60405161011c9190610e67565b60405180910390f35b61013f600480360381019061013a9190610e82565b610336565b60405161014c9190610e3d565b60405180910390f35b61015d610365565b60405161016a9190610ef1565b60405180910390f35b61018d60048036038101906101889190610de2565b61036e565b005b6101a960048036038101906101a49190610f0c565b61040c565b6040516101b69190610e67565b60405180910390f35b6101d960048036038101906101d49190610de2565b610454565b005b6101e3610515565b6040516101f09190610f48565b60405180910390f35b61020161053b565b60405161020e9190610d27565b60405180910390f35b610231600480360381019061022c9190610de2565b6105cd565b60405161023e9190610e3d565b60405180910390f35b610261600480360381019061025c9190610f63565b6105f0565b60405161026e9190610e67565b60405180910390f35b60606003805461028690610fd2565b80601f01602080910402602001604051908101604052809291908181526020018280546102b290610fd2565b80156102ff5780601f106102d4576101008083540402835291602001916102ff565b820191906000526020600020905b8154815290600101906020018083116102e257829003601f168201915b5050505050905090565b600080610314610677565b905061032181858561067f565b600191505092915050565b6000600254905090565b600080610341610677565b905061034e858285610691565b610359858585610725565b60019150509392505050565b60006012905090565b600560009054906101000a900473ffffffffffffffffffffffffffffffffffffffff1673ffffffffffffffffffffffffffffffffffffffff163373ffffffffffffffffffffffffffffffffffffffff16146103fe576040517f08c379a00000000000000000000000000000000000000000000000000000000081526004016103f59061104f565b60405180910390fd5b6104088282610819565b5050565b60008060008373ffffffffffffffffffffffffffffffffffffffff1673ffffffffffffffffffffffffffffffffffffffff168152602001908152602001600020549050919050565b600560009054906101000a900473ffffffffffffffffffffffffffffffffffffffff1673ffffffffffffffffffffffffffffffffffffffff163373ffffffffffffffffffffffffffffffffffffffff16146104e4576040517f08c379a00000000000000000000000000000000000000000000000000000000081526004016104db9061104f565b60405180910390fd5b610511600560009054906101000a900473ffffffffffffffffffffffffffffffffffffffff16838361067f565b5050565b600560009054906101000a900473ffffffffffffffffffffffffffffffffffffffff1681565b60606004805461054a90610fd2565b80601f016020809104026020016040519081016040528092919081815260200182805461057690610fd2565b80156105c35780601f10610598576101008083540402835291602001916105c3565b820191906000526020600020905b8154815290600101906020018083116105a657829003601f168201915b5050505050905090565b6000806105d8610677565b90506105e5818585610725565b600191505092915050565b6000600160008473ffffffffffffffffffffffffffffffffffffffff1673ffffffffffffffffffffffffffffffffffffffff16815260200190815260200160002060008373ffffffffffffffffffffffffffffffffffffffff1673ffffffffffffffffffffffffffffffffffffffff16815260200190815260200160002054905092915050565b600033905090565b61068c838383600161089b565b505050565b600061069d84846105f0565b90507fffffffffffffffffffffffffffffffffffffffffffffffffffffffffffffffff811461071f578181101561070f578281836040517ffb8f41b20000000000000000000000000000000000000000000000000000000081526004016107069392919061106f565b60405180910390fd5b61071e8484848403600061089b565b5b50505050565b600073ffffffffffffffffffffffffffffffffffffffff168373ffffffffffffffffffffffffffffffffffffffff16036107975760006040517f96c6fd1e00000000000000000000000000000000000000000000000000000000815260040161078e9190610f48565b60405180910390fd5b600073ffffffffffffffffffffffffffffffffffffffff168273ffffffffffffffffffffffffffffffffffffffff16036108095760006040517fec442f050000000000000000000000000000000000000000000000000000000081526004016108009190610f48565b60405180910390fd5b610814838383610a72565b505050565b600073ffffffffffffffffffffffffffffffffffffffff168273ffffffffffffffffffffffffffffffffffffffff160361088b5760006040517fec442f050000000000000000000000000000000000000000000000000000000081526004016108829190610f48565b60405180910390fd5b61089760008383610a72565b5050565b600073ffffffffffffffffffffffffffffffffffffffff168473ffffffffffffffffffffffffffffffffffffffff160361090d5760006040517fe602df050000000000000000000000000000000000000000000000000000000081526004016109049190610f48565b60405180910390fd5b600073ffffffffffffffffffffffffffffffffffffffff168373ffffffffffffffffffffffffffffffffffffffff160361097f5760006040517f94280d620000000000000000000000000000000000000000000000000000000081526004016109769190610f48565b60405180910390fd5b81600160008673ffffffffffffffffffffffffffffffffffffffff1673ffffffffffffffffffffffffffffffffffffffff16815260200190815260200160002060008573ffffffffffffffffffffffffffffffffffffffff1673ffffffffffffffffffffffffffffffffffffffff168152602001908152602001600020819055508015610a6c578273ffffffffffffffffffffffffffffffffffffffff168473ffffffffffffffffffffffffffffffffffffffff167f8c5be1e5ebec7d5bd14f71427d1e84f3dd0314c0f7b2291e5b200ac8c7c3b92584604051610a639190610e67565b60405180910390a35b50505050565b600073ffffffffffffffffffffffffffffffffffffffff168373ffffffffffffffffffffffffffffffffffffffff1603610ac4578060026000828254610ab891906110d5565b92505081905550610b97565b60008060008573ffffffffffffffffffffffffffffffffffffffff1673ffffffffffffffffffffffffffffffffffffffff16815260200190815260200160002054905081811015610b50578381836040517fe450d38c000000000000000000000000000000000000000000000000000000008152600401610b479392919061106f565b60405180910390fd5b8181036000808673ffffffffffffffffffffffffffffffffffffffff1673ffffffffffffffffffffffffffffffffffffffff16815260200190815260200160002081905550505b600073ffffffffffffffffffffffffffffffffffffffff168273ffffffffffffffffffffffffffffffffffffffff1603610be05780600260008282540392505081905550610c2d565b806000808473ffffffffffffffffffffffffffffffffffffffff1673ffffffffffffffffffffffffffffffffffffffff168152602001908152602001600020600082825401925050819055505b8173ffffffffffffffffffffffffffffffffffffffff168373ffffffffffffffffffffffffffffffffffffffff167fddf252ad1be2c89b69c2b068fc378daa952ba7f163c4a11628f55a4df523b3ef83604051610c8a9190610e67565b60405180910390a3505050565b600081519050919050565b600082825260208201905092915050565b60005b83811015610cd1578082015181840152602081019050610cb6565b60008484015250505050565b6000601f19601f8301169050919050565b6000610cf982610c97565b610d038185610ca2565b9350610d13818560208601610cb3565b610d1c81610cdd565b840191505092915050565b60006020820190508181036000830152610d418184610cee565b905092915050565b600080fd5b600073ffffffffffffffffffffffffffffffffffffffff82169050919050565b6000610d7982610d4e565b9050919050565b610d8981610d6e565b8114610d9457600080fd5b50565b600081359050610da681610d80565b92915050565b6000819050919050565b610dbf81610dac565b8114610dca57600080fd5b50565b600081359050610ddc81610db6565b92915050565b60008060408385031215610df957610df8610d49565b5b6000610e0785828601610d97565b9250506020610e1885828601610dcd565b9150509250929050565b60008115159050919050565b610e3781610e22565b82525050565b6000602082019050610e526000830184610e2e565b92915050565b610e6181610dac565b82525050565b6000602082019050610e7c6000830184610e58565b92915050565b600080600060608486031215610e9b57610e9a610d49565b5b6000610ea986828701610d97565b9350506020610eba86828701610d97565b9250506040610ecb86828701610dcd565b9150509250925092565b600060ff82169050919050565b610eeb81610ed5565b82525050565b6000602082019050610f066000830184610ee2565b92915050565b600060208284031215610f2257610f21610d49565b5b6000610f3084828501610d97565b91505092915050565b610f4281610d6e565b82525050565b6000602082019050610f5d6000830184610f39565b92915050565b60008060408385031215610f7a57610f79610d49565b5b6000610f8885828601610d97565b9250506020610f9985828601610d97565b9150509250929050565b7f4e487b7100000000000000000000000000000000000000000000000000000000600052602260045260246000fd5b60006002820490506001821680610fea57607f821691505b602082108103610ffd57610ffc610fa3565b5b50919050565b7f43616c6c6572206973206e6f7420746865206f776e6572000000000000000000600082015250565b6000611039601783610ca2565b915061104482611003565b602082019050919050565b600060208201905081810360008301526110688161102c565b9050919050565b60006060820190506110846000830186610f39565b6110916020830185610e58565b61109e6040830184610e58565b949350505050565b7f4e487b7100000000000000000000000000000000000000000000000000000000600052601160045260246000fd5b60006110e082610dac565b91506110eb83610dac565b9250828201905080821115611103576111026110a6565b5b9291505056fea2646970667358221220acdf4759c5769316f76ec3927303066c2108c8c25e96742ed889bd83d57856b164736f6c63430008180033",
  "linkReferences": {},
  "deployedLinkReferences": {}
}