{
  "_format": "hh-sol-artifact-1",
  "contractName": "CryptoClashCat",
  "sourceName": "contracts/CryptoClashCat.sol",
  "abi": [
    {
      "inputs": [],
      "name": "ERC721EnumerableForbiddenBatchMint",
      "type": "error"
    },
    {
      "inputs": [
        {
          "internalType": "address",
          "name": "sender",
          "type": "address"
        },
        {
          "internalType": "uint256",
          "name": "tokenId",
          "type": "uint256"
        },
        {
          "internalType": "address",
          "name": "owner",
          "type": "address"
        }
      ],
      "name": "ERC721IncorrectOwner",
      "type": "error"
    },
    {
      "inputs": [
        {
          "internalType": "address",
          "name": "operator",
          "type": "address"
        },
        {
          "internalType": "uint256",
          "name": "tokenId",
          "type": "uint256"
        }
      ],
      "name": "ERC721InsufficientApproval",
      "type": "error"
    },
    {
      "inputs": [
        {
          "internalType": "address",
          "name": "approver",
          "type": "address"
        }
      ],
      "name": "ERC721InvalidApprover",
      "type": "error"
    },
    {
      "inputs": [
        {
          "internalType": "address",
          "name": "operator",
          "type": "address"
        }
      ],
      "name": "ERC721InvalidOperator",
      "type": "error"
    },
    {
      "inputs": [
        {
          "internalType": "address",
          "name": "owner",
          "type": "address"
        }
      ],
      "name": "ERC721InvalidOwner",
      "type": "error"
    },
    {
      "inputs": [
        {
          "internalType": "address",
          "name": "receiver",
          "type": "address"
        }
      ],
      "name": "ERC721InvalidReceiver",
      "type": "error"
    },
    {
      "inputs": [
        {
          "internalType": "address",
          "name": "sender",
          "type": "address"
        }
      ],
      "name": "ERC721InvalidSender",
      "type": "error"
    },
    {
      "inputs": [
        {
          "internalType": "uint256",
          "name": "tokenId",
          "type": "uint256"
        }
      ],
      "name": "ERC721NonexistentToken",
      "type": "error"
    },
    {
      "inputs": [
        {
          "internalType": "address",
          "name": "owner",
          "type": "address"
        },
        {
          "internalType": "uint256",
          "name": "index",
          "type": "uint256"
        }
      ],
      "name": "ERC721OutOfBoundsIndex",
      "type": "error"
    },
    {
      "inputs": [],
      "name": "InvalidInitialization",
      "type": "error"
    },
    {
      "inputs": [],
      "name": "NotInitializing",
      "type": "error"
    },
    {
      "anonymous": false,
      "inputs": [
        {
          "indexed": true,
          "internalType": "address",
          "name": "owner",
          "type": "address"
        },
        {
          "indexed": true,
          "internalType": "address",
          "name": "approved",
          "type": "address"
        },
        {
          "indexed": true,
          "internalType": "uint256",
          "name": "tokenId",
          "type": "uint256"
        }
      ],
      "name": "Approval",
      "type": "event"
    },
    {
      "anonymous": false,
      "inputs": [
        {
          "indexed": true,
          "internalType": "address",
          "name": "owner",
          "type": "address"
        },
        {
          "indexed": true,
          "internalType": "address",
          "name": "operator",
          "type": "address"
        },
        {
          "indexed": false,
          "internalType": "bool",
          "name": "approved",
          "type": "bool"
        }
      ],
      "name": "ApprovalForAll",
      "type": "event"
    },
    {
      "anonymous": false,
      "inputs": [
        {
          "indexed": true,
          "internalType": "uint256",
          "name": "battleId",
          "type": "uint256"
        },
        {
          "indexed": true,
          "internalType": "address",
          "name": "player",
          "type": "address"
        },
        {
          "indexed": false,
          "internalType": "string",
          "name": "attack",
          "type": "string"
        }
      ],
      "name": "AttackSubmitted",
      "type": "event"
    },
    {
      "anonymous": false,
      "inputs": [
        {
          "indexed": false,
          "internalType": "uint256",
          "name": "_fromTokenId",
          "type": "uint256"
        },
        {
          "indexed": false,
          "internalType": "uint256",
          "name": "_toTokenId",
          "type": "uint256"
        }
      ],
      "name": "BatchMetadataUpdate",
      "type": "event"
    },
    {
      "anonymous": false,
      "inputs": [
        {
          "indexed": true,
          "internalType": "uint256",
          "name": "battleId",
          "type": "uint256"
        },
        {
          "indexed": false,
          "internalType": "address",
          "name": "winner",
          "type": "address"
        },
        {
          "indexed": false,
          "internalType": "uint256",
          "name": "winnerTokenId",
          "type": "uint256"
        },
        {
          "indexed": false,
          "internalType": "address",
          "name": "loser",
          "type": "address"
        },
        {
          "indexed": false,
          "internalType": "uint256",
          "name": "loserTokenId",
          "type": "uint256"
        }
      ],
      "name": "BattleResolved",
      "type": "event"
    },
    {
      "anonymous": false,
      "inputs": [
        {
          "indexed": true,
          "internalType": "uint256",
          "name": "battleId",
          "type": "uint256"
        },
        {
          "indexed": true,
          "internalType": "address",
          "name": "player1",
          "type": "address"
        },
        {
          "indexed": true,
          "internalType": "address",
          "name": "player2",
          "type": "address"
        },
        {
          "indexed": false,
          "internalType": "uint256",
          "name": "tokenId1",
          "type": "uint256"
        },
        {
          "indexed": false,
          "internalType": "uint256",
          "name": "tokenId2",
          "type": "uint256"
        }
      ],
      "name": "BattleStarted",
      "type": "event"
    },
    {
      "anonymous": false,
      "inputs": [
        {
          "indexed": false,
          "internalType": "address",
          "name": "owner",
          "type": "address"
        },
        {
          "indexed": false,
          "internalType": "uint256",
          "name": "amount",
          "type": "uint256"
        }
      ],
      "name": "FundsWithdrawn",
      "type": "event"
    },
    {
      "anonymous": false,
      "inputs": [
        {
          "indexed": false,
          "internalType": "uint64",
          "name": "version",
          "type": "uint64"
        }
      ],
      "name": "Initialized",
      "type": "event"
    },
    {
      "anonymous": false,
      "inputs": [
        {
          "indexed": false,
          "internalType": "uint256",
          "name": "_tokenId",
          "type": "uint256"
        }
      ],
      "name": "MetadataUpdate",
      "type": "event"
    },
    {
      "anonymous": false,
      "inputs": [
        {
          "indexed": true,
          "internalType": "address",
          "name": "from",
          "type": "address"
        },
        {
          "indexed": true,
          "internalType": "address",
          "name": "to",
          "type": "address"
        },
        {
          "indexed": true,
          "internalType": "uint256",
          "name": "tokenId",
          "type": "uint256"
        }
      ],
      "name": "Transfer",
      "type": "event"
    },
    {
      "inputs": [
        {
          "internalType": "address",
          "name": "to",
          "type": "address"
        },
        {
          "internalType": "uint256",
          "name": "tokenId",
          "type": "uint256"
        }
      ],
      "name": "approve",
      "outputs": [],
      "stateMutability": "nonpayable",
      "type": "function"
    },
    {
      "inputs": [
        {
          "internalType": "address",
          "name": "owner",
          "type": "address"
        }
      ],
      "name": "balanceOf",
      "outputs": [
        {
          "internalType": "uint256",
          "name": "",
          "type": "uint256"
        }
      ],
      "stateMutability": "view",
      "type": "function"
    },
    {
      "inputs": [
        {
          "internalType": "uint256",
          "name": "tokenId",
          "type": "uint256"
        },
        {
          "internalType": "string",
          "name": "attack",
          "type": "string"
        }
      ],
      "name": "chooseAttack",
      "outputs": [],
      "stateMutability": "nonpayable",
      "type": "function"
    },
    {
      "inputs": [],
      "name": "firstPlaceReward",
      "outputs": [
        {
          "internalType": "uint256",
          "name": "",
          "type": "uint256"
        }
      ],
      "stateMutability": "view",
      "type": "function"
    },
    {
      "inputs": [
        {
          "internalType": "uint256",
          "name": "tokenId",
          "type": "uint256"
        }
      ],
      "name": "getApproved",
      "outputs": [
        {
          "internalType": "address",
          "name": "",
          "type": "address"
        }
      ],
      "stateMutability": "view",
      "type": "function"
    },
    {
      "inputs": [
        {
          "internalType": "uint256",
          "name": "battleId",
          "type": "uint256"
        }
      ],
      "name": "getBattle",
      "outputs": [
        {
          "components": [
            {
              "internalType": "address",
              "name": "player1",
              "type": "address"
            },
            {
              "internalType": "address",
              "name": "player2",
              "type": "address"
            },
            {
              "internalType": "uint256",
              "name": "tokenId1",
              "type": "uint256"
            },
            {
              "internalType": "uint256",
              "name": "tokenId2",
              "type": "uint256"
            },
            {
              "internalType": "string",
              "name": "attack1",
              "type": "string"
            },
            {
              "internalType": "string",
              "name": "attack2",
              "type": "string"
            },
            {
              "internalType": "bool",
              "name": "player1Played",
              "type": "bool"
            },
            {
              "internalType": "bool",
              "name": "player2Played",
              "type": "bool"
            },
            {
              "internalType": "enum CryptoClashCat.BattleStatus",
              "name": "status",
              "type": "uint8"
            }
          ],
          "internalType": "struct CryptoClashCat.Battle",
          "name": "",
          "type": "tuple"
        }
      ],
      "stateMutability": "view",
      "type": "function"
    },
    {
      "inputs": [],
      "name": "getBattleCounter",
      "outputs": [
        {
          "internalType": "uint256",
          "name": "",
          "type": "uint256"
        }
      ],
      "stateMutability": "view",
      "type": "function"
    },
    {
      "inputs": [],
      "name": "getNextTokenId",
      "outputs": [
        {
          "internalType": "uint256",
          "name": "",
          "type": "uint256"
        }
      ],
      "stateMutability": "view",
      "type": "function"
    },
    {
      "inputs": [
        {
          "internalType": "uint256",
          "name": "tokenId",
          "type": "uint256"
        }
      ],
      "name": "getWins",
      "outputs": [
        {
          "internalType": "uint256",
          "name": "",
          "type": "uint256"
        }
      ],
      "stateMutability": "view",
      "type": "function"
    },
    {
      "inputs": [
        {
          "internalType": "uint256",
          "name": "maxNFTs",
          "type": "uint256"
        }
      ],
      "name": "initialize",
      "outputs": [],
      "stateMutability": "nonpayable",
      "type": "function"
    },
    {
      "inputs": [
        {
          "internalType": "address",
          "name": "owner",
          "type": "address"
        },
        {
          "internalType": "address",
          "name": "operator",
          "type": "address"
        }
      ],
      "name": "isApprovedForAll",
      "outputs": [
        {
          "internalType": "bool",
          "name": "",
          "type": "bool"
        }
      ],
      "stateMutability": "view",
      "type": "function"
    },
    {
      "inputs": [],
      "name": "name",
      "outputs": [
        {
          "internalType": "string",
          "name": "",
          "type": "string"
        }
      ],
      "stateMutability": "view",
      "type": "function"
    },
    {
      "inputs": [],
      "name": "owner",
      "outputs": [
        {
          "internalType": "address",
          "name": "",
          "type": "address"
        }
      ],
      "stateMutability": "view",
      "type": "function"
    },
    {
      "inputs": [
        {
          "internalType": "uint256",
          "name": "tokenId",
          "type": "uint256"
        }
      ],
      "name": "ownerOf",
      "outputs": [
        {
          "internalType": "address",
          "name": "",
          "type": "address"
        }
      ],
      "stateMutability": "view",
      "type": "function"
    },
    {
      "inputs": [
        {
          "internalType": "address[]",
          "name": "topNFTs",
          "type": "address[]"
        }
      ],
      "name": "rewardTopNFTs",
      "outputs": [],
      "stateMutability": "nonpayable",
      "type": "function"
    },
    {
      "inputs": [
        {
          "internalType": "address",
          "name": "to",
          "type": "address"
        },
        {
          "internalType": "string",
          "name": "uri",
          "type": "string"
        }
      ],
      "name": "safeMint",
      "outputs": [],
      "stateMutability": "payable",
      "type": "function"
    },
    {
      "inputs": [
        {
          "internalType": "address",
          "name": "from",
          "type": "address"
        },
        {
          "internalType": "address",
          "name": "to",
          "type": "address"
        },
        {
          "internalType": "uint256",
          "name": "tokenId",
          "type": "uint256"
        }
      ],
      "name": "safeTransferFrom",
      "outputs": [],
      "stateMutability": "nonpayable",
      "type": "function"
    },
    {
      "inputs": [
        {
          "internalType": "address",
          "name": "from",
          "type": "address"
        },
        {
          "internalType": "address",
          "name": "to",
          "type": "address"
        },
        {
          "internalType": "uint256",
          "name": "tokenId",
          "type": "uint256"
        },
        {
          "internalType": "bytes",
          "name": "data",
          "type": "bytes"
        }
      ],
      "name": "safeTransferFrom",
      "outputs": [],
      "stateMutability": "nonpayable",
      "type": "function"
    },
    {
      "inputs": [],
      "name": "secondPlaceReward",
      "outputs": [
        {
          "internalType": "uint256",
          "name": "",
          "type": "uint256"
        }
      ],
      "stateMutability": "view",
      "type": "function"
    },
    {
      "inputs": [
        {
          "internalType": "address",
          "name": "operator",
          "type": "address"
        },
        {
          "internalType": "bool",
          "name": "approved",
          "type": "bool"
        }
      ],
      "name": "setApprovalForAll",
      "outputs": [],
      "stateMutability": "nonpayable",
      "type": "function"
    },
    {
      "inputs": [
        {
          "internalType": "address",
          "name": "cryptoClashTokenAddress",
          "type": "address"
        }
      ],
      "name": "setCryptoClashToken",
      "outputs": [],
      "stateMutability": "nonpayable",
      "type": "function"
    },
    {
      "inputs": [
        {
          "internalType": "uint256",
          "name": "tokenId1",
          "type": "uint256"
        },
        {
          "internalType": "uint256",
          "name": "tokenId2",
          "type": "uint256"
        },
        {
          "internalType": "string",
          "name": "attack1",
          "type": "string"
        }
      ],
      "name": "startBattle",
      "outputs": [],
      "stateMutability": "nonpayable",
      "type": "function"
    },
    {
      "inputs": [
        {
          "internalType": "uint256",
          "name": "battleId",
          "type": "uint256"
        },
        {
          "internalType": "uint256",
          "name": "tokenId",
          "type": "uint256"
        },
        {
          "internalType": "string",
          "name": "attack",
          "type": "string"
        }
      ],
      "name": "submitAttack",
      "outputs": [],
      "stateMutability": "nonpayable",
      "type": "function"
    },
    {
      "inputs": [
        {
          "internalType": "bytes4",
          "name": "interfaceId",
          "type": "bytes4"
        }
      ],
      "name": "supportsInterface",
      "outputs": [
        {
          "internalType": "bool",
          "name": "",
          "type": "bool"
        }
      ],
      "stateMutability": "view",
      "type": "function"
    },
    {
      "inputs": [],
      "name": "symbol",
      "outputs": [
        {
          "internalType": "string",
          "name": "",
          "type": "string"
        }
      ],
      "stateMutability": "view",
      "type": "function"
    },
    {
      "inputs": [],
      "name": "thirdPlaceReward",
      "outputs": [
        {
          "internalType": "uint256",
          "name": "",
          "type": "uint256"
        }
      ],
      "stateMutability": "view",
      "type": "function"
    },
    {
      "inputs": [
        {
          "internalType": "uint256",
          "name": "index",
          "type": "uint256"
        }
      ],
      "name": "tokenByIndex",
      "outputs": [
        {
          "internalType": "uint256",
          "name": "",
          "type": "uint256"
        }
      ],
      "stateMutability": "view",
      "type": "function"
    },
    {
      "inputs": [
        {
          "internalType": "address",
          "name": "owner",
          "type": "address"
        },
        {
          "internalType": "uint256",
          "name": "index",
          "type": "uint256"
        }
      ],
      "name": "tokenOfOwnerByIndex",
      "outputs": [
        {
          "internalType": "uint256",
          "name": "",
          "type": "uint256"
        }
      ],
      "stateMutability": "view",
      "type": "function"
    },
    {
      "inputs": [
        {
          "internalType": "uint256",
          "name": "tokenId",
          "type": "uint256"
        }
      ],
      "name": "tokenURI",
      "outputs": [
        {
          "internalType": "string",
          "name": "",
          "type": "string"
        }
      ],
      "stateMutability": "view",
      "type": "function"
    },
    {
      "inputs": [],
      "name": "totalSupply",
      "outputs": [
        {
          "internalType": "uint256",
          "name": "",
          "type": "uint256"
        }
      ],
      "stateMutability": "view",
      "type": "function"
    },
    {
      "inputs": [
        {
          "internalType": "address",
          "name": "from",
          "type": "address"
        },
        {
          "internalType": "address",
          "name": "to",
          "type": "address"
        },
        {
          "internalType": "uint256",
          "name": "tokenId",
          "type": "uint256"
        }
      ],
      "name": "transferFrom",
      "outputs": [],
      "stateMutability": "nonpayable",
      "type": "function"
    },
    {
      "inputs": [],
      "name": "withdraw",
      "outputs": [],
      "stateMutability": "nonpayable",
      "type": "function"
    },
    {
      "stateMutability": "payable",
      "type": "receive"
    }
  ],
  "bytecode": "0x608060405234801561001057600080fd5b50615b8a80620000216000396000f3fe6080604052600436106101e65760003560e01c80636352211e11610102578063aade6e4211610095578063caa0f92a11610064578063caa0f92a14610720578063d204c45e1461074b578063e985e9c514610767578063fe4b84df146107a4576101ed565b8063aade6e4214610654578063b88d4fde14610691578063bb5c0c16146106ba578063c87b56dd146106e3576101ed565b80637c887430116100d15780637c887430146105aa5780638da5cb5b146105d557806395d89b4114610600578063a22cb4651461062b576101ed565b80636352211e146104c85780636dd0ce7a1461050557806370a08231146105425780637a555e9e1461057f576101ed565b80631b8a7e541161017a5780633ccfd60b116101495780633ccfd60b1461042257806342842e0e14610439578063484ce44d146104625780634f6ccce71461048b576101ed565b80631b8a7e541461036857806323b872dd146103935780632f745c59146103bc57806330a7d107146103f9576101ed565b8063095ea7b3116101b6578063095ea7b3146102c057806318160ddd146102e957806319088f1f146103145780631ac656731461033f576101ed565b80625524c7146101f257806301ffc9a71461021b57806306fdde0314610258578063081812fc14610283576101ed565b366101ed57005b600080fd5b3480156101fe57600080fd5b506102196004803603810190610214919061432f565b6107cd565b005b34801561022757600080fd5b50610242600480360381019061023d91906143e3565b61099e565b60405161024f919061442b565b60405180910390f35b34801561026457600080fd5b5061026d6109b0565b60405161027a91906144c5565b60405180910390f35b34801561028f57600080fd5b506102aa60048036038101906102a591906144e7565b610a51565b6040516102b79190614555565b60405180910390f35b3480156102cc57600080fd5b506102e760048036038101906102e2919061459c565b610a6d565b005b3480156102f557600080fd5b506102fe610a83565b60405161030b91906145eb565b60405180910390f35b34801561032057600080fd5b50610329610a9e565b60405161033691906145eb565b60405180910390f35b34801561034b57600080fd5b5061036660048036038101906103619190614606565b610aa4565b005b34801561037457600080fd5b5061037d610f8e565b60405161038a91906145eb565b60405180910390f35b34801561039f57600080fd5b506103ba60048036038101906103b59190614675565b610f98565b005b3480156103c857600080fd5b506103e360048036038101906103de919061459c565b61109a565b6040516103f091906145eb565b60405180910390f35b34801561040557600080fd5b50610420600480360381019061041b9190614790565b611151565b005b34801561042e57600080fd5b506104376114a0565b005b34801561044557600080fd5b50610460600480360381019061045b9190614675565b611662565b005b34801561046e57600080fd5b50610489600480360381019061048491906147d9565b611682565b005b34801561049757600080fd5b506104b260048036038101906104ad91906144e7565b611756565b6040516104bf91906145eb565b60405180910390f35b3480156104d457600080fd5b506104ef60048036038101906104ea91906144e7565b6117da565b6040516104fc9190614555565b60405180910390f35b34801561051157600080fd5b5061052c600480360381019061052791906144e7565b6117ec565b60405161053991906149c0565b60405180910390f35b34801561054e57600080fd5b50610569600480360381019061056491906147d9565b611a6f565b60405161057691906145eb565b60405180910390f35b34801561058b57600080fd5b50610594611b38565b6040516105a191906145eb565b60405180910390f35b3480156105b657600080fd5b506105bf611b3e565b6040516105cc91906145eb565b60405180910390f35b3480156105e157600080fd5b506105ea611b44565b6040516105f79190614555565b60405180910390f35b34801561060c57600080fd5b50610615611b6e565b60405161062291906144c5565b60405180910390f35b34801561063757600080fd5b50610652600480360381019061064d9190614a0e565b611c0f565b005b34801561066057600080fd5b5061067b600480360381019061067691906144e7565b611c25565b60405161068891906145eb565b60405180910390f35b34801561069d57600080fd5b506106b860048036038101906106b39190614aef565b611c44565b005b3480156106c657600080fd5b506106e160048036038101906106dc9190614606565b611c61565b005b3480156106ef57600080fd5b5061070a600480360381019061070591906144e7565b611f84565b60405161071791906144c5565b60405180910390f35b34801561072c57600080fd5b50610735611f96565b60405161074291906145eb565b60405180910390f35b61076560048036038101906107609190614b72565b611fac565b005b34801561077357600080fd5b5061078e60048036038101906107899190614bce565b612068565b60405161079b919061442b565b60405180910390f35b3480156107b057600080fd5b506107cb60048036038101906107c691906144e7565b61210a565b005b3373ffffffffffffffffffffffffffffffffffffffff166107ed836117da565b73ffffffffffffffffffffffffffffffffffffffff1614610843576040517f08c379a000000000000000000000000000000000000000000000000000000000815260040161083a90614c80565b60405180910390fd5b60405160200161085290614cf7565b60405160208183030381529060405280519060200120816040516020016108799190614d3d565b6040516020818303038152906040528051906020012014806108e457506040516020016108a590614da0565b60405160208183030381529060405280519060200120816040516020016108cc9190614d3d565b60405160208183030381529060405280519060200120145b8061093857506040516020016108f990614e01565b60405160208183030381529060405280519060200120816040516020016109209190614d3d565b60405160208183030381529060405280519060200120145b610977576040517f08c379a000000000000000000000000000000000000000000000000000000000815260040161096e90614e88565b60405180910390fd5b80600080848152602001908152602001600020600001908161099991906150b4565b505050565b60006109a982612394565b9050919050565b606060006109bc61240e565b90508060000180546109cd90614ed7565b80601f01602080910402602001604051908101604052809291908181526020018280546109f990614ed7565b8015610a465780601f10610a1b57610100808354040283529160200191610a46565b820191906000526020600020905b815481529060010190602001808311610a2957829003601f168201915b505050505091505090565b6000610a5c82612436565b50610a66826124be565b9050919050565b610a7f8282610a7a612509565b612511565b5050565b600080610a8e612523565b9050806002018054905091505090565b60065481565b3373ffffffffffffffffffffffffffffffffffffffff16610ac4846117da565b73ffffffffffffffffffffffffffffffffffffffff1614610b1a576040517f08c379a0000000000000000000000000000000000000000000000000000000008152600401610b1190614c80565b60405180910390fd5b6000610b25836117da565b9050600073ffffffffffffffffffffffffffffffffffffffff168173ffffffffffffffffffffffffffffffffffffffff1603610b96576040517f08c379a0000000000000000000000000000000000000000000000000000000008152600401610b8d906151d2565b60405180910390fd5b604051602001610ba590614cf7565b6040516020818303038152906040528051906020012082604051602001610bcc9190614d3d565b604051602081830303815290604052805190602001201480610c375750604051602001610bf890614da0565b6040516020818303038152906040528051906020012082604051602001610c1f9190614d3d565b60405160208183030381529060405280519060200120145b80610c8b5750604051602001610c4c90614e01565b6040516020818303038152906040528051906020012082604051602001610c739190614d3d565b60405160208183030381529060405280519060200120145b610cca576040517f08c379a0000000000000000000000000000000000000000000000000000000008152600401610cc190614e88565b60405180910390fd5b60026000815480929190610cdd90615221565b91905055506040518061012001604052803373ffffffffffffffffffffffffffffffffffffffff1681526020018273ffffffffffffffffffffffffffffffffffffffff16815260200185815260200184815260200183815260200160405180602001604052806000815250815260200160011515815260200160001515815260200160006001811115610d7357610d7261487d565b5b81525060016000600254815260200190815260200160002060008201518160000160006101000a81548173ffffffffffffffffffffffffffffffffffffffff021916908373ffffffffffffffffffffffffffffffffffffffff16021790555060208201518160010160006101000a81548173ffffffffffffffffffffffffffffffffffffffff021916908373ffffffffffffffffffffffffffffffffffffffff16021790555060408201518160020155606082015181600301556080820151816004019081610e4291906150b4565b5060a0820151816005019081610e5891906150b4565b5060c08201518160060160006101000a81548160ff02191690831515021790555060e08201518160060160016101000a81548160ff0219169083151502179055506101008201518160060160026101000a81548160ff02191690836001811115610ec557610ec461487d565b5b02179055509050508073ffffffffffffffffffffffffffffffffffffffff163373ffffffffffffffffffffffffffffffffffffffff166002547fc441ce4b01dcdafd8c099080e5945a38e6fe9d3dfca01f0e77a26c19b4e0c9698787604051610f2f929190615269565b60405180910390a43373ffffffffffffffffffffffffffffffffffffffff166002547ff685fa501be77ee479d232847278ea7b5190831731962deab7bf115efa6e02ba84604051610f8091906144c5565b60405180910390a350505050565b6000600254905090565b600073ffffffffffffffffffffffffffffffffffffffff168273ffffffffffffffffffffffffffffffffffffffff160361100a5760006040517f64a0ae920000000000000000000000000000000000000000000000000000000081526004016110019190614555565b60405180910390fd5b600061101e8383611019612509565b61254b565b90508373ffffffffffffffffffffffffffffffffffffffff168173ffffffffffffffffffffffffffffffffffffffff1614611094578382826040517f64283d7b00000000000000000000000000000000000000000000000000000000815260040161108b93929190615292565b60405180910390fd5b50505050565b6000806110a5612523565b90506110b084611a6f565b83106110f55783836040517fa57d13dc0000000000000000000000000000000000000000000000000000000081526004016110ec9291906152c9565b60405180910390fd5b8060000160008573ffffffffffffffffffffffffffffffffffffffff1673ffffffffffffffffffffffffffffffffffffffff16815260200190815260200160002060008481526020019081526020016000205491505092915050565b600360009054906101000a900473ffffffffffffffffffffffffffffffffffffffff1673ffffffffffffffffffffffffffffffffffffffff163373ffffffffffffffffffffffffffffffffffffffff16146111e1576040517f08c379a00000000000000000000000000000000000000000000000000000000081526004016111d89061533e565b60405180910390fd5b600381511115611226576040517f08c379a000000000000000000000000000000000000000000000000000000000815260040161121d906153aa565b60405180910390fd5b6000600367ffffffffffffffff81111561124357611242614204565b5b6040519080825280602002602001820160405280156112715781602001602082028036833780820191505090505b5090506006548160008151811061128b5761128a6153ca565b5b602002602001018181525050600754816001815181106112ae576112ad6153ca565b5b602002602001018181525050600854816002815181106112d1576112d06153ca565b5b60200260200101818152505060005b825181101561149b57600073ffffffffffffffffffffffffffffffffffffffff16838281518110611314576113136153ca565b5b602002602001015173ffffffffffffffffffffffffffffffffffffffff1603611372576040517f08c379a000000000000000000000000000000000000000000000000000000000815260040161136990615445565b60405180910390fd5b600960009054906101000a900473ffffffffffffffffffffffffffffffffffffffff1673ffffffffffffffffffffffffffffffffffffffff166323b872dd6113b8611b44565b8584815181106113cb576113ca6153ca565b5b60200260200101518585815181106113e6576113e56153ca565b5b60200260200101516040518463ffffffff1660e01b815260040161140c93929190615465565b6020604051808303816000875af115801561142b573d6000803e3d6000fd5b505050506040513d601f19601f8201168201806040525081019061144f91906154b1565b61148e576040517f08c379a00000000000000000000000000000000000000000000000000000000081526004016114859061552a565b60405180910390fd5b80806001019150506112e0565b505050565b600360009054906101000a900473ffffffffffffffffffffffffffffffffffffffff1673ffffffffffffffffffffffffffffffffffffffff163373ffffffffffffffffffffffffffffffffffffffff1614611530576040517f08c379a00000000000000000000000000000000000000000000000000000000081526004016115279061533e565b60405180910390fd5b60004790506000600360009054906101000a900473ffffffffffffffffffffffffffffffffffffffff1673ffffffffffffffffffffffffffffffffffffffff168260405161157d9061557b565b60006040518083038185875af1925050503d80600081146115ba576040519150601f19603f3d011682016040523d82523d6000602084013e6115bf565b606091505b5050905080611603576040517f08c379a00000000000000000000000000000000000000000000000000000000081526004016115fa906155dc565b60405180910390fd5b7feaff4b37086828766ad3268786972c0cd24259d4c87a80f9d3963a3c3d999b0d600360009054906101000a900473ffffffffffffffffffffffffffffffffffffffff16836040516116569291906152c9565b60405180910390a15050565b61167d83838360405180602001604052806000815250611c44565b505050565b600360009054906101000a900473ffffffffffffffffffffffffffffffffffffffff1673ffffffffffffffffffffffffffffffffffffffff163373ffffffffffffffffffffffffffffffffffffffff1614611712576040517f08c379a00000000000000000000000000000000000000000000000000000000081526004016117099061533e565b60405180910390fd5b80600960006101000a81548173ffffffffffffffffffffffffffffffffffffffff021916908373ffffffffffffffffffffffffffffffffffffffff16021790555050565b600080611761612523565b905061176b610a83565b83106117b1576000836040517fa57d13dc0000000000000000000000000000000000000000000000000000000081526004016117a89291906152c9565b60405180910390fd5b8060020183815481106117c7576117c66153ca565b5b9060005260206000200154915050919050565b60006117e582612436565b9050919050565b6117f4614111565b60016000838152602001908152602001600020604051806101200160405290816000820160009054906101000a900473ffffffffffffffffffffffffffffffffffffffff1673ffffffffffffffffffffffffffffffffffffffff1673ffffffffffffffffffffffffffffffffffffffff1681526020016001820160009054906101000a900473ffffffffffffffffffffffffffffffffffffffff1673ffffffffffffffffffffffffffffffffffffffff1673ffffffffffffffffffffffffffffffffffffffff16815260200160028201548152602001600382015481526020016004820180546118e390614ed7565b80601f016020809104026020016040519081016040528092919081815260200182805461190f90614ed7565b801561195c5780601f106119315761010080835404028352916020019161195c565b820191906000526020600020905b81548152906001019060200180831161193f57829003601f168201915b5050505050815260200160058201805461197590614ed7565b80601f01602080910402602001604051908101604052809291908181526020018280546119a190614ed7565b80156119ee5780601f106119c3576101008083540402835291602001916119ee565b820191906000526020600020905b8154815290600101906020018083116119d157829003601f168201915b505050505081526020016006820160009054906101000a900460ff161515151581526020016006820160019054906101000a900460ff161515151581526020016006820160029054906101000a900460ff166001811115611a5257611a5161487d565b5b6001811115611a6457611a6361487d565b5b815250509050919050565b600080611a7a61240e565b9050600073ffffffffffffffffffffffffffffffffffffffff168373ffffffffffffffffffffffffffffffffffffffff1603611aee5760006040517f89c62b64000000000000000000000000000000000000000000000000000000008152600401611ae59190614555565b60405180910390fd5b8060030160008473ffffffffffffffffffffffffffffffffffffffff1673ffffffffffffffffffffffffffffffffffffffff16815260200190815260200160002054915050919050565b60085481565b60075481565b6000600360009054906101000a900473ffffffffffffffffffffffffffffffffffffffff16905090565b60606000611b7a61240e565b9050806001018054611b8b90614ed7565b80601f0160208091040260200160405190810160405280929190818152602001828054611bb790614ed7565b8015611c045780601f10611bd957610100808354040283529160200191611c04565b820191906000526020600020905b815481529060010190602001808311611be757829003601f168201915b505050505091505090565b611c21611c1a612509565b8383612561565b5050565b6000806000838152602001908152602001600020600101549050919050565b611c4f848484610f98565b611c5b848484846126df565b50505050565b600060016000858152602001908152602001600020905060006001811115611c8c57611c8b61487d565b5b8160060160029054906101000a900460ff166001811115611cb057611caf61487d565b5b14611cf0576040517f08c379a0000000000000000000000000000000000000000000000000000000008152600401611ce790615648565b60405180910390fd5b3373ffffffffffffffffffffffffffffffffffffffff168160010160009054906101000a900473ffffffffffffffffffffffffffffffffffffffff1673ffffffffffffffffffffffffffffffffffffffff16148015611d525750828160030154145b611d91576040517f08c379a0000000000000000000000000000000000000000000000000000000008152600401611d88906156da565b60405180910390fd5b604051602001611da090614cf7565b6040516020818303038152906040528051906020012082604051602001611dc79190614d3d565b604051602081830303815290604052805190602001201480611e325750604051602001611df390614da0565b6040516020818303038152906040528051906020012082604051602001611e1a9190614d3d565b60405160208183030381529060405280519060200120145b80611e865750604051602001611e4790614e01565b6040516020818303038152906040528051906020012082604051602001611e6e9190614d3d565b60405160208183030381529060405280519060200120145b611ec5576040517f08c379a0000000000000000000000000000000000000000000000000000000008152600401611ebc90615746565b60405180910390fd5b81816005019081611ed691906150b4565b5060018160060160016101000a81548160ff0219169083151502179055503373ffffffffffffffffffffffffffffffffffffffff16847ff685fa501be77ee479d232847278ea7b5190831731962deab7bf115efa6e02ba84604051611f3b91906144c5565b60405180910390a38060060160009054906101000a900460ff168015611f6f57508060060160019054906101000a900460ff165b15611f7e57611f7d84612896565b5b50505050565b6060611f8f82612e6e565b9050919050565b60006001600454611fa79190615766565b905090565b60055460045410611ff2576040517f08c379a0000000000000000000000000000000000000000000000000000000008152600401611fe9906157e6565b60405180910390fd5b66b1a2bc2ec50000341461203b576040517f08c379a000000000000000000000000000000000000000000000000000000000815260040161203290615852565b60405180910390fd5b6000612045612f92565b90506120518382612fa8565b61205b8183612fc6565b612063613031565b505050565b60008061207361240e565b90508060050160008573ffffffffffffffffffffffffffffffffffffffff1673ffffffffffffffffffffffffffffffffffffffff16815260200190815260200160002060008473ffffffffffffffffffffffffffffffffffffffff1673ffffffffffffffffffffffffffffffffffffffff16815260200190815260200160002060009054906101000a900460ff1691505092915050565b600061211461304b565b905060008160000160089054906101000a900460ff1615905060008260000160009054906101000a900467ffffffffffffffff1690506000808267ffffffffffffffff161480156121625750825b9050600060018367ffffffffffffffff16148015612197575060003073ffffffffffffffffffffffffffffffffffffffff163b145b9050811580156121a5575080155b156121dc576040517ff92ee8a900000000000000000000000000000000000000000000000000000000815260040160405180910390fd5b60018560000160006101000a81548167ffffffffffffffff021916908367ffffffffffffffff160217905550831561222c5760018560000160086101000a81548160ff0219169083151502179055505b6122a06040518060400160405280600e81526020017f43727970746f436c6173684361740000000000000000000000000000000000008152506040518060400160405280600381526020017f4343430000000000000000000000000000000000000000000000000000000000815250613073565b6122a8613089565b6122b0613093565b33600360006101000a81548173ffffffffffffffffffffffffffffffffffffffff021916908373ffffffffffffffffffffffffffffffffffffffff160217905550856005819055506000600481905550683635c9adc5dea00000600681905550681b1ae4d6e2ef500000600781905550680d8d726b7177a80000600881905550831561238c5760008560000160086101000a81548160ff0219169083151502179055507fc7f505b2f371ae2175ee4913f4499e1f2633a7b5936321eed1cdaeb6115181d2600160405161238391906158c1565b60405180910390a15b505050505050565b60007f780e9d63000000000000000000000000000000000000000000000000000000007bffffffffffffffffffffffffffffffffffffffffffffffffffffffff1916827bffffffffffffffffffffffffffffffffffffffffffffffffffffffff1916148061240757506124068261309d565b5b9050919050565b60007f80bb2b638cc20bc4d0a60d66940f3ab4a00c1d7b313497ca82fb0b4ab0079300905090565b600080612442836130fe565b9050600073ffffffffffffffffffffffffffffffffffffffff168173ffffffffffffffffffffffffffffffffffffffff16036124b557826040517f7e2732890000000000000000000000000000000000000000000000000000000081526004016124ac91906145eb565b60405180910390fd5b80915050919050565b6000806124c961240e565b905080600401600084815260200190815260200160002060009054906101000a900473ffffffffffffffffffffffffffffffffffffffff16915050919050565b600033905090565b61251e8383836001613149565b505050565b60007f645e039705490088daad89bae25049a34f4a9072d398537b1ab2425f24cbed00905090565b600061255884848461331d565b90509392505050565b600061256b61240e565b9050600073ffffffffffffffffffffffffffffffffffffffff168373ffffffffffffffffffffffffffffffffffffffff16036125de57826040517f5b08ba180000000000000000000000000000000000000000000000000000000081526004016125d59190614555565b60405180910390fd5b818160050160008673ffffffffffffffffffffffffffffffffffffffff1673ffffffffffffffffffffffffffffffffffffffff16815260200190815260200160002060008573ffffffffffffffffffffffffffffffffffffffff1673ffffffffffffffffffffffffffffffffffffffff16815260200190815260200160002060006101000a81548160ff0219169083151502179055508273ffffffffffffffffffffffffffffffffffffffff168473ffffffffffffffffffffffffffffffffffffffff167f17307eab39ab6107e8899845ad3d59bd9653f200f220920489ca2b5937696c31846040516126d1919061442b565b60405180910390a350505050565b60008373ffffffffffffffffffffffffffffffffffffffff163b1115612890578273ffffffffffffffffffffffffffffffffffffffff1663150b7a02612723612509565b8685856040518563ffffffff1660e01b81526004016127459493929190615931565b6020604051808303816000875af192505050801561278157506040513d601f19601f8201168201806040525081019061277e9190615992565b60015b612805573d80600081146127b1576040519150601f19603f3d011682016040523d82523d6000602084013e6127b6565b606091505b5060008151036127fd57836040517f64a0ae920000000000000000000000000000000000000000000000000000000081526004016127f49190614555565b60405180910390fd5b805181602001fd5b63150b7a0260e01b7bffffffffffffffffffffffffffffffffffffffffffffffffffffffff1916817bffffffffffffffffffffffffffffffffffffffffffffffffffffffff19161461288e57836040517f64a0ae920000000000000000000000000000000000000000000000000000000081526004016128859190614555565b60405180910390fd5b505b50505050565b60006001600083815260200190815260200160002090506000806000806040516020016128c290614cf7565b60405160208183030381529060405280519060200120856004016040516020016128ec9190615a42565b6040516020818303038152906040528051906020012014801561295b575060405160200161291990614da0565b60405160208183030381529060405280519060200120856005016040516020016129439190615a42565b60405160208183030381529060405280519060200120145b80612a0a575060405160200161297090614da0565b604051602081830303815290604052805190602001208560040160405160200161299a9190615a42565b60405160208183030381529060405280519060200120148015612a0957506040516020016129c790614e01565b60405160208183030381529060405280519060200120856005016040516020016129f19190615a42565b60405160208183030381529060405280519060200120145b5b80612ab95750604051602001612a1f90614e01565b6040516020818303038152906040528051906020012085600401604051602001612a499190615a42565b60405160208183030381529060405280519060200120148015612ab85750604051602001612a7690614cf7565b6040516020818303038152906040528051906020012085600501604051602001612aa09190615a42565b60405160208183030381529060405280519060200120145b5b15612b4e578460000160009054906101000a900473ffffffffffffffffffffffffffffffffffffffff169350846002015492508460010160009054906101000a900473ffffffffffffffffffffffffffffffffffffffff16915084600301549050600080866002015481526020019081526020016000206001016000815480929190612b4490615221565b9190505550612dfb565b604051602001612b5d90614cf7565b6040516020818303038152906040528051906020012085600501604051602001612b879190615a42565b60405160208183030381529060405280519060200120148015612bf65750604051602001612bb490614da0565b6040516020818303038152906040528051906020012085600401604051602001612bde9190615a42565b60405160208183030381529060405280519060200120145b80612ca55750604051602001612c0b90614da0565b6040516020818303038152906040528051906020012085600501604051602001612c359190615a42565b60405160208183030381529060405280519060200120148015612ca45750604051602001612c6290614e01565b6040516020818303038152906040528051906020012085600401604051602001612c8c9190615a42565b60405160208183030381529060405280519060200120145b5b80612d545750604051602001612cba90614e01565b6040516020818303038152906040528051906020012085600501604051602001612ce49190615a42565b60405160208183030381529060405280519060200120148015612d535750604051602001612d1190614cf7565b6040516020818303038152906040528051906020012085600401604051602001612d3b9190615a42565b60405160208183030381529060405280519060200120145b5b15612de9578460010160009054906101000a900473ffffffffffffffffffffffffffffffffffffffff169350846003015492508460000160009054906101000a900473ffffffffffffffffffffffffffffffffffffffff16915084600201549050600080866003015481526020019081526020016000206001016000815480929190612ddf90615221565b9190505550612dfa565b600093506000925060009150600090505b5b60018560060160026101000a81548160ff02191690836001811115612e2357612e2261487d565b5b0217905550857f9aae9bd90363603ad3d21e5a3aa1ee854b568ebec7b0f4ad591c4ef4b8b1d01585858585604051612e5e9493929190615a59565b60405180910390a2505050505050565b60606000612e7a61343a565b9050612e8583612436565b5060008160000160008581526020019081526020016000208054612ea890614ed7565b80601f0160208091040260200160405190810160405280929190818152602001828054612ed490614ed7565b8015612f215780601f10612ef657610100808354040283529160200191612f21565b820191906000526020600020905b815481529060010190602001808311612f0457829003601f168201915b505050505090506000612f32613462565b90506000815103612f4857819350505050612f8d565b600082511115612f7e578082604051602001612f65929190615a9e565b6040516020818303038152906040529350505050612f8d565b612f8785613479565b93505050505b919050565b60006001600454612fa39190615766565b905090565b612fc28282604051806020016040528060008152506134e2565b5050565b6000612fd061343a565b9050818160000160008581526020019081526020016000209081612ff491906150b4565b507ff8e1a15aba9398e019f0b49df1a4fde98ee17ae345cb5f6b5e2c27f5033e8ce78360405161302491906145eb565b60405180910390a1505050565b6004600081548092919061304490615221565b9190505550565b60007ff0c57e16840df040f15088dc2f81fe391c3923bec73e23a9662efc9c229c6a00905090565b61307b6134fe565b613085828261353e565b5050565b6130916134fe565b565b61309b6134fe565b565b6000634906490660e01b7bffffffffffffffffffffffffffffffffffffffffffffffffffffffff1916827bffffffffffffffffffffffffffffffffffffffffffffffffffffffff191614806130f757506130f68261357b565b5b9050919050565b60008061310961240e565b905080600201600084815260200190815260200160002060009054906101000a900473ffffffffffffffffffffffffffffffffffffffff16915050919050565b600061315361240e565b9050818061318e5750600073ffffffffffffffffffffffffffffffffffffffff168373ffffffffffffffffffffffffffffffffffffffff1614155b156132c257600061319e85612436565b9050600073ffffffffffffffffffffffffffffffffffffffff168473ffffffffffffffffffffffffffffffffffffffff161415801561320957508373ffffffffffffffffffffffffffffffffffffffff168173ffffffffffffffffffffffffffffffffffffffff1614155b801561321c575061321a8185612068565b155b1561325e57836040517fa9fbf51f0000000000000000000000000000000000000000000000000000000081526004016132559190614555565b60405180910390fd5b82156132c057848673ffffffffffffffffffffffffffffffffffffffff168273ffffffffffffffffffffffffffffffffffffffff167f8c5be1e5ebec7d5bd14f71427d1e84f3dd0314c0f7b2291e5b200ac8c7c3b92560405160405180910390a45b505b8481600401600086815260200190815260200160002060006101000a81548173ffffffffffffffffffffffffffffffffffffffff021916908373ffffffffffffffffffffffffffffffffffffffff1602179055505050505050565b60008061332b85858561365d565b9050600073ffffffffffffffffffffffffffffffffffffffff168173ffffffffffffffffffffffffffffffffffffffff160361336f5761336a8461388a565b6133ae565b8473ffffffffffffffffffffffffffffffffffffffff168173ffffffffffffffffffffffffffffffffffffffff16146133ad576133ac81856138e6565b5b5b600073ffffffffffffffffffffffffffffffffffffffff168573ffffffffffffffffffffffffffffffffffffffff16036133f0576133eb84613a60565b61342f565b8473ffffffffffffffffffffffffffffffffffffffff168173ffffffffffffffffffffffffffffffffffffffff161461342e5761342d8585613b4c565b5b5b809150509392505050565b60007f0542a41881ee128a365a727b282c86fa859579490b9bb45aab8503648c8e7900905090565b606060405180602001604052806000815250905090565b606061348482612436565b50600061348f613462565b905060008151116134af57604051806020016040528060008152506134da565b806134b984613be8565b6040516020016134ca929190615a9e565b6040516020818303038152906040525b915050919050565b6134ec8383613cb6565b6134f960008484846126df565b505050565b613506613daf565b61353c576040517fd7e6bcf800000000000000000000000000000000000000000000000000000000815260040160405180910390fd5b565b6135466134fe565b600061355061240e565b90508281600001908161356391906150b4565b508181600101908161357591906150b4565b50505050565b60007f80ac58cd000000000000000000000000000000000000000000000000000000007bffffffffffffffffffffffffffffffffffffffffffffffffffffffff1916827bffffffffffffffffffffffffffffffffffffffffffffffffffffffff1916148061364657507f5b5e139f000000000000000000000000000000000000000000000000000000007bffffffffffffffffffffffffffffffffffffffffffffffffffffffff1916827bffffffffffffffffffffffffffffffffffffffffffffffffffffffff1916145b80613656575061365582613dcf565b5b9050919050565b60008061366861240e565b90506000613675856130fe565b9050600073ffffffffffffffffffffffffffffffffffffffff168473ffffffffffffffffffffffffffffffffffffffff16146136b7576136b6818587613e39565b5b600073ffffffffffffffffffffffffffffffffffffffff168173ffffffffffffffffffffffffffffffffffffffff161461374a576136f9600086600080613149565b60018260030160008373ffffffffffffffffffffffffffffffffffffffff1673ffffffffffffffffffffffffffffffffffffffff168152602001908152602001600020600082825403925050819055505b600073ffffffffffffffffffffffffffffffffffffffff168673ffffffffffffffffffffffffffffffffffffffff16146137cf5760018260030160008873ffffffffffffffffffffffffffffffffffffffff1673ffffffffffffffffffffffffffffffffffffffff168152602001908152602001600020600082825401925050819055505b8582600201600087815260200190815260200160002060006101000a81548173ffffffffffffffffffffffffffffffffffffffff021916908373ffffffffffffffffffffffffffffffffffffffff160217905550848673ffffffffffffffffffffffffffffffffffffffff168273ffffffffffffffffffffffffffffffffffffffff167fddf252ad1be2c89b69c2b068fc378daa952ba7f163c4a11628f55a4df523b3ef60405160405180910390a480925050509392505050565b6000613894612523565b9050806002018054905081600301600084815260200190815260200160002081905550806002018290806001815401808255809150506001900390600052602060002001600090919091909150555050565b60006138f0612523565b905060006138fd84611a6f565b905060008260010160008581526020019081526020016000205490508181146139ea5760008360000160008773ffffffffffffffffffffffffffffffffffffffff1673ffffffffffffffffffffffffffffffffffffffff1681526020019081526020016000206000848152602001908152602001600020549050808460000160008873ffffffffffffffffffffffffffffffffffffffff1673ffffffffffffffffffffffffffffffffffffffff1681526020019081526020016000206000848152602001908152602001600020819055508184600101600083815260200190815260200160002081905550505b826001016000858152602001908152602001600020600090558260000160008673ffffffffffffffffffffffffffffffffffffffff1673ffffffffffffffffffffffffffffffffffffffff1681526020019081526020016000206000838152602001908152602001600020600090555050505050565b6000613a6a612523565b9050600060018260020180549050613a829190615ac2565b905060008260030160008581526020019081526020016000205490506000836002018381548110613ab657613ab56153ca565b5b9060005260206000200154905080846002018381548110613ada57613ad96153ca565b5b906000526020600020018190555081846003016000838152602001908152602001600020819055508360030160008681526020019081526020016000206000905583600201805480613b2f57613b2e615af6565b5b600190038181906000526020600020016000905590555050505050565b6000613b56612523565b905060006001613b6585611a6f565b613b6f9190615ac2565b9050828260000160008673ffffffffffffffffffffffffffffffffffffffff1673ffffffffffffffffffffffffffffffffffffffff168152602001908152602001600020600083815260200190815260200160002081905550808260010160008581526020019081526020016000208190555050505050565b606060006001613bf784613efd565b01905060008167ffffffffffffffff811115613c1657613c15614204565b5b6040519080825280601f01601f191660200182016040528015613c485781602001600182028036833780820191505090505b509050600082602001820190505b600115613cab578080600190039150507f3031323334353637383961626364656600000000000000000000000000000000600a86061a8153600a8581613c9f57613c9e615b25565b5b04945060008503613c56575b819350505050919050565b600073ffffffffffffffffffffffffffffffffffffffff168273ffffffffffffffffffffffffffffffffffffffff1603613d285760006040517f64a0ae92000000000000000000000000000000000000000000000000000000008152600401613d1f9190614555565b60405180910390fd5b6000613d368383600061254b565b9050600073ffffffffffffffffffffffffffffffffffffffff168173ffffffffffffffffffffffffffffffffffffffff1614613daa5760006040517f73c6ac6e000000000000000000000000000000000000000000000000000000008152600401613da19190614555565b60405180910390fd5b505050565b6000613db961304b565b60000160089054906101000a900460ff16905090565b60007f01ffc9a7000000000000000000000000000000000000000000000000000000007bffffffffffffffffffffffffffffffffffffffffffffffffffffffff1916827bffffffffffffffffffffffffffffffffffffffffffffffffffffffff1916149050919050565b613e44838383614050565b613ef857600073ffffffffffffffffffffffffffffffffffffffff168373ffffffffffffffffffffffffffffffffffffffff1603613eb957806040517f7e273289000000000000000000000000000000000000000000000000000000008152600401613eb091906145eb565b60405180910390fd5b81816040517f177e802f000000000000000000000000000000000000000000000000000000008152600401613eef9291906152c9565b60405180910390fd5b505050565b600080600090507a184f03e93ff9f4daa797ed6e38ed64bf6a1f0100000000000000008310613f5b577a184f03e93ff9f4daa797ed6e38ed64bf6a1f0100000000000000008381613f5157613f50615b25565b5b0492506040810190505b6d04ee2d6d415b85acef81000000008310613f98576d04ee2d6d415b85acef81000000008381613f8e57613f8d615b25565b5b0492506020810190505b662386f26fc100008310613fc757662386f26fc100008381613fbd57613fbc615b25565b5b0492506010810190505b6305f5e1008310613ff0576305f5e1008381613fe657613fe5615b25565b5b0492506008810190505b612710831061401557612710838161400b5761400a615b25565b5b0492506004810190505b60648310614038576064838161402e5761402d615b25565b5b0492506002810190505b600a8310614047576001810190505b80915050919050565b60008073ffffffffffffffffffffffffffffffffffffffff168373ffffffffffffffffffffffffffffffffffffffff161415801561410857508273ffffffffffffffffffffffffffffffffffffffff168473ffffffffffffffffffffffffffffffffffffffff1614806140c957506140c88484612068565b5b8061410757508273ffffffffffffffffffffffffffffffffffffffff166140ef836124be565b73ffffffffffffffffffffffffffffffffffffffff16145b5b90509392505050565b604051806101200160405280600073ffffffffffffffffffffffffffffffffffffffff168152602001600073ffffffffffffffffffffffffffffffffffffffff16815260200160008152602001600081526020016060815260200160608152602001600015158152602001600015158152602001600060018111156141995761419861487d565b5b81525090565b6000604051905090565b600080fd5b600080fd5b6000819050919050565b6141c6816141b3565b81146141d157600080fd5b50565b6000813590506141e3816141bd565b92915050565b600080fd5b600080fd5b6000601f19601f8301169050919050565b7f4e487b7100000000000000000000000000000000000000000000000000000000600052604160045260246000fd5b61423c826141f3565b810181811067ffffffffffffffff8211171561425b5761425a614204565b5b80604052505050565b600061426e61419f565b905061427a8282614233565b919050565b600067ffffffffffffffff82111561429a57614299614204565b5b6142a3826141f3565b9050602081019050919050565b82818337600083830152505050565b60006142d26142cd8461427f565b614264565b9050828152602081018484840111156142ee576142ed6141ee565b5b6142f98482856142b0565b509392505050565b600082601f830112614316576143156141e9565b5b81356143268482602086016142bf565b91505092915050565b60008060408385031215614346576143456141a9565b5b6000614354858286016141d4565b925050602083013567ffffffffffffffff811115614375576143746141ae565b5b61438185828601614301565b9150509250929050565b60007fffffffff0000000000000000000000000000000000000000000000000000000082169050919050565b6143c08161438b565b81146143cb57600080fd5b50565b6000813590506143dd816143b7565b92915050565b6000602082840312156143f9576143f86141a9565b5b6000614407848285016143ce565b91505092915050565b60008115159050919050565b61442581614410565b82525050565b6000602082019050614440600083018461441c565b92915050565b600081519050919050565b600082825260208201905092915050565b60005b83811015614480578082015181840152602081019050614465565b60008484015250505050565b600061449782614446565b6144a18185614451565b93506144b1818560208601614462565b6144ba816141f3565b840191505092915050565b600060208201905081810360008301526144df818461448c565b905092915050565b6000602082840312156144fd576144fc6141a9565b5b600061450b848285016141d4565b91505092915050565b600073ffffffffffffffffffffffffffffffffffffffff82169050919050565b600061453f82614514565b9050919050565b61454f81614534565b82525050565b600060208201905061456a6000830184614546565b92915050565b61457981614534565b811461458457600080fd5b50565b60008135905061459681614570565b92915050565b600080604083850312156145b3576145b26141a9565b5b60006145c185828601614587565b92505060206145d2858286016141d4565b9150509250929050565b6145e5816141b3565b82525050565b600060208201905061460060008301846145dc565b92915050565b60008060006060848603121561461f5761461e6141a9565b5b600061462d868287016141d4565b935050602061463e868287016141d4565b925050604084013567ffffffffffffffff81111561465f5761465e6141ae565b5b61466b86828701614301565b9150509250925092565b60008060006060848603121561468e5761468d6141a9565b5b600061469c86828701614587565b93505060206146ad86828701614587565b92505060406146be868287016141d4565b9150509250925092565b600067ffffffffffffffff8211156146e3576146e2614204565b5b602082029050602081019050919050565b600080fd5b600061470c614707846146c8565b614264565b9050808382526020820190506020840283018581111561472f5761472e6146f4565b5b835b8181101561475857806147448882614587565b845260208401935050602081019050614731565b5050509392505050565b600082601f830112614777576147766141e9565b5b81356147878482602086016146f9565b91505092915050565b6000602082840312156147a6576147a56141a9565b5b600082013567ffffffffffffffff8111156147c4576147c36141ae565b5b6147d084828501614762565b91505092915050565b6000602082840312156147ef576147ee6141a9565b5b60006147fd84828501614587565b91505092915050565b61480f81614534565b82525050565b61481e816141b3565b82525050565b600082825260208201905092915050565b600061484082614446565b61484a8185614824565b935061485a818560208601614462565b614863816141f3565b840191505092915050565b61487781614410565b82525050565b7f4e487b7100000000000000000000000000000000000000000000000000000000600052602160045260246000fd5b600281106148bd576148bc61487d565b5b50565b60008190506148ce826148ac565b919050565b60006148de826148c0565b9050919050565b6148ee816148d3565b82525050565b60006101208301600083015161490d6000860182614806565b5060208301516149206020860182614806565b5060408301516149336040860182614815565b5060608301516149466060860182614815565b506080830151848203608086015261495e8282614835565b91505060a083015184820360a08601526149788282614835565b91505060c083015161498d60c086018261486e565b5060e08301516149a060e086018261486e565b506101008301516149b56101008601826148e5565b508091505092915050565b600060208201905081810360008301526149da81846148f4565b905092915050565b6149eb81614410565b81146149f657600080fd5b50565b600081359050614a08816149e2565b92915050565b60008060408385031215614a2557614a246141a9565b5b6000614a3385828601614587565b9250506020614a44858286016149f9565b9150509250929050565b600067ffffffffffffffff821115614a6957614a68614204565b5b614a72826141f3565b9050602081019050919050565b6000614a92614a8d84614a4e565b614264565b905082815260208101848484011115614aae57614aad6141ee565b5b614ab98482856142b0565b509392505050565b600082601f830112614ad657614ad56141e9565b5b8135614ae6848260208601614a7f565b91505092915050565b60008060008060808587031215614b0957614b086141a9565b5b6000614b1787828801614587565b9450506020614b2887828801614587565b9350506040614b39878288016141d4565b925050606085013567ffffffffffffffff811115614b5a57614b596141ae565b5b614b6687828801614ac1565b91505092959194509250565b60008060408385031215614b8957614b886141a9565b5b6000614b9785828601614587565b925050602083013567ffffffffffffffff811115614bb857614bb76141ae565b5b614bc485828601614301565b9150509250929050565b60008060408385031215614be557614be46141a9565b5b6000614bf385828601614587565b9250506020614c0485828601614587565b9150509250929050565b7f596f7520617265206e6f7420746865206f776e6572206f662074686973204e4660008201527f5400000000000000000000000000000000000000000000000000000000000000602082015250565b6000614c6a602183614451565b9150614c7582614c0e565b604082019050919050565b60006020820190508181036000830152614c9981614c5d565b9050919050565b600081905092915050565b7f7061706572000000000000000000000000000000000000000000000000000000600082015250565b6000614ce1600583614ca0565b9150614cec82614cab565b600582019050919050565b6000614d0282614cd4565b9150819050919050565b6000614d1782614446565b614d218185614ca0565b9350614d31818560208601614462565b80840191505092915050565b6000614d498284614d0c565b915081905092915050565b7f726f636b00000000000000000000000000000000000000000000000000000000600082015250565b6000614d8a600483614ca0565b9150614d9582614d54565b600482019050919050565b6000614dab82614d7d565b9150819050919050565b7f73636973736f7273000000000000000000000000000000000000000000000000600082015250565b6000614deb600883614ca0565b9150614df682614db5565b600882019050919050565b6000614e0c82614dde565b9150819050919050565b7f496e76616c69642061747461636b2c206d75737420626520277061706572272c60008201527f2027726f636b272c206f72202773636973736f72732700000000000000000000602082015250565b6000614e72603683614451565b9150614e7d82614e16565b604082019050919050565b60006020820190508181036000830152614ea181614e65565b9050919050565b7f4e487b7100000000000000000000000000000000000000000000000000000000600052602260045260246000fd5b60006002820490506001821680614eef57607f821691505b602082108103614f0257614f01614ea8565b5b50919050565b60008190508160005260206000209050919050565b60006020601f8301049050919050565b600082821b905092915050565b600060088302614f6a7fffffffffffffffffffffffffffffffffffffffffffffffffffffffffffffffff82614f2d565b614f748683614f2d565b95508019841693508086168417925050509392505050565b6000819050919050565b6000614fb1614fac614fa7846141b3565b614f8c565b6141b3565b9050919050565b6000819050919050565b614fcb83614f96565b614fdf614fd782614fb8565b848454614f3a565b825550505050565b600090565b614ff4614fe7565b614fff818484614fc2565b505050565b5b8181101561502357615018600082614fec565b600181019050615005565b5050565b601f8211156150685761503981614f08565b61504284614f1d565b81016020851015615051578190505b61506561505d85614f1d565b830182615004565b50505b505050565b600082821c905092915050565b600061508b6000198460080261506d565b1980831691505092915050565b60006150a4838361507a565b9150826002028217905092915050565b6150bd82614446565b67ffffffffffffffff8111156150d6576150d5614204565b5b6150e08254614ed7565b6150eb828285615027565b600060209050601f83116001811461511e576000841561510c578287015190505b6151168582615098565b86555061517e565b601f19841661512c86614f08565b60005b828110156151545784890151825560018201915060208501945060208101905061512f565b86831015615171578489015161516d601f89168261507a565b8355505b6001600288020188555050505b505050505050565b7f4f70706f6e656e74204e465420646f6573206e6f742065786973740000000000600082015250565b60006151bc601b83614451565b91506151c782615186565b602082019050919050565b600060208201905081810360008301526151eb816151af565b9050919050565b7f4e487b7100000000000000000000000000000000000000000000000000000000600052601160045260246000fd5b600061522c826141b3565b91507fffffffffffffffffffffffffffffffffffffffffffffffffffffffffffffffff820361525e5761525d6151f2565b5b600182019050919050565b600060408201905061527e60008301856145dc565b61528b60208301846145dc565b9392505050565b60006060820190506152a76000830186614546565b6152b460208301856145dc565b6152c16040830184614546565b949350505050565b60006040820190506152de6000830185614546565b6152eb60208301846145dc565b9392505050565b7f43616c6c6572206973206e6f7420746865206f776e6572000000000000000000600082015250565b6000615328601783614451565b9150615333826152f2565b602082019050919050565b600060208201905081810360008301526153578161531b565b9050919050565b7f43616e6e6f7420726577617264206d6f7265207468616e2033204e4654730000600082015250565b6000615394601e83614451565b915061539f8261535e565b602082019050919050565b600060208201905081810360008301526153c381615387565b9050919050565b7f4e487b7100000000000000000000000000000000000000000000000000000000600052603260045260246000fd5b7f496e76616c696420616464726573730000000000000000000000000000000000600082015250565b600061542f600f83614451565b915061543a826153f9565b602082019050919050565b6000602082019050818103600083015261545e81615422565b9050919050565b600060608201905061547a6000830186614546565b6154876020830185614546565b61549460408301846145dc565b949350505050565b6000815190506154ab816149e2565b92915050565b6000602082840312156154c7576154c66141a9565b5b60006154d58482850161549c565b91505092915050565b7f546f6b656e207472616e73666572206661696c65640000000000000000000000600082015250565b6000615514601583614451565b915061551f826154de565b602082019050919050565b6000602082019050818103600083015261554381615507565b9050919050565b600081905092915050565b50565b600061556560008361554a565b915061557082615555565b600082019050919050565b600061558682615558565b9150819050919050565b7f4661696c656420746f2077697468647261772066756e64730000000000000000600082015250565b60006155c6601883614451565b91506155d182615590565b602082019050919050565b600060208201905081810360008301526155f5816155b9565b9050919050565b7f426174746c6520697320616c726561647920636f6d706c657465640000000000600082015250565b6000615632601b83614451565b915061563d826155fc565b602082019050919050565b6000602082019050818103600083015261566181615625565b9050919050565b7f596f7520617265206e6f7420746865207365636f6e6420706c61796572206f7260008201527f2077726f6e6720746f6b656e4964000000000000000000000000000000000000602082015250565b60006156c4602e83614451565b91506156cf82615668565b604082019050919050565b600060208201905081810360008301526156f3816156b7565b9050919050565b7f496e76616c69642061747461636b000000000000000000000000000000000000600082015250565b6000615730600e83614451565b915061573b826156fa565b602082019050919050565b6000602082019050818103600083015261575f81615723565b9050919050565b6000615771826141b3565b915061577c836141b3565b9250828201905080821115615794576157936151f2565b5b92915050565b7f4d6178696d756d206e756d626572206f66204e465473206d696e746564000000600082015250565b60006157d0601d83614451565b91506157db8261579a565b602082019050919050565b600060208201905081810360008301526157ff816157c3565b9050919050565b7f596f75206d7573742073656e6420302e30352045544820746f206d696e740000600082015250565b600061583c601e83614451565b915061584782615806565b602082019050919050565b6000602082019050818103600083015261586b8161582f565b9050919050565b6000819050919050565b600067ffffffffffffffff82169050919050565b60006158ab6158a66158a184615872565b614f8c565b61587c565b9050919050565b6158bb81615890565b82525050565b60006020820190506158d660008301846158b2565b92915050565b600081519050919050565b600082825260208201905092915050565b6000615903826158dc565b61590d81856158e7565b935061591d818560208601614462565b615926816141f3565b840191505092915050565b60006080820190506159466000830187614546565b6159536020830186614546565b61596060408301856145dc565b818103606083015261597281846158f8565b905095945050505050565b60008151905061598c816143b7565b92915050565b6000602082840312156159a8576159a76141a9565b5b60006159b68482850161597d565b91505092915050565b600081546159cc81614ed7565b6159d68186614ca0565b945060018216600081146159f15760018114615a0657615a39565b60ff1983168652811515820286019350615a39565b615a0f85614f08565b60005b83811015615a3157815481890152600182019150602081019050615a12565b838801955050505b50505092915050565b6000615a4e82846159bf565b915081905092915050565b6000608082019050615a6e6000830187614546565b615a7b60208301866145dc565b615a886040830185614546565b615a9560608301846145dc565b95945050505050565b6000615aaa8285614d0c565b9150615ab68284614d0c565b91508190509392505050565b6000615acd826141b3565b9150615ad8836141b3565b9250828203905081811115615af057615aef6151f2565b5b92915050565b7f4e487b7100000000000000000000000000000000000000000000000000000000600052603160045260246000fd5b7f4e487b7100000000000000000000000000000000000000000000000000000000600052601260045260246000fdfea2646970667358221220644ab9e3ff12a12f2f049ef924619d68e215cdf02ba50e414853b4b17d4b0bf764736f6c63430008180033",
  "linkReferences": {},
  "deployedLinkReferences": {}
}