{
  "_format": "hh-sol-artifact-1",
  "contractName": "CryptoClashCat",
  "sourceName": "contracts/CryptoClashCat.sol",
  "abi": [
    {
      "inputs": [],
      "name": "ERC721EnumerableForbiddenBatchMint",
      "type": "error"
    },
    {
      "inputs": [
        {
          "internalType": "address",
          "name": "sender",
          "type": "address"
        },
        {
          "internalType": "uint256",
          "name": "tokenId",
          "type": "uint256"
        },
        {
          "internalType": "address",
          "name": "owner",
          "type": "address"
        }
      ],
      "name": "ERC721IncorrectOwner",
      "type": "error"
    },
    {
      "inputs": [
        {
          "internalType": "address",
          "name": "operator",
          "type": "address"
        },
        {
          "internalType": "uint256",
          "name": "tokenId",
          "type": "uint256"
        }
      ],
      "name": "ERC721InsufficientApproval",
      "type": "error"
    },
    {
      "inputs": [
        {
          "internalType": "address",
          "name": "approver",
          "type": "address"
        }
      ],
      "name": "ERC721InvalidApprover",
      "type": "error"
    },
    {
      "inputs": [
        {
          "internalType": "address",
          "name": "operator",
          "type": "address"
        }
      ],
      "name": "ERC721InvalidOperator",
      "type": "error"
    },
    {
      "inputs": [
        {
          "internalType": "address",
          "name": "owner",
          "type": "address"
        }
      ],
      "name": "ERC721InvalidOwner",
      "type": "error"
    },
    {
      "inputs": [
        {
          "internalType": "address",
          "name": "receiver",
          "type": "address"
        }
      ],
      "name": "ERC721InvalidReceiver",
      "type": "error"
    },
    {
      "inputs": [
        {
          "internalType": "address",
          "name": "sender",
          "type": "address"
        }
      ],
      "name": "ERC721InvalidSender",
      "type": "error"
    },
    {
      "inputs": [
        {
          "internalType": "uint256",
          "name": "tokenId",
          "type": "uint256"
        }
      ],
      "name": "ERC721NonexistentToken",
      "type": "error"
    },
    {
      "inputs": [
        {
          "internalType": "address",
          "name": "owner",
          "type": "address"
        },
        {
          "internalType": "uint256",
          "name": "index",
          "type": "uint256"
        }
      ],
      "name": "ERC721OutOfBoundsIndex",
      "type": "error"
    },
    {
      "inputs": [],
      "name": "InvalidInitialization",
      "type": "error"
    },
    {
      "inputs": [],
      "name": "NotInitializing",
      "type": "error"
    },
    {
      "anonymous": false,
      "inputs": [
        {
          "indexed": true,
          "internalType": "address",
          "name": "owner",
          "type": "address"
        },
        {
          "indexed": true,
          "internalType": "address",
          "name": "approved",
          "type": "address"
        },
        {
          "indexed": true,
          "internalType": "uint256",
          "name": "tokenId",
          "type": "uint256"
        }
      ],
      "name": "Approval",
      "type": "event"
    },
    {
      "anonymous": false,
      "inputs": [
        {
          "indexed": true,
          "internalType": "address",
          "name": "owner",
          "type": "address"
        },
        {
          "indexed": true,
          "internalType": "address",
          "name": "operator",
          "type": "address"
        },
        {
          "indexed": false,
          "internalType": "bool",
          "name": "approved",
          "type": "bool"
        }
      ],
      "name": "ApprovalForAll",
      "type": "event"
    },
    {
      "anonymous": false,
      "inputs": [
        {
          "indexed": true,
          "internalType": "uint256",
          "name": "battleId",
          "type": "uint256"
        },
        {
          "indexed": true,
          "internalType": "address",
          "name": "player",
          "type": "address"
        },
        {
          "indexed": false,
          "internalType": "string",
          "name": "attack",
          "type": "string"
        }
      ],
      "name": "AttackSubmitted",
      "type": "event"
    },
    {
      "anonymous": false,
      "inputs": [
        {
          "indexed": false,
          "internalType": "uint256",
          "name": "_fromTokenId",
          "type": "uint256"
        },
        {
          "indexed": false,
          "internalType": "uint256",
          "name": "_toTokenId",
          "type": "uint256"
        }
      ],
      "name": "BatchMetadataUpdate",
      "type": "event"
    },
    {
      "anonymous": false,
      "inputs": [
        {
          "indexed": true,
          "internalType": "uint256",
          "name": "battleId",
          "type": "uint256"
        },
        {
          "indexed": false,
          "internalType": "address",
          "name": "winner",
          "type": "address"
        },
        {
          "indexed": false,
          "internalType": "uint256",
          "name": "winnerTokenId",
          "type": "uint256"
        },
        {
          "indexed": false,
          "internalType": "address",
          "name": "loser",
          "type": "address"
        },
        {
          "indexed": false,
          "internalType": "uint256",
          "name": "loserTokenId",
          "type": "uint256"
        }
      ],
      "name": "BattleResolved",
      "type": "event"
    },
    {
      "anonymous": false,
      "inputs": [
        {
          "indexed": true,
          "internalType": "uint256",
          "name": "battleId",
          "type": "uint256"
        },
        {
          "indexed": true,
          "internalType": "address",
          "name": "player1",
          "type": "address"
        },
        {
          "indexed": true,
          "internalType": "address",
          "name": "player2",
          "type": "address"
        },
        {
          "indexed": false,
          "internalType": "uint256",
          "name": "tokenId1",
          "type": "uint256"
        },
        {
          "indexed": false,
          "internalType": "uint256",
          "name": "tokenId2",
          "type": "uint256"
        }
      ],
      "name": "BattleStarted",
      "type": "event"
    },
    {
      "anonymous": false,
      "inputs": [
        {
          "indexed": false,
          "internalType": "address",
          "name": "owner",
          "type": "address"
        },
        {
          "indexed": false,
          "internalType": "uint256",
          "name": "amount",
          "type": "uint256"
        }
      ],
      "name": "FundsWithdrawn",
      "type": "event"
    },
    {
      "anonymous": false,
      "inputs": [
        {
          "indexed": false,
          "internalType": "uint64",
          "name": "version",
          "type": "uint64"
        }
      ],
      "name": "Initialized",
      "type": "event"
    },
    {
      "anonymous": false,
      "inputs": [
        {
          "indexed": false,
          "internalType": "uint256",
          "name": "_tokenId",
          "type": "uint256"
        }
      ],
      "name": "MetadataUpdate",
      "type": "event"
    },
    {
      "anonymous": false,
      "inputs": [
        {
          "indexed": true,
          "internalType": "address",
          "name": "from",
          "type": "address"
        },
        {
          "indexed": true,
          "internalType": "address",
          "name": "to",
          "type": "address"
        },
        {
          "indexed": true,
          "internalType": "uint256",
          "name": "tokenId",
          "type": "uint256"
        }
      ],
      "name": "Transfer",
      "type": "event"
    },
    {
      "inputs": [
        {
          "internalType": "address",
          "name": "to",
          "type": "address"
        },
        {
          "internalType": "uint256",
          "name": "tokenId",
          "type": "uint256"
        }
      ],
      "name": "approve",
      "outputs": [],
      "stateMutability": "nonpayable",
      "type": "function"
    },
    {
      "inputs": [
        {
          "internalType": "address",
          "name": "owner",
          "type": "address"
        }
      ],
      "name": "balanceOf",
      "outputs": [
        {
          "internalType": "uint256",
          "name": "",
          "type": "uint256"
        }
      ],
      "stateMutability": "view",
      "type": "function"
    },
    {
      "inputs": [
        {
          "internalType": "uint256",
          "name": "tokenId",
          "type": "uint256"
        },
        {
          "internalType": "string",
          "name": "attack",
          "type": "string"
        }
      ],
      "name": "chooseAttack",
      "outputs": [],
      "stateMutability": "nonpayable",
      "type": "function"
    },
    {
      "inputs": [],
      "name": "firstPlaceReward",
      "outputs": [
        {
          "internalType": "uint256",
          "name": "",
          "type": "uint256"
        }
      ],
      "stateMutability": "view",
      "type": "function"
    },
    {
      "inputs": [
        {
          "internalType": "uint256",
          "name": "tokenId",
          "type": "uint256"
        }
      ],
      "name": "getApproved",
      "outputs": [
        {
          "internalType": "address",
          "name": "",
          "type": "address"
        }
      ],
      "stateMutability": "view",
      "type": "function"
    },
    {
      "inputs": [
        {
          "internalType": "uint256",
          "name": "battleId",
          "type": "uint256"
        }
      ],
      "name": "getBattle",
      "outputs": [
        {
          "components": [
            {
              "internalType": "address",
              "name": "player1",
              "type": "address"
            },
            {
              "internalType": "address",
              "name": "player2",
              "type": "address"
            },
            {
              "internalType": "uint256",
              "name": "tokenId1",
              "type": "uint256"
            },
            {
              "internalType": "uint256",
              "name": "tokenId2",
              "type": "uint256"
            },
            {
              "internalType": "string",
              "name": "attack1",
              "type": "string"
            },
            {
              "internalType": "string",
              "name": "attack2",
              "type": "string"
            },
            {
              "internalType": "bool",
              "name": "player1Played",
              "type": "bool"
            },
            {
              "internalType": "bool",
              "name": "player2Played",
              "type": "bool"
            }
          ],
          "internalType": "struct CryptoClashCat.Battle",
          "name": "",
          "type": "tuple"
        }
      ],
      "stateMutability": "view",
      "type": "function"
    },
    {
      "inputs": [],
      "name": "getBattleCounter",
      "outputs": [
        {
          "internalType": "uint256",
          "name": "",
          "type": "uint256"
        }
      ],
      "stateMutability": "view",
      "type": "function"
    },
    {
      "inputs": [],
      "name": "getNextTokenId",
      "outputs": [
        {
          "internalType": "uint256",
          "name": "",
          "type": "uint256"
        }
      ],
      "stateMutability": "view",
      "type": "function"
    },
    {
      "inputs": [
        {
          "internalType": "uint256",
          "name": "tokenId",
          "type": "uint256"
        }
      ],
      "name": "getWins",
      "outputs": [
        {
          "internalType": "uint256",
          "name": "",
          "type": "uint256"
        }
      ],
      "stateMutability": "view",
      "type": "function"
    },
    {
      "inputs": [
        {
          "internalType": "uint256",
          "name": "maxNFTs",
          "type": "uint256"
        }
      ],
      "name": "initialize",
      "outputs": [],
      "stateMutability": "nonpayable",
      "type": "function"
    },
    {
      "inputs": [
        {
          "internalType": "address",
          "name": "owner",
          "type": "address"
        },
        {
          "internalType": "address",
          "name": "operator",
          "type": "address"
        }
      ],
      "name": "isApprovedForAll",
      "outputs": [
        {
          "internalType": "bool",
          "name": "",
          "type": "bool"
        }
      ],
      "stateMutability": "view",
      "type": "function"
    },
    {
      "inputs": [],
      "name": "name",
      "outputs": [
        {
          "internalType": "string",
          "name": "",
          "type": "string"
        }
      ],
      "stateMutability": "view",
      "type": "function"
    },
    {
      "inputs": [
        {
          "internalType": "uint256",
          "name": "tokenId",
          "type": "uint256"
        }
      ],
      "name": "ownerOf",
      "outputs": [
        {
          "internalType": "address",
          "name": "",
          "type": "address"
        }
      ],
      "stateMutability": "view",
      "type": "function"
    },
    {
      "inputs": [
        {
          "internalType": "address[]",
          "name": "topNFTs",
          "type": "address[]"
        },
        {
          "internalType": "address",
          "name": "cryptoClashContract",
          "type": "address"
        }
      ],
      "name": "rewardTopNFTs",
      "outputs": [],
      "stateMutability": "nonpayable",
      "type": "function"
    },
    {
      "inputs": [
        {
          "internalType": "address",
          "name": "to",
          "type": "address"
        },
        {
          "internalType": "string",
          "name": "uri",
          "type": "string"
        }
      ],
      "name": "safeMint",
      "outputs": [],
      "stateMutability": "payable",
      "type": "function"
    },
    {
      "inputs": [
        {
          "internalType": "address",
          "name": "from",
          "type": "address"
        },
        {
          "internalType": "address",
          "name": "to",
          "type": "address"
        },
        {
          "internalType": "uint256",
          "name": "tokenId",
          "type": "uint256"
        }
      ],
      "name": "safeTransferFrom",
      "outputs": [],
      "stateMutability": "nonpayable",
      "type": "function"
    },
    {
      "inputs": [
        {
          "internalType": "address",
          "name": "from",
          "type": "address"
        },
        {
          "internalType": "address",
          "name": "to",
          "type": "address"
        },
        {
          "internalType": "uint256",
          "name": "tokenId",
          "type": "uint256"
        },
        {
          "internalType": "bytes",
          "name": "data",
          "type": "bytes"
        }
      ],
      "name": "safeTransferFrom",
      "outputs": [],
      "stateMutability": "nonpayable",
      "type": "function"
    },
    {
      "inputs": [],
      "name": "secondPlaceReward",
      "outputs": [
        {
          "internalType": "uint256",
          "name": "",
          "type": "uint256"
        }
      ],
      "stateMutability": "view",
      "type": "function"
    },
    {
      "inputs": [
        {
          "internalType": "address",
          "name": "operator",
          "type": "address"
        },
        {
          "internalType": "bool",
          "name": "approved",
          "type": "bool"
        }
      ],
      "name": "setApprovalForAll",
      "outputs": [],
      "stateMutability": "nonpayable",
      "type": "function"
    },
    {
      "inputs": [
        {
          "internalType": "uint256",
          "name": "tokenId1",
          "type": "uint256"
        },
        {
          "internalType": "uint256",
          "name": "tokenId2",
          "type": "uint256"
        }
      ],
      "name": "startBattle",
      "outputs": [],
      "stateMutability": "nonpayable",
      "type": "function"
    },
    {
      "inputs": [
        {
          "internalType": "uint256",
          "name": "battleId",
          "type": "uint256"
        },
        {
          "internalType": "uint256",
          "name": "tokenId",
          "type": "uint256"
        },
        {
          "internalType": "string",
          "name": "attack",
          "type": "string"
        }
      ],
      "name": "submitAttack",
      "outputs": [],
      "stateMutability": "nonpayable",
      "type": "function"
    },
    {
      "inputs": [
        {
          "internalType": "bytes4",
          "name": "interfaceId",
          "type": "bytes4"
        }
      ],
      "name": "supportsInterface",
      "outputs": [
        {
          "internalType": "bool",
          "name": "",
          "type": "bool"
        }
      ],
      "stateMutability": "view",
      "type": "function"
    },
    {
      "inputs": [],
      "name": "symbol",
      "outputs": [
        {
          "internalType": "string",
          "name": "",
          "type": "string"
        }
      ],
      "stateMutability": "view",
      "type": "function"
    },
    {
      "inputs": [],
      "name": "thirdPlaceReward",
      "outputs": [
        {
          "internalType": "uint256",
          "name": "",
          "type": "uint256"
        }
      ],
      "stateMutability": "view",
      "type": "function"
    },
    {
      "inputs": [
        {
          "internalType": "uint256",
          "name": "index",
          "type": "uint256"
        }
      ],
      "name": "tokenByIndex",
      "outputs": [
        {
          "internalType": "uint256",
          "name": "",
          "type": "uint256"
        }
      ],
      "stateMutability": "view",
      "type": "function"
    },
    {
      "inputs": [
        {
          "internalType": "address",
          "name": "owner",
          "type": "address"
        },
        {
          "internalType": "uint256",
          "name": "index",
          "type": "uint256"
        }
      ],
      "name": "tokenOfOwnerByIndex",
      "outputs": [
        {
          "internalType": "uint256",
          "name": "",
          "type": "uint256"
        }
      ],
      "stateMutability": "view",
      "type": "function"
    },
    {
      "inputs": [
        {
          "internalType": "uint256",
          "name": "tokenId",
          "type": "uint256"
        }
      ],
      "name": "tokenURI",
      "outputs": [
        {
          "internalType": "string",
          "name": "",
          "type": "string"
        }
      ],
      "stateMutability": "view",
      "type": "function"
    },
    {
      "inputs": [],
      "name": "totalSupply",
      "outputs": [
        {
          "internalType": "uint256",
          "name": "",
          "type": "uint256"
        }
      ],
      "stateMutability": "view",
      "type": "function"
    },
    {
      "inputs": [
        {
          "internalType": "address",
          "name": "from",
          "type": "address"
        },
        {
          "internalType": "address",
          "name": "to",
          "type": "address"
        },
        {
          "internalType": "uint256",
          "name": "tokenId",
          "type": "uint256"
        }
      ],
      "name": "transferFrom",
      "outputs": [],
      "stateMutability": "nonpayable",
      "type": "function"
    },
    {
      "inputs": [],
      "name": "withdraw",
      "outputs": [],
      "stateMutability": "nonpayable",
      "type": "function"
    },
    {
      "stateMutability": "payable",
      "type": "receive"
    }
  ],
  "bytecode": "0x608060405234801561001057600080fd5b5061599080620000216000396000f3fe6080604052600436106101d05760003560e01c80636352211e116100f7578063aade6e4211610095578063caa0f92a11610064578063caa0f92a146106b6578063d204c45e146106e1578063e985e9c5146106fd578063fe4b84df1461073a576101d7565b8063aade6e42146105ea578063b88d4fde14610627578063bb5c0c1614610650578063c87b56dd14610679576101d7565b80637a555e9e116100d15780637a555e9e146105405780637c8874301461056b57806395d89b4114610596578063a22cb465146105c1576101d7565b80636352211e146104895780636dd0ce7a146104c657806370a0823114610503576101d7565b80631b8a7e541161016f5780633ccfd60b1161013e5780633ccfd60b146103e35780633daa6ba9146103fa57806342842e0e146104235780634f6ccce71461044c576101d7565b80631b8a7e541461032957806323b872dd146103545780632f745c591461037d5780632f913171146103ba576101d7565b8063081812fc116101ab578063081812fc1461026d578063095ea7b3146102aa57806318160ddd146102d357806319088f1f146102fe576101d7565b80625524c7146101dc57806301ffc9a71461020557806306fdde0314610242576101d7565b366101d757005b600080fd5b3480156101e857600080fd5b5061020360048036038101906101fe9190614175565b610763565b005b34801561021157600080fd5b5061022c60048036038101906102279190614229565b610934565b6040516102399190614271565b60405180910390f35b34801561024e57600080fd5b50610257610946565b604051610264919061430b565b60405180910390f35b34801561027957600080fd5b50610294600480360381019061028f919061432d565b6109e7565b6040516102a1919061439b565b60405180910390f35b3480156102b657600080fd5b506102d160048036038101906102cc91906143e2565b610a03565b005b3480156102df57600080fd5b506102e8610a19565b6040516102f59190614431565b60405180910390f35b34801561030a57600080fd5b50610313610a34565b6040516103209190614431565b60405180910390f35b34801561033557600080fd5b5061033e610a3a565b60405161034b9190614431565b60405180910390f35b34801561036057600080fd5b5061037b6004803603810190610376919061444c565b610a44565b005b34801561038957600080fd5b506103a4600480360381019061039f91906143e2565b610b46565b6040516103b19190614431565b60405180910390f35b3480156103c657600080fd5b506103e160048036038101906103dc9190614567565b610bfd565b005b3480156103ef57600080fd5b506103f861103c565b005b34801561040657600080fd5b50610421600480360381019061041c91906145c3565b6111fe565b005b34801561042f57600080fd5b5061044a6004803603810190610445919061444c565b611527565b005b34801561045857600080fd5b50610473600480360381019061046e919061432d565b611547565b6040516104809190614431565b60405180910390f35b34801561049557600080fd5b506104b060048036038101906104ab919061432d565b6115cb565b6040516104bd919061439b565b60405180910390f35b3480156104d257600080fd5b506104ed60048036038101906104e8919061432d565b6115dd565b6040516104fa9190614731565b60405180910390f35b34801561050f57600080fd5b5061052a60048036038101906105259190614753565b611825565b6040516105379190614431565b60405180910390f35b34801561054c57600080fd5b506105556118ee565b6040516105629190614431565b60405180910390f35b34801561057757600080fd5b506105806118f4565b60405161058d9190614431565b60405180910390f35b3480156105a257600080fd5b506105ab6118fa565b6040516105b8919061430b565b60405180910390f35b3480156105cd57600080fd5b506105e860048036038101906105e391906147ac565b61199b565b005b3480156105f657600080fd5b50610611600480360381019061060c919061432d565b6119b1565b60405161061e9190614431565b60405180910390f35b34801561063357600080fd5b5061064e6004803603810190610649919061488d565b6119d0565b005b34801561065c57600080fd5b5061067760048036038101906106729190614910565b6119ed565b005b34801561068557600080fd5b506106a0600480360381019061069b919061432d565b611e26565b6040516106ad919061430b565b60405180910390f35b3480156106c257600080fd5b506106cb611e38565b6040516106d89190614431565b60405180910390f35b6106fb60048036038101906106f6919061497f565b611e4e565b005b34801561070957600080fd5b50610724600480360381019061071f91906149db565b611f0a565b6040516107319190614271565b60405180910390f35b34801561074657600080fd5b50610761600480360381019061075c919061432d565b611fac565b005b3373ffffffffffffffffffffffffffffffffffffffff16610783836115cb565b73ffffffffffffffffffffffffffffffffffffffff16146107d9576040517f08c379a00000000000000000000000000000000000000000000000000000000081526004016107d090614a8d565b60405180910390fd5b6040516020016107e890614b04565b604051602081830303815290604052805190602001208160405160200161080f9190614b4a565b60405160208183030381529060405280519060200120148061087a575060405160200161083b90614bad565b60405160208183030381529060405280519060200120816040516020016108629190614b4a565b60405160208183030381529060405280519060200120145b806108ce575060405160200161088f90614c0e565b60405160208183030381529060405280519060200120816040516020016108b69190614b4a565b60405160208183030381529060405280519060200120145b61090d576040517f08c379a000000000000000000000000000000000000000000000000000000000815260040161090490614c95565b60405180910390fd5b80600080848152602001908152602001600020600001908161092f9190614ec1565b505050565b600061093f82612220565b9050919050565b6060600061095261229a565b905080600001805461096390614ce4565b80601f016020809104026020016040519081016040528092919081815260200182805461098f90614ce4565b80156109dc5780601f106109b1576101008083540402835291602001916109dc565b820191906000526020600020905b8154815290600101906020018083116109bf57829003601f168201915b505050505091505090565b60006109f2826122c2565b506109fc8261234a565b9050919050565b610a158282610a10612395565b61239d565b5050565b600080610a246123af565b9050806002018054905091505090565b60065481565b6000600254905090565b600073ffffffffffffffffffffffffffffffffffffffff168273ffffffffffffffffffffffffffffffffffffffff1603610ab65760006040517f64a0ae92000000000000000000000000000000000000000000000000000000008152600401610aad919061439b565b60405180910390fd5b6000610aca8383610ac5612395565b6123d7565b90508373ffffffffffffffffffffffffffffffffffffffff168173ffffffffffffffffffffffffffffffffffffffff1614610b40578382826040517f64283d7b000000000000000000000000000000000000000000000000000000008152600401610b3793929190614f93565b60405180910390fd5b50505050565b600080610b516123af565b9050610b5c84611825565b8310610ba15783836040517fa57d13dc000000000000000000000000000000000000000000000000000000008152600401610b98929190614fca565b60405180910390fd5b8060000160008573ffffffffffffffffffffffffffffffffffffffff1673ffffffffffffffffffffffffffffffffffffffff16815260200190815260200160002060008481526020019081526020016000205491505092915050565b600360009054906101000a900473ffffffffffffffffffffffffffffffffffffffff1673ffffffffffffffffffffffffffffffffffffffff163373ffffffffffffffffffffffffffffffffffffffff1614610c8d576040517f08c379a0000000000000000000000000000000000000000000000000000000008152600401610c8490615065565b60405180910390fd5b600382511115610cd2576040517f08c379a0000000000000000000000000000000000000000000000000000000008152600401610cc9906150d1565b60405180910390fd5b60008190506000600367ffffffffffffffff811115610cf457610cf361404a565b5b604051908082528060200260200182016040528015610d225781602001602082028036833780820191505090505b50905060065481600081518110610d3c57610d3b6150f1565b5b60200260200101818152505060075481600181518110610d5f57610d5e6150f1565b5b60200260200101818152505060085481600281518110610d8257610d816150f1565b5b60200260200101818152505060005b8451811015610ed157600073ffffffffffffffffffffffffffffffffffffffff16858281518110610dc557610dc46150f1565b5b602002602001015173ffffffffffffffffffffffffffffffffffffffff1603610e23576040517f08c379a0000000000000000000000000000000000000000000000000000000008152600401610e1a9061516c565b60405180910390fd5b8273ffffffffffffffffffffffffffffffffffffffff16637d4b7195868381518110610e5257610e516150f1565b5b6020026020010151848481518110610e6d57610e6c6150f1565b5b60200260200101516040518363ffffffff1660e01b8152600401610e92929190614fca565b600060405180830381600087803b158015610eac57600080fd5b505af1158015610ec0573d6000803e3d6000fd5b505050508080600101915050610d91565b5060005b845181101561103557600073ffffffffffffffffffffffffffffffffffffffff16858281518110610f0957610f086150f1565b5b602002602001015173ffffffffffffffffffffffffffffffffffffffff1603610f67576040517f08c379a0000000000000000000000000000000000000000000000000000000008152600401610f5e9061516c565b60405180910390fd5b6000858281518110610f7c57610f7b6150f1565b5b602002602001015190508073ffffffffffffffffffffffffffffffffffffffff166340c10f19878481518110610fb557610fb46150f1565b5b6020026020010151858581518110610fd057610fcf6150f1565b5b60200260200101516040518363ffffffff1660e01b8152600401610ff5929190614fca565b600060405180830381600087803b15801561100f57600080fd5b505af1158015611023573d6000803e3d6000fd5b50505050508080600101915050610ed5565b5050505050565b600360009054906101000a900473ffffffffffffffffffffffffffffffffffffffff1673ffffffffffffffffffffffffffffffffffffffff163373ffffffffffffffffffffffffffffffffffffffff16146110cc576040517f08c379a00000000000000000000000000000000000000000000000000000000081526004016110c3906151fe565b60405180910390fd5b60004790506000600360009054906101000a900473ffffffffffffffffffffffffffffffffffffffff1673ffffffffffffffffffffffffffffffffffffffff16826040516111199061524f565b60006040518083038185875af1925050503d8060008114611156576040519150601f19603f3d011682016040523d82523d6000602084013e61115b565b606091505b505090508061119f576040517f08c379a0000000000000000000000000000000000000000000000000000000008152600401611196906152b0565b60405180910390fd5b7feaff4b37086828766ad3268786972c0cd24259d4c87a80f9d3963a3c3d999b0d600360009054906101000a900473ffffffffffffffffffffffffffffffffffffffff16836040516111f2929190614fca565b60405180910390a15050565b3373ffffffffffffffffffffffffffffffffffffffff1661121e836115cb565b73ffffffffffffffffffffffffffffffffffffffff1614611274576040517f08c379a000000000000000000000000000000000000000000000000000000000815260040161126b90614a8d565b60405180910390fd5b600061127f826115cb565b9050600073ffffffffffffffffffffffffffffffffffffffff168173ffffffffffffffffffffffffffffffffffffffff16036112f0576040517f08c379a00000000000000000000000000000000000000000000000000000000081526004016112e79061531c565b60405180910390fd5b600260008154809291906113039061536b565b91905055506040518061010001604052803373ffffffffffffffffffffffffffffffffffffffff1681526020018273ffffffffffffffffffffffffffffffffffffffff1681526020018481526020018381526020016040518060200160405280600081525081526020016040518060200160405280600081525081526020016000151581526020016000151581525060016000600254815260200190815260200160002060008201518160000160006101000a81548173ffffffffffffffffffffffffffffffffffffffff021916908373ffffffffffffffffffffffffffffffffffffffff16021790555060208201518160010160006101000a81548173ffffffffffffffffffffffffffffffffffffffff021916908373ffffffffffffffffffffffffffffffffffffffff1602179055506040820151816002015560608201518160030155608082015181600401908161145e9190614ec1565b5060a08201518160050190816114749190614ec1565b5060c08201518160060160006101000a81548160ff02191690831515021790555060e08201518160060160016101000a81548160ff0219169083151502179055509050508073ffffffffffffffffffffffffffffffffffffffff163373ffffffffffffffffffffffffffffffffffffffff166002547fc441ce4b01dcdafd8c099080e5945a38e6fe9d3dfca01f0e77a26c19b4e0c969868660405161151a9291906153b3565b60405180910390a4505050565b611542838383604051806020016040528060008152506119d0565b505050565b6000806115526123af565b905061155c610a19565b83106115a2576000836040517fa57d13dc000000000000000000000000000000000000000000000000000000008152600401611599929190614fca565b60405180910390fd5b8060020183815481106115b8576115b76150f1565b5b9060005260206000200154915050919050565b60006115d6826122c2565b9050919050565b6115e5613f70565b60016000838152602001908152602001600020604051806101000160405290816000820160009054906101000a900473ffffffffffffffffffffffffffffffffffffffff1673ffffffffffffffffffffffffffffffffffffffff1673ffffffffffffffffffffffffffffffffffffffff1681526020016001820160009054906101000a900473ffffffffffffffffffffffffffffffffffffffff1673ffffffffffffffffffffffffffffffffffffffff1673ffffffffffffffffffffffffffffffffffffffff16815260200160028201548152602001600382015481526020016004820180546116d490614ce4565b80601f016020809104026020016040519081016040528092919081815260200182805461170090614ce4565b801561174d5780601f106117225761010080835404028352916020019161174d565b820191906000526020600020905b81548152906001019060200180831161173057829003601f168201915b5050505050815260200160058201805461176690614ce4565b80601f016020809104026020016040519081016040528092919081815260200182805461179290614ce4565b80156117df5780601f106117b4576101008083540402835291602001916117df565b820191906000526020600020905b8154815290600101906020018083116117c257829003601f168201915b505050505081526020016006820160009054906101000a900460ff161515151581526020016006820160019054906101000a900460ff1615151515815250509050919050565b60008061183061229a565b9050600073ffffffffffffffffffffffffffffffffffffffff168373ffffffffffffffffffffffffffffffffffffffff16036118a45760006040517f89c62b6400000000000000000000000000000000000000000000000000000000815260040161189b919061439b565b60405180910390fd5b8060030160008473ffffffffffffffffffffffffffffffffffffffff1673ffffffffffffffffffffffffffffffffffffffff16815260200190815260200160002054915050919050565b60085481565b60075481565b6060600061190661229a565b905080600101805461191790614ce4565b80601f016020809104026020016040519081016040528092919081815260200182805461194390614ce4565b80156119905780601f1061196557610100808354040283529160200191611990565b820191906000526020600020905b81548152906001019060200180831161197357829003601f168201915b505050505091505090565b6119ad6119a6612395565b83836123ed565b5050565b6000806000838152602001908152602001600020600101549050919050565b6119db848484610a44565b6119e78484848461256b565b50505050565b60006001600085815260200190815260200160002090503373ffffffffffffffffffffffffffffffffffffffff168160000160009054906101000a900473ffffffffffffffffffffffffffffffffffffffff1673ffffffffffffffffffffffffffffffffffffffff161480611ab157503373ffffffffffffffffffffffffffffffffffffffff168160010160009054906101000a900473ffffffffffffffffffffffffffffffffffffffff1673ffffffffffffffffffffffffffffffffffffffff16145b611af0576040517f08c379a0000000000000000000000000000000000000000000000000000000008152600401611ae79061544e565b60405180910390fd5b604051602001611aff90614b04565b6040516020818303038152906040528051906020012082604051602001611b269190614b4a565b604051602081830303815290604052805190602001201480611b915750604051602001611b5290614bad565b6040516020818303038152906040528051906020012082604051602001611b799190614b4a565b60405160208183030381529060405280519060200120145b80611be55750604051602001611ba690614c0e565b6040516020818303038152906040528051906020012082604051602001611bcd9190614b4a565b60405160208183030381529060405280519060200120145b611c24576040517f08c379a0000000000000000000000000000000000000000000000000000000008152600401611c1b906154ba565b60405180910390fd5b3373ffffffffffffffffffffffffffffffffffffffff168160000160009054906101000a900473ffffffffffffffffffffffffffffffffffffffff1673ffffffffffffffffffffffffffffffffffffffff16148015611c865750828160020154145b15611cbf5781816004019081611c9c9190614ec1565b5060018160060160006101000a81548160ff021916908315150217905550611d96565b3373ffffffffffffffffffffffffffffffffffffffff168160010160009054906101000a900473ffffffffffffffffffffffffffffffffffffffff1673ffffffffffffffffffffffffffffffffffffffff16148015611d215750828160030154145b15611d5a5781816005019081611d379190614ec1565b5060018160060160016101000a81548160ff021916908315150217905550611d95565b6040517f08c379a0000000000000000000000000000000000000000000000000000000008152600401611d8c9061554c565b60405180910390fd5b5b3373ffffffffffffffffffffffffffffffffffffffff16847ff685fa501be77ee479d232847278ea7b5190831731962deab7bf115efa6e02ba84604051611ddd919061430b565b60405180910390a38060060160009054906101000a900460ff168015611e1157508060060160019054906101000a900460ff165b15611e2057611e1f84612722565b5b50505050565b6060611e3182612ccd565b9050919050565b60006001600454611e49919061556c565b905090565b60055460045410611e94576040517f08c379a0000000000000000000000000000000000000000000000000000000008152600401611e8b906155ec565b60405180910390fd5b66b1a2bc2ec500003414611edd576040517f08c379a0000000000000000000000000000000000000000000000000000000008152600401611ed490615658565b60405180910390fd5b6000611ee7612df1565b9050611ef38382612e07565b611efd8183612e25565b611f05612e90565b505050565b600080611f1561229a565b90508060050160008573ffffffffffffffffffffffffffffffffffffffff1673ffffffffffffffffffffffffffffffffffffffff16815260200190815260200160002060008473ffffffffffffffffffffffffffffffffffffffff1673ffffffffffffffffffffffffffffffffffffffff16815260200190815260200160002060009054906101000a900460ff1691505092915050565b6000611fb6612eaa565b905060008160000160089054906101000a900460ff1615905060008260000160009054906101000a900467ffffffffffffffff1690506000808267ffffffffffffffff161480156120045750825b9050600060018367ffffffffffffffff16148015612039575060003073ffffffffffffffffffffffffffffffffffffffff163b145b905081158015612047575080155b1561207e576040517ff92ee8a900000000000000000000000000000000000000000000000000000000815260040160405180910390fd5b60018560000160006101000a81548167ffffffffffffffff021916908367ffffffffffffffff16021790555083156120ce5760018560000160086101000a81548160ff0219169083151502179055505b6121426040518060400160405280600e81526020017f43727970746f436c6173684361740000000000000000000000000000000000008152506040518060400160405280600381526020017f4343430000000000000000000000000000000000000000000000000000000000815250612ed2565b61214a612ee8565b612152612ef2565b33600360006101000a81548173ffffffffffffffffffffffffffffffffffffffff021916908373ffffffffffffffffffffffffffffffffffffffff1602179055508560058190555060006004819055506103e86006819055506101f460078190555060fa60088190555083156122185760008560000160086101000a81548160ff0219169083151502179055507fc7f505b2f371ae2175ee4913f4499e1f2633a7b5936321eed1cdaeb6115181d2600160405161220f91906156c7565b60405180910390a15b505050505050565b60007f780e9d63000000000000000000000000000000000000000000000000000000007bffffffffffffffffffffffffffffffffffffffffffffffffffffffff1916827bffffffffffffffffffffffffffffffffffffffffffffffffffffffff19161480612293575061229282612efc565b5b9050919050565b60007f80bb2b638cc20bc4d0a60d66940f3ab4a00c1d7b313497ca82fb0b4ab0079300905090565b6000806122ce83612f5d565b9050600073ffffffffffffffffffffffffffffffffffffffff168173ffffffffffffffffffffffffffffffffffffffff160361234157826040517f7e2732890000000000000000000000000000000000000000000000000000000081526004016123389190614431565b60405180910390fd5b80915050919050565b60008061235561229a565b905080600401600084815260200190815260200160002060009054906101000a900473ffffffffffffffffffffffffffffffffffffffff16915050919050565b600033905090565b6123aa8383836001612fa8565b505050565b60007f645e039705490088daad89bae25049a34f4a9072d398537b1ab2425f24cbed00905090565b60006123e484848461317c565b90509392505050565b60006123f761229a565b9050600073ffffffffffffffffffffffffffffffffffffffff168373ffffffffffffffffffffffffffffffffffffffff160361246a57826040517f5b08ba18000000000000000000000000000000000000000000000000000000008152600401612461919061439b565b60405180910390fd5b818160050160008673ffffffffffffffffffffffffffffffffffffffff1673ffffffffffffffffffffffffffffffffffffffff16815260200190815260200160002060008573ffffffffffffffffffffffffffffffffffffffff1673ffffffffffffffffffffffffffffffffffffffff16815260200190815260200160002060006101000a81548160ff0219169083151502179055508273ffffffffffffffffffffffffffffffffffffffff168473ffffffffffffffffffffffffffffffffffffffff167f17307eab39ab6107e8899845ad3d59bd9653f200f220920489ca2b5937696c318460405161255d9190614271565b60405180910390a350505050565b60008373ffffffffffffffffffffffffffffffffffffffff163b111561271c578273ffffffffffffffffffffffffffffffffffffffff1663150b7a026125af612395565b8685856040518563ffffffff1660e01b81526004016125d19493929190615737565b6020604051808303816000875af192505050801561260d57506040513d601f19601f8201168201806040525081019061260a9190615798565b60015b612691573d806000811461263d576040519150601f19603f3d011682016040523d82523d6000602084013e612642565b606091505b50600081510361268957836040517f64a0ae92000000000000000000000000000000000000000000000000000000008152600401612680919061439b565b60405180910390fd5b805181602001fd5b63150b7a0260e01b7bffffffffffffffffffffffffffffffffffffffffffffffffffffffff1916817bffffffffffffffffffffffffffffffffffffffffffffffffffffffff19161461271a57836040517f64a0ae92000000000000000000000000000000000000000000000000000000008152600401612711919061439b565b60405180910390fd5b505b50505050565b600060016000838152602001908152602001600020905060008060008060405160200161274e90614b04565b60405160208183030381529060405280519060200120856004016040516020016127789190615848565b604051602081830303815290604052805190602001201480156127e757506040516020016127a590614bad565b60405160208183030381529060405280519060200120856005016040516020016127cf9190615848565b60405160208183030381529060405280519060200120145b8061289657506040516020016127fc90614bad565b60405160208183030381529060405280519060200120856004016040516020016128269190615848565b60405160208183030381529060405280519060200120148015612895575060405160200161285390614c0e565b604051602081830303815290604052805190602001208560050160405160200161287d9190615848565b60405160208183030381529060405280519060200120145b5b8061294557506040516020016128ab90614c0e565b60405160208183030381529060405280519060200120856004016040516020016128d59190615848565b60405160208183030381529060405280519060200120148015612944575060405160200161290290614b04565b604051602081830303815290604052805190602001208560050160405160200161292c9190615848565b60405160208183030381529060405280519060200120145b5b156129da578460000160009054906101000a900473ffffffffffffffffffffffffffffffffffffffff169350846002015492508460010160009054906101000a900473ffffffffffffffffffffffffffffffffffffffff169150846003015490506000808660020154815260200190815260200160002060010160008154809291906129d09061536b565b9190505550612c87565b6040516020016129e990614b04565b6040516020818303038152906040528051906020012085600501604051602001612a139190615848565b60405160208183030381529060405280519060200120148015612a825750604051602001612a4090614bad565b6040516020818303038152906040528051906020012085600401604051602001612a6a9190615848565b60405160208183030381529060405280519060200120145b80612b315750604051602001612a9790614bad565b6040516020818303038152906040528051906020012085600501604051602001612ac19190615848565b60405160208183030381529060405280519060200120148015612b305750604051602001612aee90614c0e565b6040516020818303038152906040528051906020012085600401604051602001612b189190615848565b60405160208183030381529060405280519060200120145b5b80612be05750604051602001612b4690614c0e565b6040516020818303038152906040528051906020012085600501604051602001612b709190615848565b60405160208183030381529060405280519060200120148015612bdf5750604051602001612b9d90614b04565b6040516020818303038152906040528051906020012085600401604051602001612bc79190615848565b60405160208183030381529060405280519060200120145b5b15612c75578460010160009054906101000a900473ffffffffffffffffffffffffffffffffffffffff169350846003015492508460000160009054906101000a900473ffffffffffffffffffffffffffffffffffffffff16915084600201549050600080866003015481526020019081526020016000206001016000815480929190612c6b9061536b565b9190505550612c86565b600093506000925060009150600090505b5b857f9aae9bd90363603ad3d21e5a3aa1ee854b568ebec7b0f4ad591c4ef4b8b1d01585858585604051612cbd949392919061585f565b60405180910390a2505050505050565b60606000612cd9613299565b9050612ce4836122c2565b5060008160000160008581526020019081526020016000208054612d0790614ce4565b80601f0160208091040260200160405190810160405280929190818152602001828054612d3390614ce4565b8015612d805780601f10612d5557610100808354040283529160200191612d80565b820191906000526020600020905b815481529060010190602001808311612d6357829003601f168201915b505050505090506000612d916132c1565b90506000815103612da757819350505050612dec565b600082511115612ddd578082604051602001612dc49291906158a4565b6040516020818303038152906040529350505050612dec565b612de6856132d8565b93505050505b919050565b60006001600454612e02919061556c565b905090565b612e21828260405180602001604052806000815250613341565b5050565b6000612e2f613299565b9050818160000160008581526020019081526020016000209081612e539190614ec1565b507ff8e1a15aba9398e019f0b49df1a4fde98ee17ae345cb5f6b5e2c27f5033e8ce783604051612e839190614431565b60405180910390a1505050565b60046000815480929190612ea39061536b565b9190505550565b60007ff0c57e16840df040f15088dc2f81fe391c3923bec73e23a9662efc9c229c6a00905090565b612eda61335d565b612ee4828261339d565b5050565b612ef061335d565b565b612efa61335d565b565b6000634906490660e01b7bffffffffffffffffffffffffffffffffffffffffffffffffffffffff1916827bffffffffffffffffffffffffffffffffffffffffffffffffffffffff19161480612f565750612f55826133da565b5b9050919050565b600080612f6861229a565b905080600201600084815260200190815260200160002060009054906101000a900473ffffffffffffffffffffffffffffffffffffffff16915050919050565b6000612fb261229a565b90508180612fed5750600073ffffffffffffffffffffffffffffffffffffffff168373ffffffffffffffffffffffffffffffffffffffff1614155b15613121576000612ffd856122c2565b9050600073ffffffffffffffffffffffffffffffffffffffff168473ffffffffffffffffffffffffffffffffffffffff161415801561306857508373ffffffffffffffffffffffffffffffffffffffff168173ffffffffffffffffffffffffffffffffffffffff1614155b801561307b57506130798185611f0a565b155b156130bd57836040517fa9fbf51f0000000000000000000000000000000000000000000000000000000081526004016130b4919061439b565b60405180910390fd5b821561311f57848673ffffffffffffffffffffffffffffffffffffffff168273ffffffffffffffffffffffffffffffffffffffff167f8c5be1e5ebec7d5bd14f71427d1e84f3dd0314c0f7b2291e5b200ac8c7c3b92560405160405180910390a45b505b8481600401600086815260200190815260200160002060006101000a81548173ffffffffffffffffffffffffffffffffffffffff021916908373ffffffffffffffffffffffffffffffffffffffff1602179055505050505050565b60008061318a8585856134bc565b9050600073ffffffffffffffffffffffffffffffffffffffff168173ffffffffffffffffffffffffffffffffffffffff16036131ce576131c9846136e9565b61320d565b8473ffffffffffffffffffffffffffffffffffffffff168173ffffffffffffffffffffffffffffffffffffffff161461320c5761320b8185613745565b5b5b600073ffffffffffffffffffffffffffffffffffffffff168573ffffffffffffffffffffffffffffffffffffffff160361324f5761324a846138bf565b61328e565b8473ffffffffffffffffffffffffffffffffffffffff168173ffffffffffffffffffffffffffffffffffffffff161461328d5761328c85856139ab565b5b5b809150509392505050565b60007f0542a41881ee128a365a727b282c86fa859579490b9bb45aab8503648c8e7900905090565b606060405180602001604052806000815250905090565b60606132e3826122c2565b5060006132ee6132c1565b9050600081511161330e5760405180602001604052806000815250613339565b8061331884613a47565b6040516020016133299291906158a4565b6040516020818303038152906040525b915050919050565b61334b8383613b15565b613358600084848461256b565b505050565b613365613c0e565b61339b576040517fd7e6bcf800000000000000000000000000000000000000000000000000000000815260040160405180910390fd5b565b6133a561335d565b60006133af61229a565b9050828160000190816133c29190614ec1565b50818160010190816133d49190614ec1565b50505050565b60007f80ac58cd000000000000000000000000000000000000000000000000000000007bffffffffffffffffffffffffffffffffffffffffffffffffffffffff1916827bffffffffffffffffffffffffffffffffffffffffffffffffffffffff191614806134a557507f5b5e139f000000000000000000000000000000000000000000000000000000007bffffffffffffffffffffffffffffffffffffffffffffffffffffffff1916827bffffffffffffffffffffffffffffffffffffffffffffffffffffffff1916145b806134b557506134b482613c2e565b5b9050919050565b6000806134c761229a565b905060006134d485612f5d565b9050600073ffffffffffffffffffffffffffffffffffffffff168473ffffffffffffffffffffffffffffffffffffffff161461351657613515818587613c98565b5b600073ffffffffffffffffffffffffffffffffffffffff168173ffffffffffffffffffffffffffffffffffffffff16146135a957613558600086600080612fa8565b60018260030160008373ffffffffffffffffffffffffffffffffffffffff1673ffffffffffffffffffffffffffffffffffffffff168152602001908152602001600020600082825403925050819055505b600073ffffffffffffffffffffffffffffffffffffffff168673ffffffffffffffffffffffffffffffffffffffff161461362e5760018260030160008873ffffffffffffffffffffffffffffffffffffffff1673ffffffffffffffffffffffffffffffffffffffff168152602001908152602001600020600082825401925050819055505b8582600201600087815260200190815260200160002060006101000a81548173ffffffffffffffffffffffffffffffffffffffff021916908373ffffffffffffffffffffffffffffffffffffffff160217905550848673ffffffffffffffffffffffffffffffffffffffff168273ffffffffffffffffffffffffffffffffffffffff167fddf252ad1be2c89b69c2b068fc378daa952ba7f163c4a11628f55a4df523b3ef60405160405180910390a480925050509392505050565b60006136f36123af565b9050806002018054905081600301600084815260200190815260200160002081905550806002018290806001815401808255809150506001900390600052602060002001600090919091909150555050565b600061374f6123af565b9050600061375c84611825565b905060008260010160008581526020019081526020016000205490508181146138495760008360000160008773ffffffffffffffffffffffffffffffffffffffff1673ffffffffffffffffffffffffffffffffffffffff1681526020019081526020016000206000848152602001908152602001600020549050808460000160008873ffffffffffffffffffffffffffffffffffffffff1673ffffffffffffffffffffffffffffffffffffffff1681526020019081526020016000206000848152602001908152602001600020819055508184600101600083815260200190815260200160002081905550505b826001016000858152602001908152602001600020600090558260000160008673ffffffffffffffffffffffffffffffffffffffff1673ffffffffffffffffffffffffffffffffffffffff1681526020019081526020016000206000838152602001908152602001600020600090555050505050565b60006138c96123af565b90506000600182600201805490506138e191906158c8565b905060008260030160008581526020019081526020016000205490506000836002018381548110613915576139146150f1565b5b9060005260206000200154905080846002018381548110613939576139386150f1565b5b90600052602060002001819055508184600301600083815260200190815260200160002081905550836003016000868152602001908152602001600020600090558360020180548061398e5761398d6158fc565b5b600190038181906000526020600020016000905590555050505050565b60006139b56123af565b9050600060016139c485611825565b6139ce91906158c8565b9050828260000160008673ffffffffffffffffffffffffffffffffffffffff1673ffffffffffffffffffffffffffffffffffffffff168152602001908152602001600020600083815260200190815260200160002081905550808260010160008581526020019081526020016000208190555050505050565b606060006001613a5684613d5c565b01905060008167ffffffffffffffff811115613a7557613a7461404a565b5b6040519080825280601f01601f191660200182016040528015613aa75781602001600182028036833780820191505090505b509050600082602001820190505b600115613b0a578080600190039150507f3031323334353637383961626364656600000000000000000000000000000000600a86061a8153600a8581613afe57613afd61592b565b5b04945060008503613ab5575b819350505050919050565b600073ffffffffffffffffffffffffffffffffffffffff168273ffffffffffffffffffffffffffffffffffffffff1603613b875760006040517f64a0ae92000000000000000000000000000000000000000000000000000000008152600401613b7e919061439b565b60405180910390fd5b6000613b95838360006123d7565b9050600073ffffffffffffffffffffffffffffffffffffffff168173ffffffffffffffffffffffffffffffffffffffff1614613c095760006040517f73c6ac6e000000000000000000000000000000000000000000000000000000008152600401613c00919061439b565b60405180910390fd5b505050565b6000613c18612eaa565b60000160089054906101000a900460ff16905090565b60007f01ffc9a7000000000000000000000000000000000000000000000000000000007bffffffffffffffffffffffffffffffffffffffffffffffffffffffff1916827bffffffffffffffffffffffffffffffffffffffffffffffffffffffff1916149050919050565b613ca3838383613eaf565b613d5757600073ffffffffffffffffffffffffffffffffffffffff168373ffffffffffffffffffffffffffffffffffffffff1603613d1857806040517f7e273289000000000000000000000000000000000000000000000000000000008152600401613d0f9190614431565b60405180910390fd5b81816040517f177e802f000000000000000000000000000000000000000000000000000000008152600401613d4e929190614fca565b60405180910390fd5b505050565b600080600090507a184f03e93ff9f4daa797ed6e38ed64bf6a1f0100000000000000008310613dba577a184f03e93ff9f4daa797ed6e38ed64bf6a1f0100000000000000008381613db057613daf61592b565b5b0492506040810190505b6d04ee2d6d415b85acef81000000008310613df7576d04ee2d6d415b85acef81000000008381613ded57613dec61592b565b5b0492506020810190505b662386f26fc100008310613e2657662386f26fc100008381613e1c57613e1b61592b565b5b0492506010810190505b6305f5e1008310613e4f576305f5e1008381613e4557613e4461592b565b5b0492506008810190505b6127108310613e74576127108381613e6a57613e6961592b565b5b0492506004810190505b60648310613e975760648381613e8d57613e8c61592b565b5b0492506002810190505b600a8310613ea6576001810190505b80915050919050565b60008073ffffffffffffffffffffffffffffffffffffffff168373ffffffffffffffffffffffffffffffffffffffff1614158015613f6757508273ffffffffffffffffffffffffffffffffffffffff168473ffffffffffffffffffffffffffffffffffffffff161480613f285750613f278484611f0a565b5b80613f6657508273ffffffffffffffffffffffffffffffffffffffff16613f4e8361234a565b73ffffffffffffffffffffffffffffffffffffffff16145b5b90509392505050565b604051806101000160405280600073ffffffffffffffffffffffffffffffffffffffff168152602001600073ffffffffffffffffffffffffffffffffffffffff168152602001600081526020016000815260200160608152602001606081526020016000151581526020016000151581525090565b6000604051905090565b600080fd5b600080fd5b6000819050919050565b61400c81613ff9565b811461401757600080fd5b50565b60008135905061402981614003565b92915050565b600080fd5b600080fd5b6000601f19601f8301169050919050565b7f4e487b7100000000000000000000000000000000000000000000000000000000600052604160045260246000fd5b61408282614039565b810181811067ffffffffffffffff821117156140a1576140a061404a565b5b80604052505050565b60006140b4613fe5565b90506140c08282614079565b919050565b600067ffffffffffffffff8211156140e0576140df61404a565b5b6140e982614039565b9050602081019050919050565b82818337600083830152505050565b6000614118614113846140c5565b6140aa565b90508281526020810184848401111561413457614133614034565b5b61413f8482856140f6565b509392505050565b600082601f83011261415c5761415b61402f565b5b813561416c848260208601614105565b91505092915050565b6000806040838503121561418c5761418b613fef565b5b600061419a8582860161401a565b925050602083013567ffffffffffffffff8111156141bb576141ba613ff4565b5b6141c785828601614147565b9150509250929050565b60007fffffffff0000000000000000000000000000000000000000000000000000000082169050919050565b614206816141d1565b811461421157600080fd5b50565b600081359050614223816141fd565b92915050565b60006020828403121561423f5761423e613fef565b5b600061424d84828501614214565b91505092915050565b60008115159050919050565b61426b81614256565b82525050565b60006020820190506142866000830184614262565b92915050565b600081519050919050565b600082825260208201905092915050565b60005b838110156142c65780820151818401526020810190506142ab565b60008484015250505050565b60006142dd8261428c565b6142e78185614297565b93506142f78185602086016142a8565b61430081614039565b840191505092915050565b6000602082019050818103600083015261432581846142d2565b905092915050565b60006020828403121561434357614342613fef565b5b60006143518482850161401a565b91505092915050565b600073ffffffffffffffffffffffffffffffffffffffff82169050919050565b60006143858261435a565b9050919050565b6143958161437a565b82525050565b60006020820190506143b0600083018461438c565b92915050565b6143bf8161437a565b81146143ca57600080fd5b50565b6000813590506143dc816143b6565b92915050565b600080604083850312156143f9576143f8613fef565b5b6000614407858286016143cd565b92505060206144188582860161401a565b9150509250929050565b61442b81613ff9565b82525050565b60006020820190506144466000830184614422565b92915050565b60008060006060848603121561446557614464613fef565b5b6000614473868287016143cd565b9350506020614484868287016143cd565b92505060406144958682870161401a565b9150509250925092565b600067ffffffffffffffff8211156144ba576144b961404a565b5b602082029050602081019050919050565b600080fd5b60006144e36144de8461449f565b6140aa565b90508083825260208201905060208402830185811115614506576145056144cb565b5b835b8181101561452f578061451b88826143cd565b845260208401935050602081019050614508565b5050509392505050565b600082601f83011261454e5761454d61402f565b5b813561455e8482602086016144d0565b91505092915050565b6000806040838503121561457e5761457d613fef565b5b600083013567ffffffffffffffff81111561459c5761459b613ff4565b5b6145a885828601614539565b92505060206145b9858286016143cd565b9150509250929050565b600080604083850312156145da576145d9613fef565b5b60006145e88582860161401a565b92505060206145f98582860161401a565b9150509250929050565b61460c8161437a565b82525050565b61461b81613ff9565b82525050565b600082825260208201905092915050565b600061463d8261428c565b6146478185614621565b93506146578185602086016142a8565b61466081614039565b840191505092915050565b61467481614256565b82525050565b6000610100830160008301516146936000860182614603565b5060208301516146a66020860182614603565b5060408301516146b96040860182614612565b5060608301516146cc6060860182614612565b50608083015184820360808601526146e48282614632565b91505060a083015184820360a08601526146fe8282614632565b91505060c083015161471360c086018261466b565b5060e083015161472660e086018261466b565b508091505092915050565b6000602082019050818103600083015261474b818461467a565b905092915050565b60006020828403121561476957614768613fef565b5b6000614777848285016143cd565b91505092915050565b61478981614256565b811461479457600080fd5b50565b6000813590506147a681614780565b92915050565b600080604083850312156147c3576147c2613fef565b5b60006147d1858286016143cd565b92505060206147e285828601614797565b9150509250929050565b600067ffffffffffffffff8211156148075761480661404a565b5b61481082614039565b9050602081019050919050565b600061483061482b846147ec565b6140aa565b90508281526020810184848401111561484c5761484b614034565b5b6148578482856140f6565b509392505050565b600082601f8301126148745761487361402f565b5b813561488484826020860161481d565b91505092915050565b600080600080608085870312156148a7576148a6613fef565b5b60006148b5878288016143cd565b94505060206148c6878288016143cd565b93505060406148d78782880161401a565b925050606085013567ffffffffffffffff8111156148f8576148f7613ff4565b5b6149048782880161485f565b91505092959194509250565b60008060006060848603121561492957614928613fef565b5b60006149378682870161401a565b93505060206149488682870161401a565b925050604084013567ffffffffffffffff81111561496957614968613ff4565b5b61497586828701614147565b9150509250925092565b6000806040838503121561499657614995613fef565b5b60006149a4858286016143cd565b925050602083013567ffffffffffffffff8111156149c5576149c4613ff4565b5b6149d185828601614147565b9150509250929050565b600080604083850312156149f2576149f1613fef565b5b6000614a00858286016143cd565b9250506020614a11858286016143cd565b9150509250929050565b7f596f7520617265206e6f7420746865206f776e6572206f662074686973204e4660008201527f5400000000000000000000000000000000000000000000000000000000000000602082015250565b6000614a77602183614297565b9150614a8282614a1b565b604082019050919050565b60006020820190508181036000830152614aa681614a6a565b9050919050565b600081905092915050565b7f7061706572000000000000000000000000000000000000000000000000000000600082015250565b6000614aee600583614aad565b9150614af982614ab8565b600582019050919050565b6000614b0f82614ae1565b9150819050919050565b6000614b248261428c565b614b2e8185614aad565b9350614b3e8185602086016142a8565b80840191505092915050565b6000614b568284614b19565b915081905092915050565b7f726f636b00000000000000000000000000000000000000000000000000000000600082015250565b6000614b97600483614aad565b9150614ba282614b61565b600482019050919050565b6000614bb882614b8a565b9150819050919050565b7f73636973736f7273000000000000000000000000000000000000000000000000600082015250565b6000614bf8600883614aad565b9150614c0382614bc2565b600882019050919050565b6000614c1982614beb565b9150819050919050565b7f496e76616c69642061747461636b2c206d75737420626520277061706572272c60008201527f2027726f636b272c206f72202773636973736f72732700000000000000000000602082015250565b6000614c7f603683614297565b9150614c8a82614c23565b604082019050919050565b60006020820190508181036000830152614cae81614c72565b9050919050565b7f4e487b7100000000000000000000000000000000000000000000000000000000600052602260045260246000fd5b60006002820490506001821680614cfc57607f821691505b602082108103614d0f57614d0e614cb5565b5b50919050565b60008190508160005260206000209050919050565b60006020601f8301049050919050565b600082821b905092915050565b600060088302614d777fffffffffffffffffffffffffffffffffffffffffffffffffffffffffffffffff82614d3a565b614d818683614d3a565b95508019841693508086168417925050509392505050565b6000819050919050565b6000614dbe614db9614db484613ff9565b614d99565b613ff9565b9050919050565b6000819050919050565b614dd883614da3565b614dec614de482614dc5565b848454614d47565b825550505050565b600090565b614e01614df4565b614e0c818484614dcf565b505050565b5b81811015614e3057614e25600082614df9565b600181019050614e12565b5050565b601f821115614e7557614e4681614d15565b614e4f84614d2a565b81016020851015614e5e578190505b614e72614e6a85614d2a565b830182614e11565b50505b505050565b600082821c905092915050565b6000614e9860001984600802614e7a565b1980831691505092915050565b6000614eb18383614e87565b9150826002028217905092915050565b614eca8261428c565b67ffffffffffffffff811115614ee357614ee261404a565b5b614eed8254614ce4565b614ef8828285614e34565b600060209050601f831160018114614f2b5760008415614f19578287015190505b614f238582614ea5565b865550614f8b565b601f198416614f3986614d15565b60005b82811015614f6157848901518255600182019150602085019450602081019050614f3c565b86831015614f7e5784890151614f7a601f891682614e87565b8355505b6001600288020188555050505b505050505050565b6000606082019050614fa8600083018661438c565b614fb56020830185614422565b614fc2604083018461438c565b949350505050565b6000604082019050614fdf600083018561438c565b614fec6020830184614422565b9392505050565b7f4f6e6c7920746865206f776e65722063616e20616c6c6f63617465207265776160008201527f7264730000000000000000000000000000000000000000000000000000000000602082015250565b600061504f602383614297565b915061505a82614ff3565b604082019050919050565b6000602082019050818103600083015261507e81615042565b9050919050565b7f43616e6e6f7420726577617264206d6f7265207468616e2033204e4654730000600082015250565b60006150bb601e83614297565b91506150c682615085565b602082019050919050565b600060208201905081810360008301526150ea816150ae565b9050919050565b7f4e487b7100000000000000000000000000000000000000000000000000000000600052603260045260246000fd5b7f496e76616c696420616464726573730000000000000000000000000000000000600082015250565b6000615156600f83614297565b915061516182615120565b602082019050919050565b6000602082019050818103600083015261518581615149565b9050919050565b7f4f6e6c7920746865206f776e65722063616e2077697468647261772066756e6460008201527f7300000000000000000000000000000000000000000000000000000000000000602082015250565b60006151e8602183614297565b91506151f38261518c565b604082019050919050565b60006020820190508181036000830152615217816151db565b9050919050565b600081905092915050565b50565b600061523960008361521e565b915061524482615229565b600082019050919050565b600061525a8261522c565b9150819050919050565b7f4661696c656420746f2077697468647261772066756e64730000000000000000600082015250565b600061529a601883614297565b91506152a582615264565b602082019050919050565b600060208201905081810360008301526152c98161528d565b9050919050565b7f4f70706f6e656e74204e465420646f6573206e6f742065786973740000000000600082015250565b6000615306601b83614297565b9150615311826152d0565b602082019050919050565b60006020820190508181036000830152615335816152f9565b9050919050565b7f4e487b7100000000000000000000000000000000000000000000000000000000600052601160045260246000fd5b600061537682613ff9565b91507fffffffffffffffffffffffffffffffffffffffffffffffffffffffffffffffff82036153a8576153a761533c565b5b600182019050919050565b60006040820190506153c86000830185614422565b6153d56020830184614422565b9392505050565b7f596f7520617265206e6f74206120706c6179657220696e20746869732062617460008201527f746c650000000000000000000000000000000000000000000000000000000000602082015250565b6000615438602383614297565b9150615443826153dc565b604082019050919050565b600060208201905081810360008301526154678161542b565b9050919050565b7f496e76616c69642061747461636b000000000000000000000000000000000000600082015250565b60006154a4600e83614297565b91506154af8261546e565b602082019050919050565b600060208201905081810360008301526154d381615497565b9050919050565b7f596f7520617265206e6f74206120706c6179657220696e20746869732062617460008201527f746c65206f722077726f6e6720746f6b656e4964000000000000000000000000602082015250565b6000615536603483614297565b9150615541826154da565b604082019050919050565b6000602082019050818103600083015261556581615529565b9050919050565b600061557782613ff9565b915061558283613ff9565b925082820190508082111561559a5761559961533c565b5b92915050565b7f4d6178696d756d206e756d626572206f66204e465473206d696e746564000000600082015250565b60006155d6601d83614297565b91506155e1826155a0565b602082019050919050565b60006020820190508181036000830152615605816155c9565b9050919050565b7f596f75206d7573742073656e6420302e30352045544820746f206d696e740000600082015250565b6000615642601e83614297565b915061564d8261560c565b602082019050919050565b6000602082019050818103600083015261567181615635565b9050919050565b6000819050919050565b600067ffffffffffffffff82169050919050565b60006156b16156ac6156a784615678565b614d99565b615682565b9050919050565b6156c181615696565b82525050565b60006020820190506156dc60008301846156b8565b92915050565b600081519050919050565b600082825260208201905092915050565b6000615709826156e2565b61571381856156ed565b93506157238185602086016142a8565b61572c81614039565b840191505092915050565b600060808201905061574c600083018761438c565b615759602083018661438c565b6157666040830185614422565b818103606083015261577881846156fe565b905095945050505050565b600081519050615792816141fd565b92915050565b6000602082840312156157ae576157ad613fef565b5b60006157bc84828501615783565b91505092915050565b600081546157d281614ce4565b6157dc8186614aad565b945060018216600081146157f7576001811461580c5761583f565b60ff198316865281151582028601935061583f565b61581585614d15565b60005b8381101561583757815481890152600182019150602081019050615818565b838801955050505b50505092915050565b600061585482846157c5565b915081905092915050565b6000608082019050615874600083018761438c565b6158816020830186614422565b61588e604083018561438c565b61589b6060830184614422565b95945050505050565b60006158b08285614b19565b91506158bc8284614b19565b91508190509392505050565b60006158d382613ff9565b91506158de83613ff9565b92508282039050818111156158f6576158f561533c565b5b92915050565b7f4e487b7100000000000000000000000000000000000000000000000000000000600052603160045260246000fd5b7f4e487b7100000000000000000000000000000000000000000000000000000000600052601260045260246000fdfea2646970667358221220b3724a69913d6f0a4b99a5b94e1df258ada754c9650b2446ffdde93be8e8be0b64736f6c63430008180033",
  "linkReferences": {},
  "deployedLinkReferences": {}
}