{
  "_format": "hh-sol-artifact-1",
  "contractName": "CryptoClashCat",
  "sourceName": "contracts/CryptoClashCat.sol",
  "abi": [
    {
      "inputs": [],
      "name": "ERC721EnumerableForbiddenBatchMint",
      "type": "error"
    },
    {
      "inputs": [
        {
          "internalType": "address",
          "name": "sender",
          "type": "address"
        },
        {
          "internalType": "uint256",
          "name": "tokenId",
          "type": "uint256"
        },
        {
          "internalType": "address",
          "name": "owner",
          "type": "address"
        }
      ],
      "name": "ERC721IncorrectOwner",
      "type": "error"
    },
    {
      "inputs": [
        {
          "internalType": "address",
          "name": "operator",
          "type": "address"
        },
        {
          "internalType": "uint256",
          "name": "tokenId",
          "type": "uint256"
        }
      ],
      "name": "ERC721InsufficientApproval",
      "type": "error"
    },
    {
      "inputs": [
        {
          "internalType": "address",
          "name": "approver",
          "type": "address"
        }
      ],
      "name": "ERC721InvalidApprover",
      "type": "error"
    },
    {
      "inputs": [
        {
          "internalType": "address",
          "name": "operator",
          "type": "address"
        }
      ],
      "name": "ERC721InvalidOperator",
      "type": "error"
    },
    {
      "inputs": [
        {
          "internalType": "address",
          "name": "owner",
          "type": "address"
        }
      ],
      "name": "ERC721InvalidOwner",
      "type": "error"
    },
    {
      "inputs": [
        {
          "internalType": "address",
          "name": "receiver",
          "type": "address"
        }
      ],
      "name": "ERC721InvalidReceiver",
      "type": "error"
    },
    {
      "inputs": [
        {
          "internalType": "address",
          "name": "sender",
          "type": "address"
        }
      ],
      "name": "ERC721InvalidSender",
      "type": "error"
    },
    {
      "inputs": [
        {
          "internalType": "uint256",
          "name": "tokenId",
          "type": "uint256"
        }
      ],
      "name": "ERC721NonexistentToken",
      "type": "error"
    },
    {
      "inputs": [
        {
          "internalType": "address",
          "name": "owner",
          "type": "address"
        },
        {
          "internalType": "uint256",
          "name": "index",
          "type": "uint256"
        }
      ],
      "name": "ERC721OutOfBoundsIndex",
      "type": "error"
    },
    {
      "inputs": [],
      "name": "InvalidInitialization",
      "type": "error"
    },
    {
      "inputs": [],
      "name": "NotInitializing",
      "type": "error"
    },
    {
      "anonymous": false,
      "inputs": [
        {
          "indexed": true,
          "internalType": "address",
          "name": "owner",
          "type": "address"
        },
        {
          "indexed": true,
          "internalType": "address",
          "name": "approved",
          "type": "address"
        },
        {
          "indexed": true,
          "internalType": "uint256",
          "name": "tokenId",
          "type": "uint256"
        }
      ],
      "name": "Approval",
      "type": "event"
    },
    {
      "anonymous": false,
      "inputs": [
        {
          "indexed": true,
          "internalType": "address",
          "name": "owner",
          "type": "address"
        },
        {
          "indexed": true,
          "internalType": "address",
          "name": "operator",
          "type": "address"
        },
        {
          "indexed": false,
          "internalType": "bool",
          "name": "approved",
          "type": "bool"
        }
      ],
      "name": "ApprovalForAll",
      "type": "event"
    },
    {
      "anonymous": false,
      "inputs": [
        {
          "indexed": true,
          "internalType": "uint256",
          "name": "battleId",
          "type": "uint256"
        },
        {
          "indexed": true,
          "internalType": "address",
          "name": "player",
          "type": "address"
        },
        {
          "indexed": false,
          "internalType": "string",
          "name": "attack",
          "type": "string"
        }
      ],
      "name": "AttackSubmitted",
      "type": "event"
    },
    {
      "anonymous": false,
      "inputs": [
        {
          "indexed": false,
          "internalType": "uint256",
          "name": "_fromTokenId",
          "type": "uint256"
        },
        {
          "indexed": false,
          "internalType": "uint256",
          "name": "_toTokenId",
          "type": "uint256"
        }
      ],
      "name": "BatchMetadataUpdate",
      "type": "event"
    },
    {
      "anonymous": false,
      "inputs": [
        {
          "indexed": true,
          "internalType": "uint256",
          "name": "battleId",
          "type": "uint256"
        },
        {
          "indexed": false,
          "internalType": "address",
          "name": "winner",
          "type": "address"
        },
        {
          "indexed": false,
          "internalType": "uint256",
          "name": "winnerTokenId",
          "type": "uint256"
        },
        {
          "indexed": false,
          "internalType": "address",
          "name": "loser",
          "type": "address"
        },
        {
          "indexed": false,
          "internalType": "uint256",
          "name": "loserTokenId",
          "type": "uint256"
        }
      ],
      "name": "BattleResolved",
      "type": "event"
    },
    {
      "anonymous": false,
      "inputs": [
        {
          "indexed": true,
          "internalType": "uint256",
          "name": "battleId",
          "type": "uint256"
        },
        {
          "indexed": true,
          "internalType": "address",
          "name": "player1",
          "type": "address"
        },
        {
          "indexed": true,
          "internalType": "address",
          "name": "player2",
          "type": "address"
        },
        {
          "indexed": false,
          "internalType": "uint256",
          "name": "tokenId1",
          "type": "uint256"
        },
        {
          "indexed": false,
          "internalType": "uint256",
          "name": "tokenId2",
          "type": "uint256"
        }
      ],
      "name": "BattleStarted",
      "type": "event"
    },
    {
      "anonymous": false,
      "inputs": [
        {
          "indexed": false,
          "internalType": "address",
          "name": "owner",
          "type": "address"
        },
        {
          "indexed": false,
          "internalType": "uint256",
          "name": "amount",
          "type": "uint256"
        }
      ],
      "name": "FundsWithdrawn",
      "type": "event"
    },
    {
      "anonymous": false,
      "inputs": [
        {
          "indexed": false,
          "internalType": "uint64",
          "name": "version",
          "type": "uint64"
        }
      ],
      "name": "Initialized",
      "type": "event"
    },
    {
      "anonymous": false,
      "inputs": [
        {
          "indexed": false,
          "internalType": "uint256",
          "name": "_tokenId",
          "type": "uint256"
        }
      ],
      "name": "MetadataUpdate",
      "type": "event"
    },
    {
      "anonymous": false,
      "inputs": [
        {
          "indexed": true,
          "internalType": "address",
          "name": "from",
          "type": "address"
        },
        {
          "indexed": true,
          "internalType": "address",
          "name": "to",
          "type": "address"
        },
        {
          "indexed": true,
          "internalType": "uint256",
          "name": "tokenId",
          "type": "uint256"
        }
      ],
      "name": "Transfer",
      "type": "event"
    },
    {
      "inputs": [
        {
          "internalType": "address",
          "name": "to",
          "type": "address"
        },
        {
          "internalType": "uint256",
          "name": "tokenId",
          "type": "uint256"
        }
      ],
      "name": "approve",
      "outputs": [],
      "stateMutability": "nonpayable",
      "type": "function"
    },
    {
      "inputs": [
        {
          "internalType": "address",
          "name": "owner",
          "type": "address"
        }
      ],
      "name": "balanceOf",
      "outputs": [
        {
          "internalType": "uint256",
          "name": "",
          "type": "uint256"
        }
      ],
      "stateMutability": "view",
      "type": "function"
    },
    {
      "inputs": [
        {
          "internalType": "uint256",
          "name": "tokenId",
          "type": "uint256"
        },
        {
          "internalType": "string",
          "name": "attack",
          "type": "string"
        }
      ],
      "name": "chooseAttack",
      "outputs": [],
      "stateMutability": "nonpayable",
      "type": "function"
    },
    {
      "inputs": [],
      "name": "firstPlaceReward",
      "outputs": [
        {
          "internalType": "uint256",
          "name": "",
          "type": "uint256"
        }
      ],
      "stateMutability": "view",
      "type": "function"
    },
    {
      "inputs": [
        {
          "internalType": "uint256",
          "name": "tokenId",
          "type": "uint256"
        }
      ],
      "name": "getApproved",
      "outputs": [
        {
          "internalType": "address",
          "name": "",
          "type": "address"
        }
      ],
      "stateMutability": "view",
      "type": "function"
    },
    {
      "inputs": [
        {
          "internalType": "uint256",
          "name": "battleId",
          "type": "uint256"
        }
      ],
      "name": "getBattle",
      "outputs": [
        {
          "components": [
            {
              "internalType": "address",
              "name": "player1",
              "type": "address"
            },
            {
              "internalType": "address",
              "name": "player2",
              "type": "address"
            },
            {
              "internalType": "uint256",
              "name": "tokenId1",
              "type": "uint256"
            },
            {
              "internalType": "uint256",
              "name": "tokenId2",
              "type": "uint256"
            },
            {
              "internalType": "string",
              "name": "attack1",
              "type": "string"
            },
            {
              "internalType": "string",
              "name": "attack2",
              "type": "string"
            },
            {
              "internalType": "bool",
              "name": "player1Played",
              "type": "bool"
            },
            {
              "internalType": "bool",
              "name": "player2Played",
              "type": "bool"
            },
            {
              "internalType": "enum CryptoClashCat.BattleStatus",
              "name": "status",
              "type": "uint8"
            }
          ],
          "internalType": "struct CryptoClashCat.Battle",
          "name": "",
          "type": "tuple"
        }
      ],
      "stateMutability": "view",
      "type": "function"
    },
    {
      "inputs": [],
      "name": "getBattleCounter",
      "outputs": [
        {
          "internalType": "uint256",
          "name": "",
          "type": "uint256"
        }
      ],
      "stateMutability": "view",
      "type": "function"
    },
    {
      "inputs": [],
      "name": "getNextTokenId",
      "outputs": [
        {
          "internalType": "uint256",
          "name": "",
          "type": "uint256"
        }
      ],
      "stateMutability": "view",
      "type": "function"
    },
    {
      "inputs": [
        {
          "internalType": "uint256",
          "name": "tokenId",
          "type": "uint256"
        }
      ],
      "name": "getWins",
      "outputs": [
        {
          "internalType": "uint256",
          "name": "",
          "type": "uint256"
        }
      ],
      "stateMutability": "view",
      "type": "function"
    },
    {
      "inputs": [
        {
          "internalType": "uint256",
          "name": "maxNFTs",
          "type": "uint256"
        }
      ],
      "name": "initialize",
      "outputs": [],
      "stateMutability": "nonpayable",
      "type": "function"
    },
    {
      "inputs": [
        {
          "internalType": "address",
          "name": "owner",
          "type": "address"
        },
        {
          "internalType": "address",
          "name": "operator",
          "type": "address"
        }
      ],
      "name": "isApprovedForAll",
      "outputs": [
        {
          "internalType": "bool",
          "name": "",
          "type": "bool"
        }
      ],
      "stateMutability": "view",
      "type": "function"
    },
    {
      "inputs": [],
      "name": "name",
      "outputs": [
        {
          "internalType": "string",
          "name": "",
          "type": "string"
        }
      ],
      "stateMutability": "view",
      "type": "function"
    },
    {
      "inputs": [
        {
          "internalType": "uint256",
          "name": "tokenId",
          "type": "uint256"
        }
      ],
      "name": "ownerOf",
      "outputs": [
        {
          "internalType": "address",
          "name": "",
          "type": "address"
        }
      ],
      "stateMutability": "view",
      "type": "function"
    },
    {
      "inputs": [
        {
          "internalType": "address[]",
          "name": "topNFTs",
          "type": "address[]"
        },
        {
          "internalType": "address",
          "name": "cryptoClashContract",
          "type": "address"
        }
      ],
      "name": "rewardTopNFTs",
      "outputs": [],
      "stateMutability": "nonpayable",
      "type": "function"
    },
    {
      "inputs": [
        {
          "internalType": "address",
          "name": "to",
          "type": "address"
        },
        {
          "internalType": "string",
          "name": "uri",
          "type": "string"
        }
      ],
      "name": "safeMint",
      "outputs": [],
      "stateMutability": "payable",
      "type": "function"
    },
    {
      "inputs": [
        {
          "internalType": "address",
          "name": "from",
          "type": "address"
        },
        {
          "internalType": "address",
          "name": "to",
          "type": "address"
        },
        {
          "internalType": "uint256",
          "name": "tokenId",
          "type": "uint256"
        }
      ],
      "name": "safeTransferFrom",
      "outputs": [],
      "stateMutability": "nonpayable",
      "type": "function"
    },
    {
      "inputs": [
        {
          "internalType": "address",
          "name": "from",
          "type": "address"
        },
        {
          "internalType": "address",
          "name": "to",
          "type": "address"
        },
        {
          "internalType": "uint256",
          "name": "tokenId",
          "type": "uint256"
        },
        {
          "internalType": "bytes",
          "name": "data",
          "type": "bytes"
        }
      ],
      "name": "safeTransferFrom",
      "outputs": [],
      "stateMutability": "nonpayable",
      "type": "function"
    },
    {
      "inputs": [],
      "name": "secondPlaceReward",
      "outputs": [
        {
          "internalType": "uint256",
          "name": "",
          "type": "uint256"
        }
      ],
      "stateMutability": "view",
      "type": "function"
    },
    {
      "inputs": [
        {
          "internalType": "address",
          "name": "operator",
          "type": "address"
        },
        {
          "internalType": "bool",
          "name": "approved",
          "type": "bool"
        }
      ],
      "name": "setApprovalForAll",
      "outputs": [],
      "stateMutability": "nonpayable",
      "type": "function"
    },
    {
      "inputs": [
        {
          "internalType": "uint256",
          "name": "tokenId1",
          "type": "uint256"
        },
        {
          "internalType": "uint256",
          "name": "tokenId2",
          "type": "uint256"
        },
        {
          "internalType": "string",
          "name": "attack1",
          "type": "string"
        }
      ],
      "name": "startBattle",
      "outputs": [],
      "stateMutability": "nonpayable",
      "type": "function"
    },
    {
      "inputs": [
        {
          "internalType": "uint256",
          "name": "battleId",
          "type": "uint256"
        },
        {
          "internalType": "uint256",
          "name": "tokenId",
          "type": "uint256"
        },
        {
          "internalType": "string",
          "name": "attack",
          "type": "string"
        }
      ],
      "name": "submitAttack",
      "outputs": [],
      "stateMutability": "nonpayable",
      "type": "function"
    },
    {
      "inputs": [
        {
          "internalType": "bytes4",
          "name": "interfaceId",
          "type": "bytes4"
        }
      ],
      "name": "supportsInterface",
      "outputs": [
        {
          "internalType": "bool",
          "name": "",
          "type": "bool"
        }
      ],
      "stateMutability": "view",
      "type": "function"
    },
    {
      "inputs": [],
      "name": "symbol",
      "outputs": [
        {
          "internalType": "string",
          "name": "",
          "type": "string"
        }
      ],
      "stateMutability": "view",
      "type": "function"
    },
    {
      "inputs": [],
      "name": "thirdPlaceReward",
      "outputs": [
        {
          "internalType": "uint256",
          "name": "",
          "type": "uint256"
        }
      ],
      "stateMutability": "view",
      "type": "function"
    },
    {
      "inputs": [
        {
          "internalType": "uint256",
          "name": "index",
          "type": "uint256"
        }
      ],
      "name": "tokenByIndex",
      "outputs": [
        {
          "internalType": "uint256",
          "name": "",
          "type": "uint256"
        }
      ],
      "stateMutability": "view",
      "type": "function"
    },
    {
      "inputs": [
        {
          "internalType": "address",
          "name": "owner",
          "type": "address"
        },
        {
          "internalType": "uint256",
          "name": "index",
          "type": "uint256"
        }
      ],
      "name": "tokenOfOwnerByIndex",
      "outputs": [
        {
          "internalType": "uint256",
          "name": "",
          "type": "uint256"
        }
      ],
      "stateMutability": "view",
      "type": "function"
    },
    {
      "inputs": [
        {
          "internalType": "uint256",
          "name": "tokenId",
          "type": "uint256"
        }
      ],
      "name": "tokenURI",
      "outputs": [
        {
          "internalType": "string",
          "name": "",
          "type": "string"
        }
      ],
      "stateMutability": "view",
      "type": "function"
    },
    {
      "inputs": [],
      "name": "totalSupply",
      "outputs": [
        {
          "internalType": "uint256",
          "name": "",
          "type": "uint256"
        }
      ],
      "stateMutability": "view",
      "type": "function"
    },
    {
      "inputs": [
        {
          "internalType": "address",
          "name": "from",
          "type": "address"
        },
        {
          "internalType": "address",
          "name": "to",
          "type": "address"
        },
        {
          "internalType": "uint256",
          "name": "tokenId",
          "type": "uint256"
        }
      ],
      "name": "transferFrom",
      "outputs": [],
      "stateMutability": "nonpayable",
      "type": "function"
    },
    {
      "inputs": [],
      "name": "withdraw",
      "outputs": [],
      "stateMutability": "nonpayable",
      "type": "function"
    },
    {
      "stateMutability": "payable",
      "type": "receive"
    }
  ],
  "bytecode": "0x608060405234801561001057600080fd5b50615ae280620000216000396000f3fe6080604052600436106101d05760003560e01c80636352211e116100f7578063aade6e4211610095578063caa0f92a11610064578063caa0f92a146106b6578063d204c45e146106e1578063e985e9c5146106fd578063fe4b84df1461073a576101d7565b8063aade6e42146105ea578063b88d4fde14610627578063bb5c0c1614610650578063c87b56dd14610679576101d7565b80637a555e9e116100d15780637a555e9e146105405780637c8874301461056b57806395d89b4114610596578063a22cb465146105c1576101d7565b80636352211e146104895780636dd0ce7a146104c657806370a0823114610503576101d7565b80631ac656731161016f5780632f9131711161013e5780632f913171146103e35780633ccfd60b1461040c57806342842e0e146104235780634f6ccce71461044c576101d7565b80631ac65673146103295780631b8a7e541461035257806323b872dd1461037d5780632f745c59146103a6576101d7565b8063081812fc116101ab578063081812fc1461026d578063095ea7b3146102aa57806318160ddd146102d357806319088f1f146102fe576101d7565b80625524c7146101dc57806301ffc9a71461020557806306fdde0314610242576101d7565b366101d757005b600080fd5b3480156101e857600080fd5b5061020360048036038101906101fe91906142a1565b610763565b005b34801561021157600080fd5b5061022c60048036038101906102279190614355565b610934565b604051610239919061439d565b60405180910390f35b34801561024e57600080fd5b50610257610946565b6040516102649190614437565b60405180910390f35b34801561027957600080fd5b50610294600480360381019061028f9190614459565b6109e7565b6040516102a191906144c7565b60405180910390f35b3480156102b657600080fd5b506102d160048036038101906102cc919061450e565b610a03565b005b3480156102df57600080fd5b506102e8610a19565b6040516102f5919061455d565b60405180910390f35b34801561030a57600080fd5b50610313610a34565b604051610320919061455d565b60405180910390f35b34801561033557600080fd5b50610350600480360381019061034b9190614578565b610a3a565b005b34801561035e57600080fd5b50610367610f24565b604051610374919061455d565b60405180910390f35b34801561038957600080fd5b506103a4600480360381019061039f91906145e7565b610f2e565b005b3480156103b257600080fd5b506103cd60048036038101906103c8919061450e565b611030565b6040516103da919061455d565b60405180910390f35b3480156103ef57600080fd5b5061040a60048036038101906104059190614702565b6110e7565b005b34801561041857600080fd5b50610421611526565b005b34801561042f57600080fd5b5061044a600480360381019061044591906145e7565b6116e8565b005b34801561045857600080fd5b50610473600480360381019061046e9190614459565b611708565b604051610480919061455d565b60405180910390f35b34801561049557600080fd5b506104b060048036038101906104ab9190614459565b61178c565b6040516104bd91906144c7565b60405180910390f35b3480156104d257600080fd5b506104ed60048036038101906104e89190614459565b61179e565b6040516104fa9190614918565b60405180910390f35b34801561050f57600080fd5b5061052a6004803603810190610525919061493a565b611a21565b604051610537919061455d565b60405180910390f35b34801561054c57600080fd5b50610555611aea565b604051610562919061455d565b60405180910390f35b34801561057757600080fd5b50610580611af0565b60405161058d919061455d565b60405180910390f35b3480156105a257600080fd5b506105ab611af6565b6040516105b89190614437565b60405180910390f35b3480156105cd57600080fd5b506105e860048036038101906105e39190614993565b611b97565b005b3480156105f657600080fd5b50610611600480360381019061060c9190614459565b611bad565b60405161061e919061455d565b60405180910390f35b34801561063357600080fd5b5061064e60048036038101906106499190614a74565b611bcc565b005b34801561065c57600080fd5b5061067760048036038101906106729190614578565b611be9565b005b34801561068557600080fd5b506106a0600480360381019061069b9190614459565b611f0c565b6040516106ad9190614437565b60405180910390f35b3480156106c257600080fd5b506106cb611f1e565b6040516106d8919061455d565b60405180910390f35b6106fb60048036038101906106f69190614af7565b611f34565b005b34801561070957600080fd5b50610724600480360381019061071f9190614b53565b611ff0565b604051610731919061439d565b60405180910390f35b34801561074657600080fd5b50610761600480360381019061075c9190614459565b612092565b005b3373ffffffffffffffffffffffffffffffffffffffff166107838361178c565b73ffffffffffffffffffffffffffffffffffffffff16146107d9576040517f08c379a00000000000000000000000000000000000000000000000000000000081526004016107d090614c05565b60405180910390fd5b6040516020016107e890614c7c565b604051602081830303815290604052805190602001208160405160200161080f9190614cc2565b60405160208183030381529060405280519060200120148061087a575060405160200161083b90614d25565b60405160208183030381529060405280519060200120816040516020016108629190614cc2565b60405160208183030381529060405280519060200120145b806108ce575060405160200161088f90614d86565b60405160208183030381529060405280519060200120816040516020016108b69190614cc2565b60405160208183030381529060405280519060200120145b61090d576040517f08c379a000000000000000000000000000000000000000000000000000000000815260040161090490614e0d565b60405180910390fd5b80600080848152602001908152602001600020600001908161092f9190615039565b505050565b600061093f82612306565b9050919050565b60606000610952612380565b905080600001805461096390614e5c565b80601f016020809104026020016040519081016040528092919081815260200182805461098f90614e5c565b80156109dc5780601f106109b1576101008083540402835291602001916109dc565b820191906000526020600020905b8154815290600101906020018083116109bf57829003601f168201915b505050505091505090565b60006109f2826123a8565b506109fc82612430565b9050919050565b610a158282610a1061247b565b612483565b5050565b600080610a24612495565b9050806002018054905091505090565b60065481565b3373ffffffffffffffffffffffffffffffffffffffff16610a5a8461178c565b73ffffffffffffffffffffffffffffffffffffffff1614610ab0576040517f08c379a0000000000000000000000000000000000000000000000000000000008152600401610aa790614c05565b60405180910390fd5b6000610abb8361178c565b9050600073ffffffffffffffffffffffffffffffffffffffff168173ffffffffffffffffffffffffffffffffffffffff1603610b2c576040517f08c379a0000000000000000000000000000000000000000000000000000000008152600401610b2390615157565b60405180910390fd5b604051602001610b3b90614c7c565b6040516020818303038152906040528051906020012082604051602001610b629190614cc2565b604051602081830303815290604052805190602001201480610bcd5750604051602001610b8e90614d25565b6040516020818303038152906040528051906020012082604051602001610bb59190614cc2565b60405160208183030381529060405280519060200120145b80610c215750604051602001610be290614d86565b6040516020818303038152906040528051906020012082604051602001610c099190614cc2565b60405160208183030381529060405280519060200120145b610c60576040517f08c379a0000000000000000000000000000000000000000000000000000000008152600401610c5790614e0d565b60405180910390fd5b60026000815480929190610c73906151a6565b91905055506040518061012001604052803373ffffffffffffffffffffffffffffffffffffffff1681526020018273ffffffffffffffffffffffffffffffffffffffff16815260200185815260200184815260200183815260200160405180602001604052806000815250815260200160011515815260200160001515815260200160006001811115610d0957610d086147d5565b5b81525060016000600254815260200190815260200160002060008201518160000160006101000a81548173ffffffffffffffffffffffffffffffffffffffff021916908373ffffffffffffffffffffffffffffffffffffffff16021790555060208201518160010160006101000a81548173ffffffffffffffffffffffffffffffffffffffff021916908373ffffffffffffffffffffffffffffffffffffffff16021790555060408201518160020155606082015181600301556080820151816004019081610dd89190615039565b5060a0820151816005019081610dee9190615039565b5060c08201518160060160006101000a81548160ff02191690831515021790555060e08201518160060160016101000a81548160ff0219169083151502179055506101008201518160060160026101000a81548160ff02191690836001811115610e5b57610e5a6147d5565b5b02179055509050508073ffffffffffffffffffffffffffffffffffffffff163373ffffffffffffffffffffffffffffffffffffffff166002547fc441ce4b01dcdafd8c099080e5945a38e6fe9d3dfca01f0e77a26c19b4e0c9698787604051610ec59291906151ee565b60405180910390a43373ffffffffffffffffffffffffffffffffffffffff166002547ff685fa501be77ee479d232847278ea7b5190831731962deab7bf115efa6e02ba84604051610f169190614437565b60405180910390a350505050565b6000600254905090565b600073ffffffffffffffffffffffffffffffffffffffff168273ffffffffffffffffffffffffffffffffffffffff1603610fa05760006040517f64a0ae92000000000000000000000000000000000000000000000000000000008152600401610f9791906144c7565b60405180910390fd5b6000610fb48383610faf61247b565b6124bd565b90508373ffffffffffffffffffffffffffffffffffffffff168173ffffffffffffffffffffffffffffffffffffffff161461102a578382826040517f64283d7b00000000000000000000000000000000000000000000000000000000815260040161102193929190615217565b60405180910390fd5b50505050565b60008061103b612495565b905061104684611a21565b831061108b5783836040517fa57d13dc00000000000000000000000000000000000000000000000000000000815260040161108292919061524e565b60405180910390fd5b8060000160008573ffffffffffffffffffffffffffffffffffffffff1673ffffffffffffffffffffffffffffffffffffffff16815260200190815260200160002060008481526020019081526020016000205491505092915050565b600360009054906101000a900473ffffffffffffffffffffffffffffffffffffffff1673ffffffffffffffffffffffffffffffffffffffff163373ffffffffffffffffffffffffffffffffffffffff1614611177576040517f08c379a000000000000000000000000000000000000000000000000000000000815260040161116e906152e9565b60405180910390fd5b6003825111156111bc576040517f08c379a00000000000000000000000000000000000000000000000000000000081526004016111b390615355565b60405180910390fd5b60008190506000600367ffffffffffffffff8111156111de576111dd614176565b5b60405190808252806020026020018201604052801561120c5781602001602082028036833780820191505090505b5090506006548160008151811061122657611225615375565b5b6020026020010181815250506007548160018151811061124957611248615375565b5b6020026020010181815250506008548160028151811061126c5761126b615375565b5b60200260200101818152505060005b84518110156113bb57600073ffffffffffffffffffffffffffffffffffffffff168582815181106112af576112ae615375565b5b602002602001015173ffffffffffffffffffffffffffffffffffffffff160361130d576040517f08c379a0000000000000000000000000000000000000000000000000000000008152600401611304906153f0565b60405180910390fd5b8273ffffffffffffffffffffffffffffffffffffffff16637d4b719586838151811061133c5761133b615375565b5b602002602001015184848151811061135757611356615375565b5b60200260200101516040518363ffffffff1660e01b815260040161137c92919061524e565b600060405180830381600087803b15801561139657600080fd5b505af11580156113aa573d6000803e3d6000fd5b50505050808060010191505061127b565b5060005b845181101561151f57600073ffffffffffffffffffffffffffffffffffffffff168582815181106113f3576113f2615375565b5b602002602001015173ffffffffffffffffffffffffffffffffffffffff1603611451576040517f08c379a0000000000000000000000000000000000000000000000000000000008152600401611448906153f0565b60405180910390fd5b600085828151811061146657611465615375565b5b602002602001015190508073ffffffffffffffffffffffffffffffffffffffff166340c10f1987848151811061149f5761149e615375565b5b60200260200101518585815181106114ba576114b9615375565b5b60200260200101516040518363ffffffff1660e01b81526004016114df92919061524e565b600060405180830381600087803b1580156114f957600080fd5b505af115801561150d573d6000803e3d6000fd5b505050505080806001019150506113bf565b5050505050565b600360009054906101000a900473ffffffffffffffffffffffffffffffffffffffff1673ffffffffffffffffffffffffffffffffffffffff163373ffffffffffffffffffffffffffffffffffffffff16146115b6576040517f08c379a00000000000000000000000000000000000000000000000000000000081526004016115ad90615482565b60405180910390fd5b60004790506000600360009054906101000a900473ffffffffffffffffffffffffffffffffffffffff1673ffffffffffffffffffffffffffffffffffffffff1682604051611603906154d3565b60006040518083038185875af1925050503d8060008114611640576040519150601f19603f3d011682016040523d82523d6000602084013e611645565b606091505b5050905080611689576040517f08c379a000000000000000000000000000000000000000000000000000000000815260040161168090615534565b60405180910390fd5b7feaff4b37086828766ad3268786972c0cd24259d4c87a80f9d3963a3c3d999b0d600360009054906101000a900473ffffffffffffffffffffffffffffffffffffffff16836040516116dc92919061524e565b60405180910390a15050565b61170383838360405180602001604052806000815250611bcc565b505050565b600080611713612495565b905061171d610a19565b8310611763576000836040517fa57d13dc00000000000000000000000000000000000000000000000000000000815260040161175a92919061524e565b60405180910390fd5b80600201838154811061177957611778615375565b5b9060005260206000200154915050919050565b6000611797826123a8565b9050919050565b6117a6614083565b60016000838152602001908152602001600020604051806101200160405290816000820160009054906101000a900473ffffffffffffffffffffffffffffffffffffffff1673ffffffffffffffffffffffffffffffffffffffff1673ffffffffffffffffffffffffffffffffffffffff1681526020016001820160009054906101000a900473ffffffffffffffffffffffffffffffffffffffff1673ffffffffffffffffffffffffffffffffffffffff1673ffffffffffffffffffffffffffffffffffffffff168152602001600282015481526020016003820154815260200160048201805461189590614e5c565b80601f01602080910402602001604051908101604052809291908181526020018280546118c190614e5c565b801561190e5780601f106118e35761010080835404028352916020019161190e565b820191906000526020600020905b8154815290600101906020018083116118f157829003601f168201915b5050505050815260200160058201805461192790614e5c565b80601f016020809104026020016040519081016040528092919081815260200182805461195390614e5c565b80156119a05780601f10611975576101008083540402835291602001916119a0565b820191906000526020600020905b81548152906001019060200180831161198357829003601f168201915b505050505081526020016006820160009054906101000a900460ff161515151581526020016006820160019054906101000a900460ff161515151581526020016006820160029054906101000a900460ff166001811115611a0457611a036147d5565b5b6001811115611a1657611a156147d5565b5b815250509050919050565b600080611a2c612380565b9050600073ffffffffffffffffffffffffffffffffffffffff168373ffffffffffffffffffffffffffffffffffffffff1603611aa05760006040517f89c62b64000000000000000000000000000000000000000000000000000000008152600401611a9791906144c7565b60405180910390fd5b8060030160008473ffffffffffffffffffffffffffffffffffffffff1673ffffffffffffffffffffffffffffffffffffffff16815260200190815260200160002054915050919050565b60085481565b60075481565b60606000611b02612380565b9050806001018054611b1390614e5c565b80601f0160208091040260200160405190810160405280929190818152602001828054611b3f90614e5c565b8015611b8c5780601f10611b6157610100808354040283529160200191611b8c565b820191906000526020600020905b815481529060010190602001808311611b6f57829003601f168201915b505050505091505090565b611ba9611ba261247b565b83836124d3565b5050565b6000806000838152602001908152602001600020600101549050919050565b611bd7848484610f2e565b611be384848484612651565b50505050565b600060016000858152602001908152602001600020905060006001811115611c1457611c136147d5565b5b8160060160029054906101000a900460ff166001811115611c3857611c376147d5565b5b14611c78576040517f08c379a0000000000000000000000000000000000000000000000000000000008152600401611c6f906155a0565b60405180910390fd5b3373ffffffffffffffffffffffffffffffffffffffff168160010160009054906101000a900473ffffffffffffffffffffffffffffffffffffffff1673ffffffffffffffffffffffffffffffffffffffff16148015611cda5750828160030154145b611d19576040517f08c379a0000000000000000000000000000000000000000000000000000000008152600401611d1090615632565b60405180910390fd5b604051602001611d2890614c7c565b6040516020818303038152906040528051906020012082604051602001611d4f9190614cc2565b604051602081830303815290604052805190602001201480611dba5750604051602001611d7b90614d25565b6040516020818303038152906040528051906020012082604051602001611da29190614cc2565b60405160208183030381529060405280519060200120145b80611e0e5750604051602001611dcf90614d86565b6040516020818303038152906040528051906020012082604051602001611df69190614cc2565b60405160208183030381529060405280519060200120145b611e4d576040517f08c379a0000000000000000000000000000000000000000000000000000000008152600401611e449061569e565b60405180910390fd5b81816005019081611e5e9190615039565b5060018160060160016101000a81548160ff0219169083151502179055503373ffffffffffffffffffffffffffffffffffffffff16847ff685fa501be77ee479d232847278ea7b5190831731962deab7bf115efa6e02ba84604051611ec39190614437565b60405180910390a38060060160009054906101000a900460ff168015611ef757508060060160019054906101000a900460ff165b15611f0657611f0584612808565b5b50505050565b6060611f1782612de0565b9050919050565b60006001600454611f2f91906156be565b905090565b60055460045410611f7a576040517f08c379a0000000000000000000000000000000000000000000000000000000008152600401611f719061573e565b60405180910390fd5b66b1a2bc2ec500003414611fc3576040517f08c379a0000000000000000000000000000000000000000000000000000000008152600401611fba906157aa565b60405180910390fd5b6000611fcd612f04565b9050611fd98382612f1a565b611fe38183612f38565b611feb612fa3565b505050565b600080611ffb612380565b90508060050160008573ffffffffffffffffffffffffffffffffffffffff1673ffffffffffffffffffffffffffffffffffffffff16815260200190815260200160002060008473ffffffffffffffffffffffffffffffffffffffff1673ffffffffffffffffffffffffffffffffffffffff16815260200190815260200160002060009054906101000a900460ff1691505092915050565b600061209c612fbd565b905060008160000160089054906101000a900460ff1615905060008260000160009054906101000a900467ffffffffffffffff1690506000808267ffffffffffffffff161480156120ea5750825b9050600060018367ffffffffffffffff1614801561211f575060003073ffffffffffffffffffffffffffffffffffffffff163b145b90508115801561212d575080155b15612164576040517ff92ee8a900000000000000000000000000000000000000000000000000000000815260040160405180910390fd5b60018560000160006101000a81548167ffffffffffffffff021916908367ffffffffffffffff16021790555083156121b45760018560000160086101000a81548160ff0219169083151502179055505b6122286040518060400160405280600e81526020017f43727970746f436c6173684361740000000000000000000000000000000000008152506040518060400160405280600381526020017f4343430000000000000000000000000000000000000000000000000000000000815250612fe5565b612230612ffb565b612238613005565b33600360006101000a81548173ffffffffffffffffffffffffffffffffffffffff021916908373ffffffffffffffffffffffffffffffffffffffff1602179055508560058190555060006004819055506103e86006819055506101f460078190555060fa60088190555083156122fe5760008560000160086101000a81548160ff0219169083151502179055507fc7f505b2f371ae2175ee4913f4499e1f2633a7b5936321eed1cdaeb6115181d260016040516122f59190615819565b60405180910390a15b505050505050565b60007f780e9d63000000000000000000000000000000000000000000000000000000007bffffffffffffffffffffffffffffffffffffffffffffffffffffffff1916827bffffffffffffffffffffffffffffffffffffffffffffffffffffffff1916148061237957506123788261300f565b5b9050919050565b60007f80bb2b638cc20bc4d0a60d66940f3ab4a00c1d7b313497ca82fb0b4ab0079300905090565b6000806123b483613070565b9050600073ffffffffffffffffffffffffffffffffffffffff168173ffffffffffffffffffffffffffffffffffffffff160361242757826040517f7e27328900000000000000000000000000000000000000000000000000000000815260040161241e919061455d565b60405180910390fd5b80915050919050565b60008061243b612380565b905080600401600084815260200190815260200160002060009054906101000a900473ffffffffffffffffffffffffffffffffffffffff16915050919050565b600033905090565b61249083838360016130bb565b505050565b60007f645e039705490088daad89bae25049a34f4a9072d398537b1ab2425f24cbed00905090565b60006124ca84848461328f565b90509392505050565b60006124dd612380565b9050600073ffffffffffffffffffffffffffffffffffffffff168373ffffffffffffffffffffffffffffffffffffffff160361255057826040517f5b08ba1800000000000000000000000000000000000000000000000000000000815260040161254791906144c7565b60405180910390fd5b818160050160008673ffffffffffffffffffffffffffffffffffffffff1673ffffffffffffffffffffffffffffffffffffffff16815260200190815260200160002060008573ffffffffffffffffffffffffffffffffffffffff1673ffffffffffffffffffffffffffffffffffffffff16815260200190815260200160002060006101000a81548160ff0219169083151502179055508273ffffffffffffffffffffffffffffffffffffffff168473ffffffffffffffffffffffffffffffffffffffff167f17307eab39ab6107e8899845ad3d59bd9653f200f220920489ca2b5937696c3184604051612643919061439d565b60405180910390a350505050565b60008373ffffffffffffffffffffffffffffffffffffffff163b1115612802578273ffffffffffffffffffffffffffffffffffffffff1663150b7a0261269561247b565b8685856040518563ffffffff1660e01b81526004016126b79493929190615889565b6020604051808303816000875af19250505080156126f357506040513d601f19601f820116820180604052508101906126f091906158ea565b60015b612777573d8060008114612723576040519150601f19603f3d011682016040523d82523d6000602084013e612728565b606091505b50600081510361276f57836040517f64a0ae9200000000000000000000000000000000000000000000000000000000815260040161276691906144c7565b60405180910390fd5b805181602001fd5b63150b7a0260e01b7bffffffffffffffffffffffffffffffffffffffffffffffffffffffff1916817bffffffffffffffffffffffffffffffffffffffffffffffffffffffff19161461280057836040517f64a0ae920000000000000000000000000000000000000000000000000000000081526004016127f791906144c7565b60405180910390fd5b505b50505050565b600060016000838152602001908152602001600020905060008060008060405160200161283490614c7c565b604051602081830303815290604052805190602001208560040160405160200161285e919061599a565b604051602081830303815290604052805190602001201480156128cd575060405160200161288b90614d25565b60405160208183030381529060405280519060200120856005016040516020016128b5919061599a565b60405160208183030381529060405280519060200120145b8061297c57506040516020016128e290614d25565b604051602081830303815290604052805190602001208560040160405160200161290c919061599a565b6040516020818303038152906040528051906020012014801561297b575060405160200161293990614d86565b6040516020818303038152906040528051906020012085600501604051602001612963919061599a565b60405160208183030381529060405280519060200120145b5b80612a2b575060405160200161299190614d86565b60405160208183030381529060405280519060200120856004016040516020016129bb919061599a565b60405160208183030381529060405280519060200120148015612a2a57506040516020016129e890614c7c565b6040516020818303038152906040528051906020012085600501604051602001612a12919061599a565b60405160208183030381529060405280519060200120145b5b15612ac0578460000160009054906101000a900473ffffffffffffffffffffffffffffffffffffffff169350846002015492508460010160009054906101000a900473ffffffffffffffffffffffffffffffffffffffff16915084600301549050600080866002015481526020019081526020016000206001016000815480929190612ab6906151a6565b9190505550612d6d565b604051602001612acf90614c7c565b6040516020818303038152906040528051906020012085600501604051602001612af9919061599a565b60405160208183030381529060405280519060200120148015612b685750604051602001612b2690614d25565b6040516020818303038152906040528051906020012085600401604051602001612b50919061599a565b60405160208183030381529060405280519060200120145b80612c175750604051602001612b7d90614d25565b6040516020818303038152906040528051906020012085600501604051602001612ba7919061599a565b60405160208183030381529060405280519060200120148015612c165750604051602001612bd490614d86565b6040516020818303038152906040528051906020012085600401604051602001612bfe919061599a565b60405160208183030381529060405280519060200120145b5b80612cc65750604051602001612c2c90614d86565b6040516020818303038152906040528051906020012085600501604051602001612c56919061599a565b60405160208183030381529060405280519060200120148015612cc55750604051602001612c8390614c7c565b6040516020818303038152906040528051906020012085600401604051602001612cad919061599a565b60405160208183030381529060405280519060200120145b5b15612d5b578460010160009054906101000a900473ffffffffffffffffffffffffffffffffffffffff169350846003015492508460000160009054906101000a900473ffffffffffffffffffffffffffffffffffffffff16915084600201549050600080866003015481526020019081526020016000206001016000815480929190612d51906151a6565b9190505550612d6c565b600093506000925060009150600090505b5b60018560060160026101000a81548160ff02191690836001811115612d9557612d946147d5565b5b0217905550857f9aae9bd90363603ad3d21e5a3aa1ee854b568ebec7b0f4ad591c4ef4b8b1d01585858585604051612dd094939291906159b1565b60405180910390a2505050505050565b60606000612dec6133ac565b9050612df7836123a8565b5060008160000160008581526020019081526020016000208054612e1a90614e5c565b80601f0160208091040260200160405190810160405280929190818152602001828054612e4690614e5c565b8015612e935780601f10612e6857610100808354040283529160200191612e93565b820191906000526020600020905b815481529060010190602001808311612e7657829003601f168201915b505050505090506000612ea46133d4565b90506000815103612eba57819350505050612eff565b600082511115612ef0578082604051602001612ed79291906159f6565b6040516020818303038152906040529350505050612eff565b612ef9856133eb565b93505050505b919050565b60006001600454612f1591906156be565b905090565b612f34828260405180602001604052806000815250613454565b5050565b6000612f426133ac565b9050818160000160008581526020019081526020016000209081612f669190615039565b507ff8e1a15aba9398e019f0b49df1a4fde98ee17ae345cb5f6b5e2c27f5033e8ce783604051612f96919061455d565b60405180910390a1505050565b60046000815480929190612fb6906151a6565b9190505550565b60007ff0c57e16840df040f15088dc2f81fe391c3923bec73e23a9662efc9c229c6a00905090565b612fed613470565b612ff782826134b0565b5050565b613003613470565b565b61300d613470565b565b6000634906490660e01b7bffffffffffffffffffffffffffffffffffffffffffffffffffffffff1916827bffffffffffffffffffffffffffffffffffffffffffffffffffffffff191614806130695750613068826134ed565b5b9050919050565b60008061307b612380565b905080600201600084815260200190815260200160002060009054906101000a900473ffffffffffffffffffffffffffffffffffffffff16915050919050565b60006130c5612380565b905081806131005750600073ffffffffffffffffffffffffffffffffffffffff168373ffffffffffffffffffffffffffffffffffffffff1614155b15613234576000613110856123a8565b9050600073ffffffffffffffffffffffffffffffffffffffff168473ffffffffffffffffffffffffffffffffffffffff161415801561317b57508373ffffffffffffffffffffffffffffffffffffffff168173ffffffffffffffffffffffffffffffffffffffff1614155b801561318e575061318c8185611ff0565b155b156131d057836040517fa9fbf51f0000000000000000000000000000000000000000000000000000000081526004016131c791906144c7565b60405180910390fd5b821561323257848673ffffffffffffffffffffffffffffffffffffffff168273ffffffffffffffffffffffffffffffffffffffff167f8c5be1e5ebec7d5bd14f71427d1e84f3dd0314c0f7b2291e5b200ac8c7c3b92560405160405180910390a45b505b8481600401600086815260200190815260200160002060006101000a81548173ffffffffffffffffffffffffffffffffffffffff021916908373ffffffffffffffffffffffffffffffffffffffff1602179055505050505050565b60008061329d8585856135cf565b9050600073ffffffffffffffffffffffffffffffffffffffff168173ffffffffffffffffffffffffffffffffffffffff16036132e1576132dc846137fc565b613320565b8473ffffffffffffffffffffffffffffffffffffffff168173ffffffffffffffffffffffffffffffffffffffff161461331f5761331e8185613858565b5b5b600073ffffffffffffffffffffffffffffffffffffffff168573ffffffffffffffffffffffffffffffffffffffff16036133625761335d846139d2565b6133a1565b8473ffffffffffffffffffffffffffffffffffffffff168173ffffffffffffffffffffffffffffffffffffffff16146133a05761339f8585613abe565b5b5b809150509392505050565b60007f0542a41881ee128a365a727b282c86fa859579490b9bb45aab8503648c8e7900905090565b606060405180602001604052806000815250905090565b60606133f6826123a8565b5060006134016133d4565b90506000815111613421576040518060200160405280600081525061344c565b8061342b84613b5a565b60405160200161343c9291906159f6565b6040516020818303038152906040525b915050919050565b61345e8383613c28565b61346b6000848484612651565b505050565b613478613d21565b6134ae576040517fd7e6bcf800000000000000000000000000000000000000000000000000000000815260040160405180910390fd5b565b6134b8613470565b60006134c2612380565b9050828160000190816134d59190615039565b50818160010190816134e79190615039565b50505050565b60007f80ac58cd000000000000000000000000000000000000000000000000000000007bffffffffffffffffffffffffffffffffffffffffffffffffffffffff1916827bffffffffffffffffffffffffffffffffffffffffffffffffffffffff191614806135b857507f5b5e139f000000000000000000000000000000000000000000000000000000007bffffffffffffffffffffffffffffffffffffffffffffffffffffffff1916827bffffffffffffffffffffffffffffffffffffffffffffffffffffffff1916145b806135c857506135c782613d41565b5b9050919050565b6000806135da612380565b905060006135e785613070565b9050600073ffffffffffffffffffffffffffffffffffffffff168473ffffffffffffffffffffffffffffffffffffffff161461362957613628818587613dab565b5b600073ffffffffffffffffffffffffffffffffffffffff168173ffffffffffffffffffffffffffffffffffffffff16146136bc5761366b6000866000806130bb565b60018260030160008373ffffffffffffffffffffffffffffffffffffffff1673ffffffffffffffffffffffffffffffffffffffff168152602001908152602001600020600082825403925050819055505b600073ffffffffffffffffffffffffffffffffffffffff168673ffffffffffffffffffffffffffffffffffffffff16146137415760018260030160008873ffffffffffffffffffffffffffffffffffffffff1673ffffffffffffffffffffffffffffffffffffffff168152602001908152602001600020600082825401925050819055505b8582600201600087815260200190815260200160002060006101000a81548173ffffffffffffffffffffffffffffffffffffffff021916908373ffffffffffffffffffffffffffffffffffffffff160217905550848673ffffffffffffffffffffffffffffffffffffffff168273ffffffffffffffffffffffffffffffffffffffff167fddf252ad1be2c89b69c2b068fc378daa952ba7f163c4a11628f55a4df523b3ef60405160405180910390a480925050509392505050565b6000613806612495565b9050806002018054905081600301600084815260200190815260200160002081905550806002018290806001815401808255809150506001900390600052602060002001600090919091909150555050565b6000613862612495565b9050600061386f84611a21565b9050600082600101600085815260200190815260200160002054905081811461395c5760008360000160008773ffffffffffffffffffffffffffffffffffffffff1673ffffffffffffffffffffffffffffffffffffffff1681526020019081526020016000206000848152602001908152602001600020549050808460000160008873ffffffffffffffffffffffffffffffffffffffff1673ffffffffffffffffffffffffffffffffffffffff1681526020019081526020016000206000848152602001908152602001600020819055508184600101600083815260200190815260200160002081905550505b826001016000858152602001908152602001600020600090558260000160008673ffffffffffffffffffffffffffffffffffffffff1673ffffffffffffffffffffffffffffffffffffffff1681526020019081526020016000206000838152602001908152602001600020600090555050505050565b60006139dc612495565b90506000600182600201805490506139f49190615a1a565b905060008260030160008581526020019081526020016000205490506000836002018381548110613a2857613a27615375565b5b9060005260206000200154905080846002018381548110613a4c57613a4b615375565b5b906000526020600020018190555081846003016000838152602001908152602001600020819055508360030160008681526020019081526020016000206000905583600201805480613aa157613aa0615a4e565b5b600190038181906000526020600020016000905590555050505050565b6000613ac8612495565b905060006001613ad785611a21565b613ae19190615a1a565b9050828260000160008673ffffffffffffffffffffffffffffffffffffffff1673ffffffffffffffffffffffffffffffffffffffff168152602001908152602001600020600083815260200190815260200160002081905550808260010160008581526020019081526020016000208190555050505050565b606060006001613b6984613e6f565b01905060008167ffffffffffffffff811115613b8857613b87614176565b5b6040519080825280601f01601f191660200182016040528015613bba5781602001600182028036833780820191505090505b509050600082602001820190505b600115613c1d578080600190039150507f3031323334353637383961626364656600000000000000000000000000000000600a86061a8153600a8581613c1157613c10615a7d565b5b04945060008503613bc8575b819350505050919050565b600073ffffffffffffffffffffffffffffffffffffffff168273ffffffffffffffffffffffffffffffffffffffff1603613c9a5760006040517f64a0ae92000000000000000000000000000000000000000000000000000000008152600401613c9191906144c7565b60405180910390fd5b6000613ca8838360006124bd565b9050600073ffffffffffffffffffffffffffffffffffffffff168173ffffffffffffffffffffffffffffffffffffffff1614613d1c5760006040517f73c6ac6e000000000000000000000000000000000000000000000000000000008152600401613d1391906144c7565b60405180910390fd5b505050565b6000613d2b612fbd565b60000160089054906101000a900460ff16905090565b60007f01ffc9a7000000000000000000000000000000000000000000000000000000007bffffffffffffffffffffffffffffffffffffffffffffffffffffffff1916827bffffffffffffffffffffffffffffffffffffffffffffffffffffffff1916149050919050565b613db6838383613fc2565b613e6a57600073ffffffffffffffffffffffffffffffffffffffff168373ffffffffffffffffffffffffffffffffffffffff1603613e2b57806040517f7e273289000000000000000000000000000000000000000000000000000000008152600401613e22919061455d565b60405180910390fd5b81816040517f177e802f000000000000000000000000000000000000000000000000000000008152600401613e6192919061524e565b60405180910390fd5b505050565b600080600090507a184f03e93ff9f4daa797ed6e38ed64bf6a1f0100000000000000008310613ecd577a184f03e93ff9f4daa797ed6e38ed64bf6a1f0100000000000000008381613ec357613ec2615a7d565b5b0492506040810190505b6d04ee2d6d415b85acef81000000008310613f0a576d04ee2d6d415b85acef81000000008381613f0057613eff615a7d565b5b0492506020810190505b662386f26fc100008310613f3957662386f26fc100008381613f2f57613f2e615a7d565b5b0492506010810190505b6305f5e1008310613f62576305f5e1008381613f5857613f57615a7d565b5b0492506008810190505b6127108310613f87576127108381613f7d57613f7c615a7d565b5b0492506004810190505b60648310613faa5760648381613fa057613f9f615a7d565b5b0492506002810190505b600a8310613fb9576001810190505b80915050919050565b60008073ffffffffffffffffffffffffffffffffffffffff168373ffffffffffffffffffffffffffffffffffffffff161415801561407a57508273ffffffffffffffffffffffffffffffffffffffff168473ffffffffffffffffffffffffffffffffffffffff16148061403b575061403a8484611ff0565b5b8061407957508273ffffffffffffffffffffffffffffffffffffffff1661406183612430565b73ffffffffffffffffffffffffffffffffffffffff16145b5b90509392505050565b604051806101200160405280600073ffffffffffffffffffffffffffffffffffffffff168152602001600073ffffffffffffffffffffffffffffffffffffffff168152602001600081526020016000815260200160608152602001606081526020016000151581526020016000151581526020016000600181111561410b5761410a6147d5565b5b81525090565b6000604051905090565b600080fd5b600080fd5b6000819050919050565b61413881614125565b811461414357600080fd5b50565b6000813590506141558161412f565b92915050565b600080fd5b600080fd5b6000601f19601f8301169050919050565b7f4e487b7100000000000000000000000000000000000000000000000000000000600052604160045260246000fd5b6141ae82614165565b810181811067ffffffffffffffff821117156141cd576141cc614176565b5b80604052505050565b60006141e0614111565b90506141ec82826141a5565b919050565b600067ffffffffffffffff82111561420c5761420b614176565b5b61421582614165565b9050602081019050919050565b82818337600083830152505050565b600061424461423f846141f1565b6141d6565b9050828152602081018484840111156142605761425f614160565b5b61426b848285614222565b509392505050565b600082601f8301126142885761428761415b565b5b8135614298848260208601614231565b91505092915050565b600080604083850312156142b8576142b761411b565b5b60006142c685828601614146565b925050602083013567ffffffffffffffff8111156142e7576142e6614120565b5b6142f385828601614273565b9150509250929050565b60007fffffffff0000000000000000000000000000000000000000000000000000000082169050919050565b614332816142fd565b811461433d57600080fd5b50565b60008135905061434f81614329565b92915050565b60006020828403121561436b5761436a61411b565b5b600061437984828501614340565b91505092915050565b60008115159050919050565b61439781614382565b82525050565b60006020820190506143b2600083018461438e565b92915050565b600081519050919050565b600082825260208201905092915050565b60005b838110156143f25780820151818401526020810190506143d7565b60008484015250505050565b6000614409826143b8565b61441381856143c3565b93506144238185602086016143d4565b61442c81614165565b840191505092915050565b6000602082019050818103600083015261445181846143fe565b905092915050565b60006020828403121561446f5761446e61411b565b5b600061447d84828501614146565b91505092915050565b600073ffffffffffffffffffffffffffffffffffffffff82169050919050565b60006144b182614486565b9050919050565b6144c1816144a6565b82525050565b60006020820190506144dc60008301846144b8565b92915050565b6144eb816144a6565b81146144f657600080fd5b50565b600081359050614508816144e2565b92915050565b600080604083850312156145255761452461411b565b5b6000614533858286016144f9565b925050602061454485828601614146565b9150509250929050565b61455781614125565b82525050565b6000602082019050614572600083018461454e565b92915050565b6000806000606084860312156145915761459061411b565b5b600061459f86828701614146565b93505060206145b086828701614146565b925050604084013567ffffffffffffffff8111156145d1576145d0614120565b5b6145dd86828701614273565b9150509250925092565b600080600060608486031215614600576145ff61411b565b5b600061460e868287016144f9565b935050602061461f868287016144f9565b925050604061463086828701614146565b9150509250925092565b600067ffffffffffffffff82111561465557614654614176565b5b602082029050602081019050919050565b600080fd5b600061467e6146798461463a565b6141d6565b905080838252602082019050602084028301858111156146a1576146a0614666565b5b835b818110156146ca57806146b688826144f9565b8452602084019350506020810190506146a3565b5050509392505050565b600082601f8301126146e9576146e861415b565b5b81356146f984826020860161466b565b91505092915050565b600080604083850312156147195761471861411b565b5b600083013567ffffffffffffffff81111561473757614736614120565b5b614743858286016146d4565b9250506020614754858286016144f9565b9150509250929050565b614767816144a6565b82525050565b61477681614125565b82525050565b600082825260208201905092915050565b6000614798826143b8565b6147a2818561477c565b93506147b28185602086016143d4565b6147bb81614165565b840191505092915050565b6147cf81614382565b82525050565b7f4e487b7100000000000000000000000000000000000000000000000000000000600052602160045260246000fd5b60028110614815576148146147d5565b5b50565b600081905061482682614804565b919050565b600061483682614818565b9050919050565b6148468161482b565b82525050565b600061012083016000830151614865600086018261475e565b506020830151614878602086018261475e565b50604083015161488b604086018261476d565b50606083015161489e606086018261476d565b50608083015184820360808601526148b6828261478d565b91505060a083015184820360a08601526148d0828261478d565b91505060c08301516148e560c08601826147c6565b5060e08301516148f860e08601826147c6565b5061010083015161490d61010086018261483d565b508091505092915050565b60006020820190508181036000830152614932818461484c565b905092915050565b6000602082840312156149505761494f61411b565b5b600061495e848285016144f9565b91505092915050565b61497081614382565b811461497b57600080fd5b50565b60008135905061498d81614967565b92915050565b600080604083850312156149aa576149a961411b565b5b60006149b8858286016144f9565b92505060206149c98582860161497e565b9150509250929050565b600067ffffffffffffffff8211156149ee576149ed614176565b5b6149f782614165565b9050602081019050919050565b6000614a17614a12846149d3565b6141d6565b905082815260208101848484011115614a3357614a32614160565b5b614a3e848285614222565b509392505050565b600082601f830112614a5b57614a5a61415b565b5b8135614a6b848260208601614a04565b91505092915050565b60008060008060808587031215614a8e57614a8d61411b565b5b6000614a9c878288016144f9565b9450506020614aad878288016144f9565b9350506040614abe87828801614146565b925050606085013567ffffffffffffffff811115614adf57614ade614120565b5b614aeb87828801614a46565b91505092959194509250565b60008060408385031215614b0e57614b0d61411b565b5b6000614b1c858286016144f9565b925050602083013567ffffffffffffffff811115614b3d57614b3c614120565b5b614b4985828601614273565b9150509250929050565b60008060408385031215614b6a57614b6961411b565b5b6000614b78858286016144f9565b9250506020614b89858286016144f9565b9150509250929050565b7f596f7520617265206e6f7420746865206f776e6572206f662074686973204e4660008201527f5400000000000000000000000000000000000000000000000000000000000000602082015250565b6000614bef6021836143c3565b9150614bfa82614b93565b604082019050919050565b60006020820190508181036000830152614c1e81614be2565b9050919050565b600081905092915050565b7f7061706572000000000000000000000000000000000000000000000000000000600082015250565b6000614c66600583614c25565b9150614c7182614c30565b600582019050919050565b6000614c8782614c59565b9150819050919050565b6000614c9c826143b8565b614ca68185614c25565b9350614cb68185602086016143d4565b80840191505092915050565b6000614cce8284614c91565b915081905092915050565b7f726f636b00000000000000000000000000000000000000000000000000000000600082015250565b6000614d0f600483614c25565b9150614d1a82614cd9565b600482019050919050565b6000614d3082614d02565b9150819050919050565b7f73636973736f7273000000000000000000000000000000000000000000000000600082015250565b6000614d70600883614c25565b9150614d7b82614d3a565b600882019050919050565b6000614d9182614d63565b9150819050919050565b7f496e76616c69642061747461636b2c206d75737420626520277061706572272c60008201527f2027726f636b272c206f72202773636973736f72732700000000000000000000602082015250565b6000614df76036836143c3565b9150614e0282614d9b565b604082019050919050565b60006020820190508181036000830152614e2681614dea565b9050919050565b7f4e487b7100000000000000000000000000000000000000000000000000000000600052602260045260246000fd5b60006002820490506001821680614e7457607f821691505b602082108103614e8757614e86614e2d565b5b50919050565b60008190508160005260206000209050919050565b60006020601f8301049050919050565b600082821b905092915050565b600060088302614eef7fffffffffffffffffffffffffffffffffffffffffffffffffffffffffffffffff82614eb2565b614ef98683614eb2565b95508019841693508086168417925050509392505050565b6000819050919050565b6000614f36614f31614f2c84614125565b614f11565b614125565b9050919050565b6000819050919050565b614f5083614f1b565b614f64614f5c82614f3d565b848454614ebf565b825550505050565b600090565b614f79614f6c565b614f84818484614f47565b505050565b5b81811015614fa857614f9d600082614f71565b600181019050614f8a565b5050565b601f821115614fed57614fbe81614e8d565b614fc784614ea2565b81016020851015614fd6578190505b614fea614fe285614ea2565b830182614f89565b50505b505050565b600082821c905092915050565b600061501060001984600802614ff2565b1980831691505092915050565b60006150298383614fff565b9150826002028217905092915050565b615042826143b8565b67ffffffffffffffff81111561505b5761505a614176565b5b6150658254614e5c565b615070828285614fac565b600060209050601f8311600181146150a35760008415615091578287015190505b61509b858261501d565b865550615103565b601f1984166150b186614e8d565b60005b828110156150d9578489015182556001820191506020850194506020810190506150b4565b868310156150f657848901516150f2601f891682614fff565b8355505b6001600288020188555050505b505050505050565b7f4f70706f6e656e74204e465420646f6573206e6f742065786973740000000000600082015250565b6000615141601b836143c3565b915061514c8261510b565b602082019050919050565b6000602082019050818103600083015261517081615134565b9050919050565b7f4e487b7100000000000000000000000000000000000000000000000000000000600052601160045260246000fd5b60006151b182614125565b91507fffffffffffffffffffffffffffffffffffffffffffffffffffffffffffffffff82036151e3576151e2615177565b5b600182019050919050565b6000604082019050615203600083018561454e565b615210602083018461454e565b9392505050565b600060608201905061522c60008301866144b8565b615239602083018561454e565b61524660408301846144b8565b949350505050565b600060408201905061526360008301856144b8565b615270602083018461454e565b9392505050565b7f4f6e6c7920746865206f776e65722063616e20616c6c6f63617465207265776160008201527f7264730000000000000000000000000000000000000000000000000000000000602082015250565b60006152d36023836143c3565b91506152de82615277565b604082019050919050565b60006020820190508181036000830152615302816152c6565b9050919050565b7f43616e6e6f7420726577617264206d6f7265207468616e2033204e4654730000600082015250565b600061533f601e836143c3565b915061534a82615309565b602082019050919050565b6000602082019050818103600083015261536e81615332565b9050919050565b7f4e487b7100000000000000000000000000000000000000000000000000000000600052603260045260246000fd5b7f496e76616c696420616464726573730000000000000000000000000000000000600082015250565b60006153da600f836143c3565b91506153e5826153a4565b602082019050919050565b60006020820190508181036000830152615409816153cd565b9050919050565b7f4f6e6c7920746865206f776e65722063616e2077697468647261772066756e6460008201527f7300000000000000000000000000000000000000000000000000000000000000602082015250565b600061546c6021836143c3565b915061547782615410565b604082019050919050565b6000602082019050818103600083015261549b8161545f565b9050919050565b600081905092915050565b50565b60006154bd6000836154a2565b91506154c8826154ad565b600082019050919050565b60006154de826154b0565b9150819050919050565b7f4661696c656420746f2077697468647261772066756e64730000000000000000600082015250565b600061551e6018836143c3565b9150615529826154e8565b602082019050919050565b6000602082019050818103600083015261554d81615511565b9050919050565b7f426174746c6520697320616c726561647920636f6d706c657465640000000000600082015250565b600061558a601b836143c3565b915061559582615554565b602082019050919050565b600060208201905081810360008301526155b98161557d565b9050919050565b7f596f7520617265206e6f7420746865207365636f6e6420706c61796572206f7260008201527f2077726f6e6720746f6b656e4964000000000000000000000000000000000000602082015250565b600061561c602e836143c3565b9150615627826155c0565b604082019050919050565b6000602082019050818103600083015261564b8161560f565b9050919050565b7f496e76616c69642061747461636b000000000000000000000000000000000000600082015250565b6000615688600e836143c3565b915061569382615652565b602082019050919050565b600060208201905081810360008301526156b78161567b565b9050919050565b60006156c982614125565b91506156d483614125565b92508282019050808211156156ec576156eb615177565b5b92915050565b7f4d6178696d756d206e756d626572206f66204e465473206d696e746564000000600082015250565b6000615728601d836143c3565b9150615733826156f2565b602082019050919050565b600060208201905081810360008301526157578161571b565b9050919050565b7f596f75206d7573742073656e6420302e30352045544820746f206d696e740000600082015250565b6000615794601e836143c3565b915061579f8261575e565b602082019050919050565b600060208201905081810360008301526157c381615787565b9050919050565b6000819050919050565b600067ffffffffffffffff82169050919050565b60006158036157fe6157f9846157ca565b614f11565b6157d4565b9050919050565b615813816157e8565b82525050565b600060208201905061582e600083018461580a565b92915050565b600081519050919050565b600082825260208201905092915050565b600061585b82615834565b615865818561583f565b93506158758185602086016143d4565b61587e81614165565b840191505092915050565b600060808201905061589e60008301876144b8565b6158ab60208301866144b8565b6158b8604083018561454e565b81810360608301526158ca8184615850565b905095945050505050565b6000815190506158e481614329565b92915050565b600060208284031215615900576158ff61411b565b5b600061590e848285016158d5565b91505092915050565b6000815461592481614e5c565b61592e8186614c25565b94506001821660008114615949576001811461595e57615991565b60ff1983168652811515820286019350615991565b61596785614e8d565b60005b838110156159895781548189015260018201915060208101905061596a565b838801955050505b50505092915050565b60006159a68284615917565b915081905092915050565b60006080820190506159c660008301876144b8565b6159d3602083018661454e565b6159e060408301856144b8565b6159ed606083018461454e565b95945050505050565b6000615a028285614c91565b9150615a0e8284614c91565b91508190509392505050565b6000615a2582614125565b9150615a3083614125565b9250828203905081811115615a4857615a47615177565b5b92915050565b7f4e487b7100000000000000000000000000000000000000000000000000000000600052603160045260246000fd5b7f4e487b7100000000000000000000000000000000000000000000000000000000600052601260045260246000fdfea26469706673582212209ade0106e039938c2fd9ed9dd10b3c3f3950636c6af4e2031c31f5910754702f64736f6c63430008180033",
  "linkReferences": {},
  "deployedLinkReferences": {}
}