{
  "_format": "hh-sol-artifact-1",
  "contractName": "CryptoClashCat",
  "sourceName": "contracts/CryptoClashCat.sol",
  "abi": [
    {
      "inputs": [],
      "name": "ERC721EnumerableForbiddenBatchMint",
      "type": "error"
    },
    {
      "inputs": [
        {
          "internalType": "address",
          "name": "sender",
          "type": "address"
        },
        {
          "internalType": "uint256",
          "name": "tokenId",
          "type": "uint256"
        },
        {
          "internalType": "address",
          "name": "owner",
          "type": "address"
        }
      ],
      "name": "ERC721IncorrectOwner",
      "type": "error"
    },
    {
      "inputs": [
        {
          "internalType": "address",
          "name": "operator",
          "type": "address"
        },
        {
          "internalType": "uint256",
          "name": "tokenId",
          "type": "uint256"
        }
      ],
      "name": "ERC721InsufficientApproval",
      "type": "error"
    },
    {
      "inputs": [
        {
          "internalType": "address",
          "name": "approver",
          "type": "address"
        }
      ],
      "name": "ERC721InvalidApprover",
      "type": "error"
    },
    {
      "inputs": [
        {
          "internalType": "address",
          "name": "operator",
          "type": "address"
        }
      ],
      "name": "ERC721InvalidOperator",
      "type": "error"
    },
    {
      "inputs": [
        {
          "internalType": "address",
          "name": "owner",
          "type": "address"
        }
      ],
      "name": "ERC721InvalidOwner",
      "type": "error"
    },
    {
      "inputs": [
        {
          "internalType": "address",
          "name": "receiver",
          "type": "address"
        }
      ],
      "name": "ERC721InvalidReceiver",
      "type": "error"
    },
    {
      "inputs": [
        {
          "internalType": "address",
          "name": "sender",
          "type": "address"
        }
      ],
      "name": "ERC721InvalidSender",
      "type": "error"
    },
    {
      "inputs": [
        {
          "internalType": "uint256",
          "name": "tokenId",
          "type": "uint256"
        }
      ],
      "name": "ERC721NonexistentToken",
      "type": "error"
    },
    {
      "inputs": [
        {
          "internalType": "address",
          "name": "owner",
          "type": "address"
        },
        {
          "internalType": "uint256",
          "name": "index",
          "type": "uint256"
        }
      ],
      "name": "ERC721OutOfBoundsIndex",
      "type": "error"
    },
    {
      "inputs": [],
      "name": "InvalidInitialization",
      "type": "error"
    },
    {
      "inputs": [],
      "name": "NotInitializing",
      "type": "error"
    },
    {
      "anonymous": false,
      "inputs": [
        {
          "indexed": true,
          "internalType": "address",
          "name": "owner",
          "type": "address"
        },
        {
          "indexed": true,
          "internalType": "address",
          "name": "approved",
          "type": "address"
        },
        {
          "indexed": true,
          "internalType": "uint256",
          "name": "tokenId",
          "type": "uint256"
        }
      ],
      "name": "Approval",
      "type": "event"
    },
    {
      "anonymous": false,
      "inputs": [
        {
          "indexed": true,
          "internalType": "address",
          "name": "owner",
          "type": "address"
        },
        {
          "indexed": true,
          "internalType": "address",
          "name": "operator",
          "type": "address"
        },
        {
          "indexed": false,
          "internalType": "bool",
          "name": "approved",
          "type": "bool"
        }
      ],
      "name": "ApprovalForAll",
      "type": "event"
    },
    {
      "anonymous": false,
      "inputs": [
        {
          "indexed": false,
          "internalType": "uint256",
          "name": "_fromTokenId",
          "type": "uint256"
        },
        {
          "indexed": false,
          "internalType": "uint256",
          "name": "_toTokenId",
          "type": "uint256"
        }
      ],
      "name": "BatchMetadataUpdate",
      "type": "event"
    },
    {
      "anonymous": false,
      "inputs": [
        {
          "indexed": false,
          "internalType": "address",
          "name": "owner",
          "type": "address"
        },
        {
          "indexed": false,
          "internalType": "uint256",
          "name": "amount",
          "type": "uint256"
        }
      ],
      "name": "FundsWithdrawn",
      "type": "event"
    },
    {
      "anonymous": false,
      "inputs": [
        {
          "indexed": false,
          "internalType": "uint64",
          "name": "version",
          "type": "uint64"
        }
      ],
      "name": "Initialized",
      "type": "event"
    },
    {
      "anonymous": false,
      "inputs": [
        {
          "indexed": false,
          "internalType": "uint256",
          "name": "_tokenId",
          "type": "uint256"
        }
      ],
      "name": "MetadataUpdate",
      "type": "event"
    },
    {
      "anonymous": false,
      "inputs": [
        {
          "indexed": true,
          "internalType": "address",
          "name": "from",
          "type": "address"
        },
        {
          "indexed": true,
          "internalType": "address",
          "name": "to",
          "type": "address"
        },
        {
          "indexed": true,
          "internalType": "uint256",
          "name": "tokenId",
          "type": "uint256"
        }
      ],
      "name": "Transfer",
      "type": "event"
    },
    {
      "inputs": [
        {
          "internalType": "address",
          "name": "to",
          "type": "address"
        },
        {
          "internalType": "uint256",
          "name": "tokenId",
          "type": "uint256"
        }
      ],
      "name": "approve",
      "outputs": [],
      "stateMutability": "nonpayable",
      "type": "function"
    },
    {
      "inputs": [
        {
          "internalType": "address",
          "name": "owner",
          "type": "address"
        }
      ],
      "name": "balanceOf",
      "outputs": [
        {
          "internalType": "uint256",
          "name": "",
          "type": "uint256"
        }
      ],
      "stateMutability": "view",
      "type": "function"
    },
    {
      "inputs": [
        {
          "internalType": "uint256",
          "name": "tokenId",
          "type": "uint256"
        },
        {
          "internalType": "string",
          "name": "attack",
          "type": "string"
        }
      ],
      "name": "chooseAttack",
      "outputs": [],
      "stateMutability": "nonpayable",
      "type": "function"
    },
    {
      "inputs": [
        {
          "internalType": "uint256",
          "name": "tokenId1",
          "type": "uint256"
        },
        {
          "internalType": "uint256",
          "name": "tokenId2",
          "type": "uint256"
        }
      ],
      "name": "fight",
      "outputs": [],
      "stateMutability": "nonpayable",
      "type": "function"
    },
    {
      "inputs": [],
      "name": "firstPlaceReward",
      "outputs": [
        {
          "internalType": "uint256",
          "name": "",
          "type": "uint256"
        }
      ],
      "stateMutability": "view",
      "type": "function"
    },
    {
      "inputs": [
        {
          "internalType": "uint256",
          "name": "tokenId",
          "type": "uint256"
        }
      ],
      "name": "getApproved",
      "outputs": [
        {
          "internalType": "address",
          "name": "",
          "type": "address"
        }
      ],
      "stateMutability": "view",
      "type": "function"
    },
    {
      "inputs": [],
      "name": "getNextTokenId",
      "outputs": [
        {
          "internalType": "uint256",
          "name": "",
          "type": "uint256"
        }
      ],
      "stateMutability": "view",
      "type": "function"
    },
    {
      "inputs": [
        {
          "internalType": "uint256",
          "name": "tokenId",
          "type": "uint256"
        }
      ],
      "name": "getWins",
      "outputs": [
        {
          "internalType": "uint256",
          "name": "",
          "type": "uint256"
        }
      ],
      "stateMutability": "view",
      "type": "function"
    },
    {
      "inputs": [
        {
          "internalType": "uint256",
          "name": "maxNFTs",
          "type": "uint256"
        }
      ],
      "name": "initialize",
      "outputs": [],
      "stateMutability": "nonpayable",
      "type": "function"
    },
    {
      "inputs": [
        {
          "internalType": "address",
          "name": "owner",
          "type": "address"
        },
        {
          "internalType": "address",
          "name": "operator",
          "type": "address"
        }
      ],
      "name": "isApprovedForAll",
      "outputs": [
        {
          "internalType": "bool",
          "name": "",
          "type": "bool"
        }
      ],
      "stateMutability": "view",
      "type": "function"
    },
    {
      "inputs": [],
      "name": "name",
      "outputs": [
        {
          "internalType": "string",
          "name": "",
          "type": "string"
        }
      ],
      "stateMutability": "view",
      "type": "function"
    },
    {
      "inputs": [
        {
          "internalType": "uint256",
          "name": "tokenId",
          "type": "uint256"
        }
      ],
      "name": "ownerOf",
      "outputs": [
        {
          "internalType": "address",
          "name": "",
          "type": "address"
        }
      ],
      "stateMutability": "view",
      "type": "function"
    },
    {
      "inputs": [
        {
          "internalType": "address[]",
          "name": "topNFTs",
          "type": "address[]"
        },
        {
          "internalType": "address",
          "name": "cryptoClashContract",
          "type": "address"
        }
      ],
      "name": "rewardTopNFTs",
      "outputs": [],
      "stateMutability": "nonpayable",
      "type": "function"
    },
    {
      "inputs": [
        {
          "internalType": "address",
          "name": "to",
          "type": "address"
        },
        {
          "internalType": "string",
          "name": "uri",
          "type": "string"
        }
      ],
      "name": "safeMint",
      "outputs": [],
      "stateMutability": "payable",
      "type": "function"
    },
    {
      "inputs": [
        {
          "internalType": "address",
          "name": "from",
          "type": "address"
        },
        {
          "internalType": "address",
          "name": "to",
          "type": "address"
        },
        {
          "internalType": "uint256",
          "name": "tokenId",
          "type": "uint256"
        }
      ],
      "name": "safeTransferFrom",
      "outputs": [],
      "stateMutability": "nonpayable",
      "type": "function"
    },
    {
      "inputs": [
        {
          "internalType": "address",
          "name": "from",
          "type": "address"
        },
        {
          "internalType": "address",
          "name": "to",
          "type": "address"
        },
        {
          "internalType": "uint256",
          "name": "tokenId",
          "type": "uint256"
        },
        {
          "internalType": "bytes",
          "name": "data",
          "type": "bytes"
        }
      ],
      "name": "safeTransferFrom",
      "outputs": [],
      "stateMutability": "nonpayable",
      "type": "function"
    },
    {
      "inputs": [],
      "name": "secondPlaceReward",
      "outputs": [
        {
          "internalType": "uint256",
          "name": "",
          "type": "uint256"
        }
      ],
      "stateMutability": "view",
      "type": "function"
    },
    {
      "inputs": [
        {
          "internalType": "address",
          "name": "operator",
          "type": "address"
        },
        {
          "internalType": "bool",
          "name": "approved",
          "type": "bool"
        }
      ],
      "name": "setApprovalForAll",
      "outputs": [],
      "stateMutability": "nonpayable",
      "type": "function"
    },
    {
      "inputs": [
        {
          "internalType": "bytes4",
          "name": "interfaceId",
          "type": "bytes4"
        }
      ],
      "name": "supportsInterface",
      "outputs": [
        {
          "internalType": "bool",
          "name": "",
          "type": "bool"
        }
      ],
      "stateMutability": "view",
      "type": "function"
    },
    {
      "inputs": [],
      "name": "symbol",
      "outputs": [
        {
          "internalType": "string",
          "name": "",
          "type": "string"
        }
      ],
      "stateMutability": "view",
      "type": "function"
    },
    {
      "inputs": [],
      "name": "thirdPlaceReward",
      "outputs": [
        {
          "internalType": "uint256",
          "name": "",
          "type": "uint256"
        }
      ],
      "stateMutability": "view",
      "type": "function"
    },
    {
      "inputs": [
        {
          "internalType": "uint256",
          "name": "index",
          "type": "uint256"
        }
      ],
      "name": "tokenByIndex",
      "outputs": [
        {
          "internalType": "uint256",
          "name": "",
          "type": "uint256"
        }
      ],
      "stateMutability": "view",
      "type": "function"
    },
    {
      "inputs": [
        {
          "internalType": "address",
          "name": "owner",
          "type": "address"
        },
        {
          "internalType": "uint256",
          "name": "index",
          "type": "uint256"
        }
      ],
      "name": "tokenOfOwnerByIndex",
      "outputs": [
        {
          "internalType": "uint256",
          "name": "",
          "type": "uint256"
        }
      ],
      "stateMutability": "view",
      "type": "function"
    },
    {
      "inputs": [
        {
          "internalType": "uint256",
          "name": "tokenId",
          "type": "uint256"
        }
      ],
      "name": "tokenURI",
      "outputs": [
        {
          "internalType": "string",
          "name": "",
          "type": "string"
        }
      ],
      "stateMutability": "view",
      "type": "function"
    },
    {
      "inputs": [],
      "name": "totalSupply",
      "outputs": [
        {
          "internalType": "uint256",
          "name": "",
          "type": "uint256"
        }
      ],
      "stateMutability": "view",
      "type": "function"
    },
    {
      "inputs": [
        {
          "internalType": "address",
          "name": "from",
          "type": "address"
        },
        {
          "internalType": "address",
          "name": "to",
          "type": "address"
        },
        {
          "internalType": "uint256",
          "name": "tokenId",
          "type": "uint256"
        }
      ],
      "name": "transferFrom",
      "outputs": [],
      "stateMutability": "nonpayable",
      "type": "function"
    },
    {
      "inputs": [],
      "name": "withdraw",
      "outputs": [],
      "stateMutability": "nonpayable",
      "type": "function"
    },
    {
      "stateMutability": "payable",
      "type": "receive"
    }
  ],
  "bytecode": "0x608060405234801561001057600080fd5b50614af5806100206000396000f3fe60806040526004361061019f5760003560e01c80636352211e116100ec578063b88d4fde1161008a578063caa0f92a11610064578063caa0f92a146105f4578063d204c45e1461061f578063e985e9c51461063b578063fe4b84df14610678576101a6565b8063b88d4fde14610565578063c87b56dd1461058e578063ca39e5ef146105cb576101a6565b80637c887430116100c65780637c887430146104a957806395d89b41146104d4578063a22cb465146104ff578063aade6e4214610528576101a6565b80636352211e1461040457806370a08231146104415780637a555e9e1461047e576101a6565b806319088f1f116101595780632f913171116101335780632f9131711461035e5780633ccfd60b1461038757806342842e0e1461039e5780634f6ccce7146103c7576101a6565b806319088f1f146102cd57806323b872dd146102f85780632f745c5914610321576101a6565b80625524c7146101ab57806301ffc9a7146101d457806306fdde0314610211578063081812fc1461023c578063095ea7b31461027957806318160ddd146102a2576101a6565b366101a657005b600080fd5b3480156101b757600080fd5b506101d260048036038101906101cd9190613731565b6106a1565b005b3480156101e057600080fd5b506101fb60048036038101906101f691906137e5565b610872565b604051610208919061382d565b60405180910390f35b34801561021d57600080fd5b50610226610884565b60405161023391906138c7565b60405180910390f35b34801561024857600080fd5b50610263600480360381019061025e91906138e9565b610925565b6040516102709190613957565b60405180910390f35b34801561028557600080fd5b506102a0600480360381019061029b919061399e565b610941565b005b3480156102ae57600080fd5b506102b7610957565b6040516102c491906139ed565b60405180910390f35b3480156102d957600080fd5b506102e2610972565b6040516102ef91906139ed565b60405180910390f35b34801561030457600080fd5b5061031f600480360381019061031a9190613a08565b610978565b005b34801561032d57600080fd5b506103486004803603810190610343919061399e565b610a7a565b60405161035591906139ed565b60405180910390f35b34801561036a57600080fd5b5061038560048036038101906103809190613b23565b610b31565b005b34801561039357600080fd5b5061039c610f70565b005b3480156103aa57600080fd5b506103c560048036038101906103c09190613a08565b611132565b005b3480156103d357600080fd5b506103ee60048036038101906103e991906138e9565b611152565b6040516103fb91906139ed565b60405180910390f35b34801561041057600080fd5b5061042b600480360381019061042691906138e9565b6111d6565b6040516104389190613957565b60405180910390f35b34801561044d57600080fd5b5061046860048036038101906104639190613b7f565b6111e8565b60405161047591906139ed565b60405180910390f35b34801561048a57600080fd5b506104936112b1565b6040516104a091906139ed565b60405180910390f35b3480156104b557600080fd5b506104be6112b7565b6040516104cb91906139ed565b60405180910390f35b3480156104e057600080fd5b506104e96112bd565b6040516104f691906138c7565b60405180910390f35b34801561050b57600080fd5b5061052660048036038101906105219190613bd8565b61135e565b005b34801561053457600080fd5b5061054f600480360381019061054a91906138e9565b611374565b60405161055c91906139ed565b60405180910390f35b34801561057157600080fd5b5061058c60048036038101906105879190613cb9565b611393565b005b34801561059a57600080fd5b506105b560048036038101906105b091906138e9565b6113b0565b6040516105c291906138c7565b60405180910390f35b3480156105d757600080fd5b506105f260048036038101906105ed9190613d3c565b6113c2565b005b34801561060057600080fd5b50610609611a14565b60405161061691906139ed565b60405180910390f35b61063960048036038101906106349190613d7c565b611a2a565b005b34801561064757600080fd5b50610662600480360381019061065d9190613dd8565b611ae6565b60405161066f919061382d565b60405180910390f35b34801561068457600080fd5b5061069f600480360381019061069a91906138e9565b611b88565b005b3373ffffffffffffffffffffffffffffffffffffffff166106c1836111d6565b73ffffffffffffffffffffffffffffffffffffffff1614610717576040517f08c379a000000000000000000000000000000000000000000000000000000000815260040161070e90613e8a565b60405180910390fd5b60405160200161072690613f01565b604051602081830303815290604052805190602001208160405160200161074d9190613f47565b6040516020818303038152906040528051906020012014806107b8575060405160200161077990613faa565b60405160208183030381529060405280519060200120816040516020016107a09190613f47565b60405160208183030381529060405280519060200120145b8061080c57506040516020016107cd9061400b565b60405160208183030381529060405280519060200120816040516020016107f49190613f47565b60405160208183030381529060405280519060200120145b61084b576040517f08c379a000000000000000000000000000000000000000000000000000000000815260040161084290614092565b60405180910390fd5b80600080848152602001908152602001600020600001908161086d91906142be565b505050565b600061087d82611dfc565b9050919050565b60606000610890611e76565b90508060000180546108a1906140e1565b80601f01602080910402602001604051908101604052809291908181526020018280546108cd906140e1565b801561091a5780601f106108ef5761010080835404028352916020019161091a565b820191906000526020600020905b8154815290600101906020018083116108fd57829003601f168201915b505050505091505090565b600061093082611e9e565b5061093a82611f26565b9050919050565b610953828261094e611f71565b611f79565b5050565b600080610962611f8b565b9050806002018054905091505090565b60045481565b600073ffffffffffffffffffffffffffffffffffffffff168273ffffffffffffffffffffffffffffffffffffffff16036109ea5760006040517f64a0ae920000000000000000000000000000000000000000000000000000000081526004016109e19190613957565b60405180910390fd5b60006109fe83836109f9611f71565b611fb3565b90508373ffffffffffffffffffffffffffffffffffffffff168173ffffffffffffffffffffffffffffffffffffffff1614610a74578382826040517f64283d7b000000000000000000000000000000000000000000000000000000008152600401610a6b93929190614390565b60405180910390fd5b50505050565b600080610a85611f8b565b9050610a90846111e8565b8310610ad55783836040517fa57d13dc000000000000000000000000000000000000000000000000000000008152600401610acc9291906143c7565b60405180910390fd5b8060000160008573ffffffffffffffffffffffffffffffffffffffff1673ffffffffffffffffffffffffffffffffffffffff16815260200190815260200160002060008481526020019081526020016000205491505092915050565b600160009054906101000a900473ffffffffffffffffffffffffffffffffffffffff1673ffffffffffffffffffffffffffffffffffffffff163373ffffffffffffffffffffffffffffffffffffffff1614610bc1576040517f08c379a0000000000000000000000000000000000000000000000000000000008152600401610bb890614462565b60405180910390fd5b600382511115610c06576040517f08c379a0000000000000000000000000000000000000000000000000000000008152600401610bfd906144ce565b60405180910390fd5b60008190506000600367ffffffffffffffff811115610c2857610c27613606565b5b604051908082528060200260200182016040528015610c565781602001602082028036833780820191505090505b50905060045481600081518110610c7057610c6f6144ee565b5b60200260200101818152505060055481600181518110610c9357610c926144ee565b5b60200260200101818152505060065481600281518110610cb657610cb56144ee565b5b60200260200101818152505060005b8451811015610e0557600073ffffffffffffffffffffffffffffffffffffffff16858281518110610cf957610cf86144ee565b5b602002602001015173ffffffffffffffffffffffffffffffffffffffff1603610d57576040517f08c379a0000000000000000000000000000000000000000000000000000000008152600401610d4e90614569565b60405180910390fd5b8273ffffffffffffffffffffffffffffffffffffffff16637d4b7195868381518110610d8657610d856144ee565b5b6020026020010151848481518110610da157610da06144ee565b5b60200260200101516040518363ffffffff1660e01b8152600401610dc69291906143c7565b600060405180830381600087803b158015610de057600080fd5b505af1158015610df4573d6000803e3d6000fd5b505050508080600101915050610cc5565b5060005b8451811015610f6957600073ffffffffffffffffffffffffffffffffffffffff16858281518110610e3d57610e3c6144ee565b5b602002602001015173ffffffffffffffffffffffffffffffffffffffff1603610e9b576040517f08c379a0000000000000000000000000000000000000000000000000000000008152600401610e9290614569565b60405180910390fd5b6000858281518110610eb057610eaf6144ee565b5b602002602001015190508073ffffffffffffffffffffffffffffffffffffffff166340c10f19878481518110610ee957610ee86144ee565b5b6020026020010151858581518110610f0457610f036144ee565b5b60200260200101516040518363ffffffff1660e01b8152600401610f299291906143c7565b600060405180830381600087803b158015610f4357600080fd5b505af1158015610f57573d6000803e3d6000fd5b50505050508080600101915050610e09565b5050505050565b600160009054906101000a900473ffffffffffffffffffffffffffffffffffffffff1673ffffffffffffffffffffffffffffffffffffffff163373ffffffffffffffffffffffffffffffffffffffff1614611000576040517f08c379a0000000000000000000000000000000000000000000000000000000008152600401610ff7906145fb565b60405180910390fd5b60004790506000600160009054906101000a900473ffffffffffffffffffffffffffffffffffffffff1673ffffffffffffffffffffffffffffffffffffffff168260405161104d9061464c565b60006040518083038185875af1925050503d806000811461108a576040519150601f19603f3d011682016040523d82523d6000602084013e61108f565b606091505b50509050806110d3576040517f08c379a00000000000000000000000000000000000000000000000000000000081526004016110ca906146ad565b60405180910390fd5b7feaff4b37086828766ad3268786972c0cd24259d4c87a80f9d3963a3c3d999b0d600160009054906101000a900473ffffffffffffffffffffffffffffffffffffffff16836040516111269291906143c7565b60405180910390a15050565b61114d83838360405180602001604052806000815250611393565b505050565b60008061115d611f8b565b9050611167610957565b83106111ad576000836040517fa57d13dc0000000000000000000000000000000000000000000000000000000081526004016111a49291906143c7565b60405180910390fd5b8060020183815481106111c3576111c26144ee565b5b9060005260206000200154915050919050565b60006111e182611e9e565b9050919050565b6000806111f3611e76565b9050600073ffffffffffffffffffffffffffffffffffffffff168373ffffffffffffffffffffffffffffffffffffffff16036112675760006040517f89c62b6400000000000000000000000000000000000000000000000000000000815260040161125e9190613957565b60405180910390fd5b8060030160008473ffffffffffffffffffffffffffffffffffffffff1673ffffffffffffffffffffffffffffffffffffffff16815260200190815260200160002054915050919050565b60065481565b60055481565b606060006112c9611e76565b90508060010180546112da906140e1565b80601f0160208091040260200160405190810160405280929190818152602001828054611306906140e1565b80156113535780601f1061132857610100808354040283529160200191611353565b820191906000526020600020905b81548152906001019060200180831161133657829003601f168201915b505050505091505090565b611370611369611f71565b8383611fc9565b5050565b6000806000838152602001908152602001600020600101549050919050565b61139e848484610978565b6113aa84848484612147565b50505050565b60606113bb826122fe565b9050919050565b600073ffffffffffffffffffffffffffffffffffffffff166113e3836111d6565b73ffffffffffffffffffffffffffffffffffffffff161415801561143c5750600073ffffffffffffffffffffffffffffffffffffffff16611423826111d6565b73ffffffffffffffffffffffffffffffffffffffff1614155b61147b576040517f08c379a000000000000000000000000000000000000000000000000000000000815260040161147290614719565b60405180910390fd5b6000806000848152602001908152602001600020600001805461149d906140e1565b80601f01602080910402602001604051908101604052809291908181526020018280546114c9906140e1565b80156115165780601f106114eb57610100808354040283529160200191611516565b820191906000526020600020905b8154815290600101906020018083116114f957829003601f168201915b505050505090506000806000848152602001908152602001600020600001805461153f906140e1565b80601f016020809104026020016040519081016040528092919081815260200182805461156b906140e1565b80156115b85780601f1061158d576101008083540402835291602001916115b8565b820191906000526020600020905b81548152906001019060200180831161159b57829003601f168201915b505050505090506040516020016115ce90613f01565b60405160208183030381529060405280519060200120826040516020016115f59190613f47565b60405160208183030381529060405280519060200120148015611661575060405160200161162290613faa565b60405160208183030381529060405280519060200120816040516020016116499190613f47565b60405160208183030381529060405280519060200120145b8061170a575060405160200161167690613faa565b604051602081830303815290604052805190602001208260405160200161169d9190613f47565b6040516020818303038152906040528051906020012014801561170957506040516020016116ca9061400b565b60405160208183030381529060405280519060200120816040516020016116f19190613f47565b60405160208183030381529060405280519060200120145b5b806117b3575060405160200161171f9061400b565b60405160208183030381529060405280519060200120826040516020016117469190613f47565b604051602081830303815290604052805190602001201480156117b2575060405160200161177390613f01565b604051602081830303815290604052805190602001208160405160200161179a9190613f47565b60405160208183030381529060405280519060200120145b5b156117e85760008085815260200190815260200160002060010160008154809291906117de90614768565b9190505550611a0e565b6040516020016117f790613f01565b604051602081830303815290604052805190602001208160405160200161181e9190613f47565b6040516020818303038152906040528051906020012014801561188a575060405160200161184b90613faa565b60405160208183030381529060405280519060200120826040516020016118729190613f47565b60405160208183030381529060405280519060200120145b80611933575060405160200161189f90613faa565b60405160208183030381529060405280519060200120816040516020016118c69190613f47565b6040516020818303038152906040528051906020012014801561193257506040516020016118f39061400b565b604051602081830303815290604052805190602001208260405160200161191a9190613f47565b60405160208183030381529060405280519060200120145b5b806119dc57506040516020016119489061400b565b604051602081830303815290604052805190602001208160405160200161196f9190613f47565b604051602081830303815290604052805190602001201480156119db575060405160200161199c90613f01565b60405160208183030381529060405280519060200120826040516020016119c39190613f47565b60405160208183030381529060405280519060200120145b5b15611a0d576000808481526020019081526020016000206001016000815480929190611a0790614768565b91905055505b5b50505050565b60006001600254611a2591906147b0565b905090565b60035460025410611a70576040517f08c379a0000000000000000000000000000000000000000000000000000000008152600401611a6790614830565b60405180910390fd5b66b1a2bc2ec500003414611ab9576040517f08c379a0000000000000000000000000000000000000000000000000000000008152600401611ab09061489c565b60405180910390fd5b6000611ac3612422565b9050611acf8382612438565b611ad98183612456565b611ae16124c1565b505050565b600080611af1611e76565b90508060050160008573ffffffffffffffffffffffffffffffffffffffff1673ffffffffffffffffffffffffffffffffffffffff16815260200190815260200160002060008473ffffffffffffffffffffffffffffffffffffffff1673ffffffffffffffffffffffffffffffffffffffff16815260200190815260200160002060009054906101000a900460ff1691505092915050565b6000611b926124db565b905060008160000160089054906101000a900460ff1615905060008260000160009054906101000a900467ffffffffffffffff1690506000808267ffffffffffffffff16148015611be05750825b9050600060018367ffffffffffffffff16148015611c15575060003073ffffffffffffffffffffffffffffffffffffffff163b145b905081158015611c23575080155b15611c5a576040517ff92ee8a900000000000000000000000000000000000000000000000000000000815260040160405180910390fd5b60018560000160006101000a81548167ffffffffffffffff021916908367ffffffffffffffff1602179055508315611caa5760018560000160086101000a81548160ff0219169083151502179055505b611d1e6040518060400160405280600e81526020017f43727970746f436c6173684361740000000000000000000000000000000000008152506040518060400160405280600381526020017f4343430000000000000000000000000000000000000000000000000000000000815250612503565b611d26612519565b611d2e612523565b33600160006101000a81548173ffffffffffffffffffffffffffffffffffffffff021916908373ffffffffffffffffffffffffffffffffffffffff1602179055508560038190555060006002819055506103e86004819055506101f460058190555060fa6006819055508315611df45760008560000160086101000a81548160ff0219169083151502179055507fc7f505b2f371ae2175ee4913f4499e1f2633a7b5936321eed1cdaeb6115181d26001604051611deb919061490b565b60405180910390a15b505050505050565b60007f780e9d63000000000000000000000000000000000000000000000000000000007bffffffffffffffffffffffffffffffffffffffffffffffffffffffff1916827bffffffffffffffffffffffffffffffffffffffffffffffffffffffff19161480611e6f5750611e6e8261252d565b5b9050919050565b60007f80bb2b638cc20bc4d0a60d66940f3ab4a00c1d7b313497ca82fb0b4ab0079300905090565b600080611eaa8361258e565b9050600073ffffffffffffffffffffffffffffffffffffffff168173ffffffffffffffffffffffffffffffffffffffff1603611f1d57826040517f7e273289000000000000000000000000000000000000000000000000000000008152600401611f1491906139ed565b60405180910390fd5b80915050919050565b600080611f31611e76565b905080600401600084815260200190815260200160002060009054906101000a900473ffffffffffffffffffffffffffffffffffffffff16915050919050565b600033905090565b611f8683838360016125d9565b505050565b60007f645e039705490088daad89bae25049a34f4a9072d398537b1ab2425f24cbed00905090565b6000611fc08484846127ad565b90509392505050565b6000611fd3611e76565b9050600073ffffffffffffffffffffffffffffffffffffffff168373ffffffffffffffffffffffffffffffffffffffff160361204657826040517f5b08ba1800000000000000000000000000000000000000000000000000000000815260040161203d9190613957565b60405180910390fd5b818160050160008673ffffffffffffffffffffffffffffffffffffffff1673ffffffffffffffffffffffffffffffffffffffff16815260200190815260200160002060008573ffffffffffffffffffffffffffffffffffffffff1673ffffffffffffffffffffffffffffffffffffffff16815260200190815260200160002060006101000a81548160ff0219169083151502179055508273ffffffffffffffffffffffffffffffffffffffff168473ffffffffffffffffffffffffffffffffffffffff167f17307eab39ab6107e8899845ad3d59bd9653f200f220920489ca2b5937696c3184604051612139919061382d565b60405180910390a350505050565b60008373ffffffffffffffffffffffffffffffffffffffff163b11156122f8578273ffffffffffffffffffffffffffffffffffffffff1663150b7a0261218b611f71565b8685856040518563ffffffff1660e01b81526004016121ad949392919061497b565b6020604051808303816000875af19250505080156121e957506040513d601f19601f820116820180604052508101906121e691906149dc565b60015b61226d573d8060008114612219576040519150601f19603f3d011682016040523d82523d6000602084013e61221e565b606091505b50600081510361226557836040517f64a0ae9200000000000000000000000000000000000000000000000000000000815260040161225c9190613957565b60405180910390fd5b805181602001fd5b63150b7a0260e01b7bffffffffffffffffffffffffffffffffffffffffffffffffffffffff1916817bffffffffffffffffffffffffffffffffffffffffffffffffffffffff1916146122f657836040517f64a0ae920000000000000000000000000000000000000000000000000000000081526004016122ed9190613957565b60405180910390fd5b505b50505050565b6060600061230a6128ca565b905061231583611e9e565b5060008160000160008581526020019081526020016000208054612338906140e1565b80601f0160208091040260200160405190810160405280929190818152602001828054612364906140e1565b80156123b15780601f10612386576101008083540402835291602001916123b1565b820191906000526020600020905b81548152906001019060200180831161239457829003601f168201915b5050505050905060006123c26128f2565b905060008151036123d85781935050505061241d565b60008251111561240e5780826040516020016123f5929190614a09565b604051602081830303815290604052935050505061241d565b61241785612909565b93505050505b919050565b6000600160025461243391906147b0565b905090565b612452828260405180602001604052806000815250612972565b5050565b60006124606128ca565b905081816000016000858152602001908152602001600020908161248491906142be565b507ff8e1a15aba9398e019f0b49df1a4fde98ee17ae345cb5f6b5e2c27f5033e8ce7836040516124b491906139ed565b60405180910390a1505050565b600260008154809291906124d490614768565b9190505550565b60007ff0c57e16840df040f15088dc2f81fe391c3923bec73e23a9662efc9c229c6a00905090565b61250b61298e565b61251582826129ce565b5050565b61252161298e565b565b61252b61298e565b565b6000634906490660e01b7bffffffffffffffffffffffffffffffffffffffffffffffffffffffff1916827bffffffffffffffffffffffffffffffffffffffffffffffffffffffff19161480612587575061258682612a0b565b5b9050919050565b600080612599611e76565b905080600201600084815260200190815260200160002060009054906101000a900473ffffffffffffffffffffffffffffffffffffffff16915050919050565b60006125e3611e76565b9050818061261e5750600073ffffffffffffffffffffffffffffffffffffffff168373ffffffffffffffffffffffffffffffffffffffff1614155b1561275257600061262e85611e9e565b9050600073ffffffffffffffffffffffffffffffffffffffff168473ffffffffffffffffffffffffffffffffffffffff161415801561269957508373ffffffffffffffffffffffffffffffffffffffff168173ffffffffffffffffffffffffffffffffffffffff1614155b80156126ac57506126aa8185611ae6565b155b156126ee57836040517fa9fbf51f0000000000000000000000000000000000000000000000000000000081526004016126e59190613957565b60405180910390fd5b821561275057848673ffffffffffffffffffffffffffffffffffffffff168273ffffffffffffffffffffffffffffffffffffffff167f8c5be1e5ebec7d5bd14f71427d1e84f3dd0314c0f7b2291e5b200ac8c7c3b92560405160405180910390a45b505b8481600401600086815260200190815260200160002060006101000a81548173ffffffffffffffffffffffffffffffffffffffff021916908373ffffffffffffffffffffffffffffffffffffffff1602179055505050505050565b6000806127bb858585612aed565b9050600073ffffffffffffffffffffffffffffffffffffffff168173ffffffffffffffffffffffffffffffffffffffff16036127ff576127fa84612d1a565b61283e565b8473ffffffffffffffffffffffffffffffffffffffff168173ffffffffffffffffffffffffffffffffffffffff161461283d5761283c8185612d76565b5b5b600073ffffffffffffffffffffffffffffffffffffffff168573ffffffffffffffffffffffffffffffffffffffff16036128805761287b84612ef0565b6128bf565b8473ffffffffffffffffffffffffffffffffffffffff168173ffffffffffffffffffffffffffffffffffffffff16146128be576128bd8585612fdc565b5b5b809150509392505050565b60007f0542a41881ee128a365a727b282c86fa859579490b9bb45aab8503648c8e7900905090565b606060405180602001604052806000815250905090565b606061291482611e9e565b50600061291f6128f2565b9050600081511161293f576040518060200160405280600081525061296a565b8061294984613078565b60405160200161295a929190614a09565b6040516020818303038152906040525b915050919050565b61297c8383613146565b6129896000848484612147565b505050565b61299661323f565b6129cc576040517fd7e6bcf800000000000000000000000000000000000000000000000000000000815260040160405180910390fd5b565b6129d661298e565b60006129e0611e76565b9050828160000190816129f391906142be565b5081816001019081612a0591906142be565b50505050565b60007f80ac58cd000000000000000000000000000000000000000000000000000000007bffffffffffffffffffffffffffffffffffffffffffffffffffffffff1916827bffffffffffffffffffffffffffffffffffffffffffffffffffffffff19161480612ad657507f5b5e139f000000000000000000000000000000000000000000000000000000007bffffffffffffffffffffffffffffffffffffffffffffffffffffffff1916827bffffffffffffffffffffffffffffffffffffffffffffffffffffffff1916145b80612ae65750612ae58261325f565b5b9050919050565b600080612af8611e76565b90506000612b058561258e565b9050600073ffffffffffffffffffffffffffffffffffffffff168473ffffffffffffffffffffffffffffffffffffffff1614612b4757612b468185876132c9565b5b600073ffffffffffffffffffffffffffffffffffffffff168173ffffffffffffffffffffffffffffffffffffffff1614612bda57612b896000866000806125d9565b60018260030160008373ffffffffffffffffffffffffffffffffffffffff1673ffffffffffffffffffffffffffffffffffffffff168152602001908152602001600020600082825403925050819055505b600073ffffffffffffffffffffffffffffffffffffffff168673ffffffffffffffffffffffffffffffffffffffff1614612c5f5760018260030160008873ffffffffffffffffffffffffffffffffffffffff1673ffffffffffffffffffffffffffffffffffffffff168152602001908152602001600020600082825401925050819055505b8582600201600087815260200190815260200160002060006101000a81548173ffffffffffffffffffffffffffffffffffffffff021916908373ffffffffffffffffffffffffffffffffffffffff160217905550848673ffffffffffffffffffffffffffffffffffffffff168273ffffffffffffffffffffffffffffffffffffffff167fddf252ad1be2c89b69c2b068fc378daa952ba7f163c4a11628f55a4df523b3ef60405160405180910390a480925050509392505050565b6000612d24611f8b565b9050806002018054905081600301600084815260200190815260200160002081905550806002018290806001815401808255809150506001900390600052602060002001600090919091909150555050565b6000612d80611f8b565b90506000612d8d846111e8565b90506000826001016000858152602001908152602001600020549050818114612e7a5760008360000160008773ffffffffffffffffffffffffffffffffffffffff1673ffffffffffffffffffffffffffffffffffffffff1681526020019081526020016000206000848152602001908152602001600020549050808460000160008873ffffffffffffffffffffffffffffffffffffffff1673ffffffffffffffffffffffffffffffffffffffff1681526020019081526020016000206000848152602001908152602001600020819055508184600101600083815260200190815260200160002081905550505b826001016000858152602001908152602001600020600090558260000160008673ffffffffffffffffffffffffffffffffffffffff1673ffffffffffffffffffffffffffffffffffffffff1681526020019081526020016000206000838152602001908152602001600020600090555050505050565b6000612efa611f8b565b9050600060018260020180549050612f129190614a2d565b905060008260030160008581526020019081526020016000205490506000836002018381548110612f4657612f456144ee565b5b9060005260206000200154905080846002018381548110612f6a57612f696144ee565b5b906000526020600020018190555081846003016000838152602001908152602001600020819055508360030160008681526020019081526020016000206000905583600201805480612fbf57612fbe614a61565b5b600190038181906000526020600020016000905590555050505050565b6000612fe6611f8b565b905060006001612ff5856111e8565b612fff9190614a2d565b9050828260000160008673ffffffffffffffffffffffffffffffffffffffff1673ffffffffffffffffffffffffffffffffffffffff168152602001908152602001600020600083815260200190815260200160002081905550808260010160008581526020019081526020016000208190555050505050565b6060600060016130878461338d565b01905060008167ffffffffffffffff8111156130a6576130a5613606565b5b6040519080825280601f01601f1916602001820160405280156130d85781602001600182028036833780820191505090505b509050600082602001820190505b60011561313b578080600190039150507f3031323334353637383961626364656600000000000000000000000000000000600a86061a8153600a858161312f5761312e614a90565b5b049450600085036130e6575b819350505050919050565b600073ffffffffffffffffffffffffffffffffffffffff168273ffffffffffffffffffffffffffffffffffffffff16036131b85760006040517f64a0ae920000000000000000000000000000000000000000000000000000000081526004016131af9190613957565b60405180910390fd5b60006131c683836000611fb3565b9050600073ffffffffffffffffffffffffffffffffffffffff168173ffffffffffffffffffffffffffffffffffffffff161461323a5760006040517f73c6ac6e0000000000000000000000000000000000000000000000000000000081526004016132319190613957565b60405180910390fd5b505050565b60006132496124db565b60000160089054906101000a900460ff16905090565b60007f01ffc9a7000000000000000000000000000000000000000000000000000000007bffffffffffffffffffffffffffffffffffffffffffffffffffffffff1916827bffffffffffffffffffffffffffffffffffffffffffffffffffffffff1916149050919050565b6132d48383836134e0565b61338857600073ffffffffffffffffffffffffffffffffffffffff168373ffffffffffffffffffffffffffffffffffffffff160361334957806040517f7e27328900000000000000000000000000000000000000000000000000000000815260040161334091906139ed565b60405180910390fd5b81816040517f177e802f00000000000000000000000000000000000000000000000000000000815260040161337f9291906143c7565b60405180910390fd5b505050565b600080600090507a184f03e93ff9f4daa797ed6e38ed64bf6a1f01000000000000000083106133eb577a184f03e93ff9f4daa797ed6e38ed64bf6a1f01000000000000000083816133e1576133e0614a90565b5b0492506040810190505b6d04ee2d6d415b85acef81000000008310613428576d04ee2d6d415b85acef8100000000838161341e5761341d614a90565b5b0492506020810190505b662386f26fc10000831061345757662386f26fc10000838161344d5761344c614a90565b5b0492506010810190505b6305f5e1008310613480576305f5e100838161347657613475614a90565b5b0492506008810190505b61271083106134a557612710838161349b5761349a614a90565b5b0492506004810190505b606483106134c857606483816134be576134bd614a90565b5b0492506002810190505b600a83106134d7576001810190505b80915050919050565b60008073ffffffffffffffffffffffffffffffffffffffff168373ffffffffffffffffffffffffffffffffffffffff161415801561359857508273ffffffffffffffffffffffffffffffffffffffff168473ffffffffffffffffffffffffffffffffffffffff16148061355957506135588484611ae6565b5b8061359757508273ffffffffffffffffffffffffffffffffffffffff1661357f83611f26565b73ffffffffffffffffffffffffffffffffffffffff16145b5b90509392505050565b6000604051905090565b600080fd5b600080fd5b6000819050919050565b6135c8816135b5565b81146135d357600080fd5b50565b6000813590506135e5816135bf565b92915050565b600080fd5b600080fd5b6000601f19601f8301169050919050565b7f4e487b7100000000000000000000000000000000000000000000000000000000600052604160045260246000fd5b61363e826135f5565b810181811067ffffffffffffffff8211171561365d5761365c613606565b5b80604052505050565b60006136706135a1565b905061367c8282613635565b919050565b600067ffffffffffffffff82111561369c5761369b613606565b5b6136a5826135f5565b9050602081019050919050565b82818337600083830152505050565b60006136d46136cf84613681565b613666565b9050828152602081018484840111156136f0576136ef6135f0565b5b6136fb8482856136b2565b509392505050565b600082601f830112613718576137176135eb565b5b81356137288482602086016136c1565b91505092915050565b60008060408385031215613748576137476135ab565b5b6000613756858286016135d6565b925050602083013567ffffffffffffffff811115613777576137766135b0565b5b61378385828601613703565b9150509250929050565b60007fffffffff0000000000000000000000000000000000000000000000000000000082169050919050565b6137c28161378d565b81146137cd57600080fd5b50565b6000813590506137df816137b9565b92915050565b6000602082840312156137fb576137fa6135ab565b5b6000613809848285016137d0565b91505092915050565b60008115159050919050565b61382781613812565b82525050565b6000602082019050613842600083018461381e565b92915050565b600081519050919050565b600082825260208201905092915050565b60005b83811015613882578082015181840152602081019050613867565b60008484015250505050565b600061389982613848565b6138a38185613853565b93506138b3818560208601613864565b6138bc816135f5565b840191505092915050565b600060208201905081810360008301526138e1818461388e565b905092915050565b6000602082840312156138ff576138fe6135ab565b5b600061390d848285016135d6565b91505092915050565b600073ffffffffffffffffffffffffffffffffffffffff82169050919050565b600061394182613916565b9050919050565b61395181613936565b82525050565b600060208201905061396c6000830184613948565b92915050565b61397b81613936565b811461398657600080fd5b50565b60008135905061399881613972565b92915050565b600080604083850312156139b5576139b46135ab565b5b60006139c385828601613989565b92505060206139d4858286016135d6565b9150509250929050565b6139e7816135b5565b82525050565b6000602082019050613a0260008301846139de565b92915050565b600080600060608486031215613a2157613a206135ab565b5b6000613a2f86828701613989565b9350506020613a4086828701613989565b9250506040613a51868287016135d6565b9150509250925092565b600067ffffffffffffffff821115613a7657613a75613606565b5b602082029050602081019050919050565b600080fd5b6000613a9f613a9a84613a5b565b613666565b90508083825260208201905060208402830185811115613ac257613ac1613a87565b5b835b81811015613aeb5780613ad78882613989565b845260208401935050602081019050613ac4565b5050509392505050565b600082601f830112613b0a57613b096135eb565b5b8135613b1a848260208601613a8c565b91505092915050565b60008060408385031215613b3a57613b396135ab565b5b600083013567ffffffffffffffff811115613b5857613b576135b0565b5b613b6485828601613af5565b9250506020613b7585828601613989565b9150509250929050565b600060208284031215613b9557613b946135ab565b5b6000613ba384828501613989565b91505092915050565b613bb581613812565b8114613bc057600080fd5b50565b600081359050613bd281613bac565b92915050565b60008060408385031215613bef57613bee6135ab565b5b6000613bfd85828601613989565b9250506020613c0e85828601613bc3565b9150509250929050565b600067ffffffffffffffff821115613c3357613c32613606565b5b613c3c826135f5565b9050602081019050919050565b6000613c5c613c5784613c18565b613666565b905082815260208101848484011115613c7857613c776135f0565b5b613c838482856136b2565b509392505050565b600082601f830112613ca057613c9f6135eb565b5b8135613cb0848260208601613c49565b91505092915050565b60008060008060808587031215613cd357613cd26135ab565b5b6000613ce187828801613989565b9450506020613cf287828801613989565b9350506040613d03878288016135d6565b925050606085013567ffffffffffffffff811115613d2457613d236135b0565b5b613d3087828801613c8b565b91505092959194509250565b60008060408385031215613d5357613d526135ab565b5b6000613d61858286016135d6565b9250506020613d72858286016135d6565b9150509250929050565b60008060408385031215613d9357613d926135ab565b5b6000613da185828601613989565b925050602083013567ffffffffffffffff811115613dc257613dc16135b0565b5b613dce85828601613703565b9150509250929050565b60008060408385031215613def57613dee6135ab565b5b6000613dfd85828601613989565b9250506020613e0e85828601613989565b9150509250929050565b7f596f7520617265206e6f7420746865206f776e6572206f662074686973204e4660008201527f5400000000000000000000000000000000000000000000000000000000000000602082015250565b6000613e74602183613853565b9150613e7f82613e18565b604082019050919050565b60006020820190508181036000830152613ea381613e67565b9050919050565b600081905092915050565b7f7061706572000000000000000000000000000000000000000000000000000000600082015250565b6000613eeb600583613eaa565b9150613ef682613eb5565b600582019050919050565b6000613f0c82613ede565b9150819050919050565b6000613f2182613848565b613f2b8185613eaa565b9350613f3b818560208601613864565b80840191505092915050565b6000613f538284613f16565b915081905092915050565b7f726f636b00000000000000000000000000000000000000000000000000000000600082015250565b6000613f94600483613eaa565b9150613f9f82613f5e565b600482019050919050565b6000613fb582613f87565b9150819050919050565b7f73636973736f7273000000000000000000000000000000000000000000000000600082015250565b6000613ff5600883613eaa565b915061400082613fbf565b600882019050919050565b600061401682613fe8565b9150819050919050565b7f496e76616c69642061747461636b2c206d75737420626520277061706572272c60008201527f2027726f636b272c206f72202773636973736f72732700000000000000000000602082015250565b600061407c603683613853565b915061408782614020565b604082019050919050565b600060208201905081810360008301526140ab8161406f565b9050919050565b7f4e487b7100000000000000000000000000000000000000000000000000000000600052602260045260246000fd5b600060028204905060018216806140f957607f821691505b60208210810361410c5761410b6140b2565b5b50919050565b60008190508160005260206000209050919050565b60006020601f8301049050919050565b600082821b905092915050565b6000600883026141747fffffffffffffffffffffffffffffffffffffffffffffffffffffffffffffffff82614137565b61417e8683614137565b95508019841693508086168417925050509392505050565b6000819050919050565b60006141bb6141b66141b1846135b5565b614196565b6135b5565b9050919050565b6000819050919050565b6141d5836141a0565b6141e96141e1826141c2565b848454614144565b825550505050565b600090565b6141fe6141f1565b6142098184846141cc565b505050565b5b8181101561422d576142226000826141f6565b60018101905061420f565b5050565b601f8211156142725761424381614112565b61424c84614127565b8101602085101561425b578190505b61426f61426785614127565b83018261420e565b50505b505050565b600082821c905092915050565b600061429560001984600802614277565b1980831691505092915050565b60006142ae8383614284565b9150826002028217905092915050565b6142c782613848565b67ffffffffffffffff8111156142e0576142df613606565b5b6142ea82546140e1565b6142f5828285614231565b600060209050601f8311600181146143285760008415614316578287015190505b61432085826142a2565b865550614388565b601f19841661433686614112565b60005b8281101561435e57848901518255600182019150602085019450602081019050614339565b8683101561437b5784890151614377601f891682614284565b8355505b6001600288020188555050505b505050505050565b60006060820190506143a56000830186613948565b6143b260208301856139de565b6143bf6040830184613948565b949350505050565b60006040820190506143dc6000830185613948565b6143e960208301846139de565b9392505050565b7f4f6e6c7920746865206f776e65722063616e20616c6c6f63617465207265776160008201527f7264730000000000000000000000000000000000000000000000000000000000602082015250565b600061444c602383613853565b9150614457826143f0565b604082019050919050565b6000602082019050818103600083015261447b8161443f565b9050919050565b7f43616e6e6f7420726577617264206d6f7265207468616e2033204e4654730000600082015250565b60006144b8601e83613853565b91506144c382614482565b602082019050919050565b600060208201905081810360008301526144e7816144ab565b9050919050565b7f4e487b7100000000000000000000000000000000000000000000000000000000600052603260045260246000fd5b7f496e76616c696420616464726573730000000000000000000000000000000000600082015250565b6000614553600f83613853565b915061455e8261451d565b602082019050919050565b6000602082019050818103600083015261458281614546565b9050919050565b7f4f6e6c7920746865206f776e65722063616e2077697468647261772066756e6460008201527f7300000000000000000000000000000000000000000000000000000000000000602082015250565b60006145e5602183613853565b91506145f082614589565b604082019050919050565b60006020820190508181036000830152614614816145d8565b9050919050565b600081905092915050565b50565b600061463660008361461b565b915061464182614626565b600082019050919050565b600061465782614629565b9150819050919050565b7f4661696c656420746f2077697468647261772066756e64730000000000000000600082015250565b6000614697601883613853565b91506146a282614661565b602082019050919050565b600060208201905081810360008301526146c68161468a565b9050919050565b7f4f6e65206f662074686520746f6b656e7320646f6573206e6f74206578697374600082015250565b6000614703602083613853565b915061470e826146cd565b602082019050919050565b60006020820190508181036000830152614732816146f6565b9050919050565b7f4e487b7100000000000000000000000000000000000000000000000000000000600052601160045260246000fd5b6000614773826135b5565b91507fffffffffffffffffffffffffffffffffffffffffffffffffffffffffffffffff82036147a5576147a4614739565b5b600182019050919050565b60006147bb826135b5565b91506147c6836135b5565b92508282019050808211156147de576147dd614739565b5b92915050565b7f4d6178696d756d206e756d626572206f66204e465473206d696e746564000000600082015250565b600061481a601d83613853565b9150614825826147e4565b602082019050919050565b600060208201905081810360008301526148498161480d565b9050919050565b7f596f75206d7573742073656e6420302e30352045544820746f206d696e740000600082015250565b6000614886601e83613853565b915061489182614850565b602082019050919050565b600060208201905081810360008301526148b581614879565b9050919050565b6000819050919050565b600067ffffffffffffffff82169050919050565b60006148f56148f06148eb846148bc565b614196565b6148c6565b9050919050565b614905816148da565b82525050565b600060208201905061492060008301846148fc565b92915050565b600081519050919050565b600082825260208201905092915050565b600061494d82614926565b6149578185614931565b9350614967818560208601613864565b614970816135f5565b840191505092915050565b60006080820190506149906000830187613948565b61499d6020830186613948565b6149aa60408301856139de565b81810360608301526149bc8184614942565b905095945050505050565b6000815190506149d6816137b9565b92915050565b6000602082840312156149f2576149f16135ab565b5b6000614a00848285016149c7565b91505092915050565b6000614a158285613f16565b9150614a218284613f16565b91508190509392505050565b6000614a38826135b5565b9150614a43836135b5565b9250828203905081811115614a5b57614a5a614739565b5b92915050565b7f4e487b7100000000000000000000000000000000000000000000000000000000600052603160045260246000fd5b7f4e487b7100000000000000000000000000000000000000000000000000000000600052601260045260246000fdfea2646970667358221220fbc70ec02e794fd0907539a37b405b021bd633b50bbb3ea3837ae3f6ff4c09c864736f6c63430008180033",
  "linkReferences": {},
  "deployedLinkReferences": {}
}