{
  "_format": "hh-sol-artifact-1",
  "contractName": "CryptoClashCat",
  "sourceName": "contracts/CryptoClashCat.sol",
  "abi": [
    {
      "inputs": [
        {
          "internalType": "address",
          "name": "sender",
          "type": "address"
        },
        {
          "internalType": "uint256",
          "name": "tokenId",
          "type": "uint256"
        },
        {
          "internalType": "address",
          "name": "owner",
          "type": "address"
        }
      ],
      "name": "ERC721IncorrectOwner",
      "type": "error"
    },
    {
      "inputs": [
        {
          "internalType": "address",
          "name": "operator",
          "type": "address"
        },
        {
          "internalType": "uint256",
          "name": "tokenId",
          "type": "uint256"
        }
      ],
      "name": "ERC721InsufficientApproval",
      "type": "error"
    },
    {
      "inputs": [
        {
          "internalType": "address",
          "name": "approver",
          "type": "address"
        }
      ],
      "name": "ERC721InvalidApprover",
      "type": "error"
    },
    {
      "inputs": [
        {
          "internalType": "address",
          "name": "operator",
          "type": "address"
        }
      ],
      "name": "ERC721InvalidOperator",
      "type": "error"
    },
    {
      "inputs": [
        {
          "internalType": "address",
          "name": "owner",
          "type": "address"
        }
      ],
      "name": "ERC721InvalidOwner",
      "type": "error"
    },
    {
      "inputs": [
        {
          "internalType": "address",
          "name": "receiver",
          "type": "address"
        }
      ],
      "name": "ERC721InvalidReceiver",
      "type": "error"
    },
    {
      "inputs": [
        {
          "internalType": "address",
          "name": "sender",
          "type": "address"
        }
      ],
      "name": "ERC721InvalidSender",
      "type": "error"
    },
    {
      "inputs": [
        {
          "internalType": "uint256",
          "name": "tokenId",
          "type": "uint256"
        }
      ],
      "name": "ERC721NonexistentToken",
      "type": "error"
    },
    {
      "inputs": [],
      "name": "InvalidInitialization",
      "type": "error"
    },
    {
      "inputs": [],
      "name": "NotInitializing",
      "type": "error"
    },
    {
      "anonymous": false,
      "inputs": [
        {
          "indexed": true,
          "internalType": "address",
          "name": "owner",
          "type": "address"
        },
        {
          "indexed": true,
          "internalType": "address",
          "name": "approved",
          "type": "address"
        },
        {
          "indexed": true,
          "internalType": "uint256",
          "name": "tokenId",
          "type": "uint256"
        }
      ],
      "name": "Approval",
      "type": "event"
    },
    {
      "anonymous": false,
      "inputs": [
        {
          "indexed": true,
          "internalType": "address",
          "name": "owner",
          "type": "address"
        },
        {
          "indexed": true,
          "internalType": "address",
          "name": "operator",
          "type": "address"
        },
        {
          "indexed": false,
          "internalType": "bool",
          "name": "approved",
          "type": "bool"
        }
      ],
      "name": "ApprovalForAll",
      "type": "event"
    },
    {
      "anonymous": false,
      "inputs": [
        {
          "indexed": false,
          "internalType": "uint256",
          "name": "_fromTokenId",
          "type": "uint256"
        },
        {
          "indexed": false,
          "internalType": "uint256",
          "name": "_toTokenId",
          "type": "uint256"
        }
      ],
      "name": "BatchMetadataUpdate",
      "type": "event"
    },
    {
      "anonymous": false,
      "inputs": [
        {
          "indexed": false,
          "internalType": "address",
          "name": "owner",
          "type": "address"
        },
        {
          "indexed": false,
          "internalType": "uint256",
          "name": "amount",
          "type": "uint256"
        }
      ],
      "name": "FundsWithdrawn",
      "type": "event"
    },
    {
      "anonymous": false,
      "inputs": [
        {
          "indexed": false,
          "internalType": "uint64",
          "name": "version",
          "type": "uint64"
        }
      ],
      "name": "Initialized",
      "type": "event"
    },
    {
      "anonymous": false,
      "inputs": [
        {
          "indexed": false,
          "internalType": "uint256",
          "name": "_tokenId",
          "type": "uint256"
        }
      ],
      "name": "MetadataUpdate",
      "type": "event"
    },
    {
      "anonymous": false,
      "inputs": [
        {
          "indexed": true,
          "internalType": "address",
          "name": "from",
          "type": "address"
        },
        {
          "indexed": true,
          "internalType": "address",
          "name": "to",
          "type": "address"
        },
        {
          "indexed": true,
          "internalType": "uint256",
          "name": "tokenId",
          "type": "uint256"
        }
      ],
      "name": "Transfer",
      "type": "event"
    },
    {
      "inputs": [
        {
          "internalType": "address",
          "name": "to",
          "type": "address"
        },
        {
          "internalType": "uint256",
          "name": "tokenId",
          "type": "uint256"
        }
      ],
      "name": "approve",
      "outputs": [],
      "stateMutability": "nonpayable",
      "type": "function"
    },
    {
      "inputs": [
        {
          "internalType": "address",
          "name": "owner",
          "type": "address"
        }
      ],
      "name": "balanceOf",
      "outputs": [
        {
          "internalType": "uint256",
          "name": "",
          "type": "uint256"
        }
      ],
      "stateMutability": "view",
      "type": "function"
    },
    {
      "inputs": [
        {
          "internalType": "uint256",
          "name": "tokenId",
          "type": "uint256"
        },
        {
          "internalType": "string",
          "name": "attack",
          "type": "string"
        }
      ],
      "name": "chooseAttack",
      "outputs": [],
      "stateMutability": "nonpayable",
      "type": "function"
    },
    {
      "inputs": [
        {
          "internalType": "uint256",
          "name": "tokenId1",
          "type": "uint256"
        },
        {
          "internalType": "uint256",
          "name": "tokenId2",
          "type": "uint256"
        }
      ],
      "name": "fight",
      "outputs": [],
      "stateMutability": "nonpayable",
      "type": "function"
    },
    {
      "inputs": [],
      "name": "firstPlaceReward",
      "outputs": [
        {
          "internalType": "uint256",
          "name": "",
          "type": "uint256"
        }
      ],
      "stateMutability": "view",
      "type": "function"
    },
    {
      "inputs": [
        {
          "internalType": "uint256",
          "name": "tokenId",
          "type": "uint256"
        }
      ],
      "name": "getApproved",
      "outputs": [
        {
          "internalType": "address",
          "name": "",
          "type": "address"
        }
      ],
      "stateMutability": "view",
      "type": "function"
    },
    {
      "inputs": [],
      "name": "getNextTokenId",
      "outputs": [
        {
          "internalType": "uint256",
          "name": "",
          "type": "uint256"
        }
      ],
      "stateMutability": "view",
      "type": "function"
    },
    {
      "inputs": [
        {
          "internalType": "uint256",
          "name": "tokenId",
          "type": "uint256"
        }
      ],
      "name": "getWins",
      "outputs": [
        {
          "internalType": "uint256",
          "name": "",
          "type": "uint256"
        }
      ],
      "stateMutability": "view",
      "type": "function"
    },
    {
      "inputs": [
        {
          "internalType": "uint256",
          "name": "maxNFTs",
          "type": "uint256"
        }
      ],
      "name": "initialize",
      "outputs": [],
      "stateMutability": "nonpayable",
      "type": "function"
    },
    {
      "inputs": [
        {
          "internalType": "address",
          "name": "owner",
          "type": "address"
        },
        {
          "internalType": "address",
          "name": "operator",
          "type": "address"
        }
      ],
      "name": "isApprovedForAll",
      "outputs": [
        {
          "internalType": "bool",
          "name": "",
          "type": "bool"
        }
      ],
      "stateMutability": "view",
      "type": "function"
    },
    {
      "inputs": [],
      "name": "name",
      "outputs": [
        {
          "internalType": "string",
          "name": "",
          "type": "string"
        }
      ],
      "stateMutability": "view",
      "type": "function"
    },
    {
      "inputs": [
        {
          "internalType": "uint256",
          "name": "tokenId",
          "type": "uint256"
        }
      ],
      "name": "ownerOf",
      "outputs": [
        {
          "internalType": "address",
          "name": "",
          "type": "address"
        }
      ],
      "stateMutability": "view",
      "type": "function"
    },
    {
      "inputs": [
        {
          "internalType": "address[]",
          "name": "topNFTs",
          "type": "address[]"
        },
        {
          "internalType": "address",
          "name": "cryptoClashContract",
          "type": "address"
        }
      ],
      "name": "rewardTopNFTs",
      "outputs": [],
      "stateMutability": "nonpayable",
      "type": "function"
    },
    {
      "inputs": [
        {
          "internalType": "address",
          "name": "to",
          "type": "address"
        },
        {
          "internalType": "string",
          "name": "uri",
          "type": "string"
        }
      ],
      "name": "safeMint",
      "outputs": [],
      "stateMutability": "payable",
      "type": "function"
    },
    {
      "inputs": [
        {
          "internalType": "address",
          "name": "from",
          "type": "address"
        },
        {
          "internalType": "address",
          "name": "to",
          "type": "address"
        },
        {
          "internalType": "uint256",
          "name": "tokenId",
          "type": "uint256"
        }
      ],
      "name": "safeTransferFrom",
      "outputs": [],
      "stateMutability": "nonpayable",
      "type": "function"
    },
    {
      "inputs": [
        {
          "internalType": "address",
          "name": "from",
          "type": "address"
        },
        {
          "internalType": "address",
          "name": "to",
          "type": "address"
        },
        {
          "internalType": "uint256",
          "name": "tokenId",
          "type": "uint256"
        },
        {
          "internalType": "bytes",
          "name": "data",
          "type": "bytes"
        }
      ],
      "name": "safeTransferFrom",
      "outputs": [],
      "stateMutability": "nonpayable",
      "type": "function"
    },
    {
      "inputs": [],
      "name": "secondPlaceReward",
      "outputs": [
        {
          "internalType": "uint256",
          "name": "",
          "type": "uint256"
        }
      ],
      "stateMutability": "view",
      "type": "function"
    },
    {
      "inputs": [
        {
          "internalType": "address",
          "name": "operator",
          "type": "address"
        },
        {
          "internalType": "bool",
          "name": "approved",
          "type": "bool"
        }
      ],
      "name": "setApprovalForAll",
      "outputs": [],
      "stateMutability": "nonpayable",
      "type": "function"
    },
    {
      "inputs": [
        {
          "internalType": "bytes4",
          "name": "interfaceId",
          "type": "bytes4"
        }
      ],
      "name": "supportsInterface",
      "outputs": [
        {
          "internalType": "bool",
          "name": "",
          "type": "bool"
        }
      ],
      "stateMutability": "view",
      "type": "function"
    },
    {
      "inputs": [],
      "name": "symbol",
      "outputs": [
        {
          "internalType": "string",
          "name": "",
          "type": "string"
        }
      ],
      "stateMutability": "view",
      "type": "function"
    },
    {
      "inputs": [],
      "name": "thirdPlaceReward",
      "outputs": [
        {
          "internalType": "uint256",
          "name": "",
          "type": "uint256"
        }
      ],
      "stateMutability": "view",
      "type": "function"
    },
    {
      "inputs": [
        {
          "internalType": "uint256",
          "name": "tokenId",
          "type": "uint256"
        }
      ],
      "name": "tokenURI",
      "outputs": [
        {
          "internalType": "string",
          "name": "",
          "type": "string"
        }
      ],
      "stateMutability": "view",
      "type": "function"
    },
    {
      "inputs": [
        {
          "internalType": "address",
          "name": "from",
          "type": "address"
        },
        {
          "internalType": "address",
          "name": "to",
          "type": "address"
        },
        {
          "internalType": "uint256",
          "name": "tokenId",
          "type": "uint256"
        }
      ],
      "name": "transferFrom",
      "outputs": [],
      "stateMutability": "nonpayable",
      "type": "function"
    },
    {
      "inputs": [],
      "name": "withdraw",
      "outputs": [],
      "stateMutability": "nonpayable",
      "type": "function"
    },
    {
      "stateMutability": "payable",
      "type": "receive"
    }
  ],
  "bytecode": "0x608060405234801561001057600080fd5b506142dd806100206000396000f3fe60806040526004361061014e5760003560e01c80637a555e9e116100b6578063c87b56dd1161006f578063c87b56dd14610498578063ca39e5ef146104d5578063caa0f92a146104fe578063d204c45e14610529578063e985e9c514610545578063fe4b84df1461058257610155565b80637a555e9e146103885780637c887430146103b357806395d89b41146103de578063a22cb46514610409578063aade6e4214610432578063b88d4fde1461046f57610155565b806323b872dd1161010857806323b872dd1461027c5780632f913171146102a55780633ccfd60b146102ce57806342842e0e146102e55780636352211e1461030e57806370a082311461034b57610155565b80625524c71461015a57806301ffc9a71461018357806306fdde03146101c0578063081812fc146101eb578063095ea7b31461022857806319088f1f1461025157610155565b3661015557005b600080fd5b34801561016657600080fd5b50610181600480360381019061017c9190612f7c565b6105ab565b005b34801561018f57600080fd5b506101aa60048036038101906101a59190613030565b61077c565b6040516101b79190613078565b60405180910390f35b3480156101cc57600080fd5b506101d56107dd565b6040516101e29190613112565b60405180910390f35b3480156101f757600080fd5b50610212600480360381019061020d9190613134565b61087e565b60405161021f91906131a2565b60405180910390f35b34801561023457600080fd5b5061024f600480360381019061024a91906131e9565b61089a565b005b34801561025d57600080fd5b506102666108b0565b6040516102739190613238565b60405180910390f35b34801561028857600080fd5b506102a3600480360381019061029e9190613253565b6108b6565b005b3480156102b157600080fd5b506102cc60048036038101906102c7919061336e565b6109b8565b005b3480156102da57600080fd5b506102e3610df7565b005b3480156102f157600080fd5b5061030c60048036038101906103079190613253565b610fb9565b005b34801561031a57600080fd5b5061033560048036038101906103309190613134565b610fd9565b60405161034291906131a2565b60405180910390f35b34801561035757600080fd5b50610372600480360381019061036d91906133ca565b610feb565b60405161037f9190613238565b60405180910390f35b34801561039457600080fd5b5061039d6110b4565b6040516103aa9190613238565b60405180910390f35b3480156103bf57600080fd5b506103c86110ba565b6040516103d59190613238565b60405180910390f35b3480156103ea57600080fd5b506103f36110c0565b6040516104009190613112565b60405180910390f35b34801561041557600080fd5b50610430600480360381019061042b9190613423565b611161565b005b34801561043e57600080fd5b5061045960048036038101906104549190613134565b611177565b6040516104669190613238565b60405180910390f35b34801561047b57600080fd5b5061049660048036038101906104919190613504565b611196565b005b3480156104a457600080fd5b506104bf60048036038101906104ba9190613134565b6111b3565b6040516104cc9190613112565b60405180910390f35b3480156104e157600080fd5b506104fc60048036038101906104f79190613587565b6112d7565b005b34801561050a57600080fd5b50610513611929565b6040516105209190613238565b60405180910390f35b610543600480360381019061053e91906135c7565b61193f565b005b34801561055157600080fd5b5061056c60048036038101906105679190613623565b6119fb565b6040516105799190613078565b60405180910390f35b34801561058e57600080fd5b506105a960048036038101906105a49190613134565b611a9d565b005b3373ffffffffffffffffffffffffffffffffffffffff166105cb83610fd9565b73ffffffffffffffffffffffffffffffffffffffff1614610621576040517f08c379a0000000000000000000000000000000000000000000000000000000008152600401610618906136d5565b60405180910390fd5b6040516020016106309061374c565b60405160208183030381529060405280519060200120816040516020016106579190613792565b6040516020818303038152906040528051906020012014806106c25750604051602001610683906137f5565b60405160208183030381529060405280519060200120816040516020016106aa9190613792565b60405160208183030381529060405280519060200120145b8061071657506040516020016106d790613856565b60405160208183030381529060405280519060200120816040516020016106fe9190613792565b60405160208183030381529060405280519060200120145b610755576040517f08c379a000000000000000000000000000000000000000000000000000000000815260040161074c906138dd565b60405180910390fd5b8060008084815260200190815260200160002060000190816107779190613b09565b505050565b6000634906490660e01b7bffffffffffffffffffffffffffffffffffffffffffffffffffffffff1916827bffffffffffffffffffffffffffffffffffffffffffffffffffffffff191614806107d657506107d582611d09565b5b9050919050565b606060006107e9611deb565b90508060000180546107fa9061392c565b80601f01602080910402602001604051908101604052809291908181526020018280546108269061392c565b80156108735780601f1061084857610100808354040283529160200191610873565b820191906000526020600020905b81548152906001019060200180831161085657829003601f168201915b505050505091505090565b600061088982611e13565b5061089382611e9b565b9050919050565b6108ac82826108a7611ee6565b611eee565b5050565b60045481565b600073ffffffffffffffffffffffffffffffffffffffff168273ffffffffffffffffffffffffffffffffffffffff16036109285760006040517f64a0ae9200000000000000000000000000000000000000000000000000000000815260040161091f91906131a2565b60405180910390fd5b600061093c8383610937611ee6565b611f00565b90508373ffffffffffffffffffffffffffffffffffffffff168173ffffffffffffffffffffffffffffffffffffffff16146109b2578382826040517f64283d7b0000000000000000000000000000000000000000000000000000000081526004016109a993929190613bdb565b60405180910390fd5b50505050565b600160009054906101000a900473ffffffffffffffffffffffffffffffffffffffff1673ffffffffffffffffffffffffffffffffffffffff163373ffffffffffffffffffffffffffffffffffffffff1614610a48576040517f08c379a0000000000000000000000000000000000000000000000000000000008152600401610a3f90613c84565b60405180910390fd5b600382511115610a8d576040517f08c379a0000000000000000000000000000000000000000000000000000000008152600401610a8490613cf0565b60405180910390fd5b60008190506000600367ffffffffffffffff811115610aaf57610aae612e51565b5b604051908082528060200260200182016040528015610add5781602001602082028036833780820191505090505b50905060045481600081518110610af757610af6613d10565b5b60200260200101818152505060055481600181518110610b1a57610b19613d10565b5b60200260200101818152505060065481600281518110610b3d57610b3c613d10565b5b60200260200101818152505060005b8451811015610c8c57600073ffffffffffffffffffffffffffffffffffffffff16858281518110610b8057610b7f613d10565b5b602002602001015173ffffffffffffffffffffffffffffffffffffffff1603610bde576040517f08c379a0000000000000000000000000000000000000000000000000000000008152600401610bd590613d8b565b60405180910390fd5b8273ffffffffffffffffffffffffffffffffffffffff16637d4b7195868381518110610c0d57610c0c613d10565b5b6020026020010151848481518110610c2857610c27613d10565b5b60200260200101516040518363ffffffff1660e01b8152600401610c4d929190613dab565b600060405180830381600087803b158015610c6757600080fd5b505af1158015610c7b573d6000803e3d6000fd5b505050508080600101915050610b4c565b5060005b8451811015610df057600073ffffffffffffffffffffffffffffffffffffffff16858281518110610cc457610cc3613d10565b5b602002602001015173ffffffffffffffffffffffffffffffffffffffff1603610d22576040517f08c379a0000000000000000000000000000000000000000000000000000000008152600401610d1990613d8b565b60405180910390fd5b6000858281518110610d3757610d36613d10565b5b602002602001015190508073ffffffffffffffffffffffffffffffffffffffff166340c10f19878481518110610d7057610d6f613d10565b5b6020026020010151858581518110610d8b57610d8a613d10565b5b60200260200101516040518363ffffffff1660e01b8152600401610db0929190613dab565b600060405180830381600087803b158015610dca57600080fd5b505af1158015610dde573d6000803e3d6000fd5b50505050508080600101915050610c90565b5050505050565b600160009054906101000a900473ffffffffffffffffffffffffffffffffffffffff1673ffffffffffffffffffffffffffffffffffffffff163373ffffffffffffffffffffffffffffffffffffffff1614610e87576040517f08c379a0000000000000000000000000000000000000000000000000000000008152600401610e7e90613e46565b60405180910390fd5b60004790506000600160009054906101000a900473ffffffffffffffffffffffffffffffffffffffff1673ffffffffffffffffffffffffffffffffffffffff1682604051610ed490613e97565b60006040518083038185875af1925050503d8060008114610f11576040519150601f19603f3d011682016040523d82523d6000602084013e610f16565b606091505b5050905080610f5a576040517f08c379a0000000000000000000000000000000000000000000000000000000008152600401610f5190613ef8565b60405180910390fd5b7feaff4b37086828766ad3268786972c0cd24259d4c87a80f9d3963a3c3d999b0d600160009054906101000a900473ffffffffffffffffffffffffffffffffffffffff1683604051610fad929190613dab565b60405180910390a15050565b610fd483838360405180602001604052806000815250611196565b505050565b6000610fe482611e13565b9050919050565b600080610ff6611deb565b9050600073ffffffffffffffffffffffffffffffffffffffff168373ffffffffffffffffffffffffffffffffffffffff160361106a5760006040517f89c62b6400000000000000000000000000000000000000000000000000000000815260040161106191906131a2565b60405180910390fd5b8060030160008473ffffffffffffffffffffffffffffffffffffffff1673ffffffffffffffffffffffffffffffffffffffff16815260200190815260200160002054915050919050565b60065481565b60055481565b606060006110cc611deb565b90508060010180546110dd9061392c565b80601f01602080910402602001604051908101604052809291908181526020018280546111099061392c565b80156111565780601f1061112b57610100808354040283529160200191611156565b820191906000526020600020905b81548152906001019060200180831161113957829003601f168201915b505050505091505090565b61117361116c611ee6565b838361212d565b5050565b6000806000838152602001908152602001600020600101549050919050565b6111a18484846108b6565b6111ad848484846122ab565b50505050565b606060006111bf612462565b90506111ca83611e13565b50600081600001600085815260200190815260200160002080546111ed9061392c565b80601f01602080910402602001604051908101604052809291908181526020018280546112199061392c565b80156112665780601f1061123b57610100808354040283529160200191611266565b820191906000526020600020905b81548152906001019060200180831161124957829003601f168201915b50505050509050600061127761248a565b9050600081510361128d578193505050506112d2565b6000825111156112c35780826040516020016112aa929190613f18565b60405160208183030381529060405293505050506112d2565b6112cc856124a1565b93505050505b919050565b600073ffffffffffffffffffffffffffffffffffffffff166112f883610fd9565b73ffffffffffffffffffffffffffffffffffffffff16141580156113515750600073ffffffffffffffffffffffffffffffffffffffff1661133882610fd9565b73ffffffffffffffffffffffffffffffffffffffff1614155b611390576040517f08c379a000000000000000000000000000000000000000000000000000000000815260040161138790613f88565b60405180910390fd5b600080600084815260200190815260200160002060000180546113b29061392c565b80601f01602080910402602001604051908101604052809291908181526020018280546113de9061392c565b801561142b5780601f106114005761010080835404028352916020019161142b565b820191906000526020600020905b81548152906001019060200180831161140e57829003601f168201915b50505050509050600080600084815260200190815260200160002060000180546114549061392c565b80601f01602080910402602001604051908101604052809291908181526020018280546114809061392c565b80156114cd5780601f106114a2576101008083540402835291602001916114cd565b820191906000526020600020905b8154815290600101906020018083116114b057829003601f168201915b505050505090506040516020016114e39061374c565b604051602081830303815290604052805190602001208260405160200161150a9190613792565b604051602081830303815290604052805190602001201480156115765750604051602001611537906137f5565b604051602081830303815290604052805190602001208160405160200161155e9190613792565b60405160208183030381529060405280519060200120145b8061161f575060405160200161158b906137f5565b60405160208183030381529060405280519060200120826040516020016115b29190613792565b6040516020818303038152906040528051906020012014801561161e57506040516020016115df90613856565b60405160208183030381529060405280519060200120816040516020016116069190613792565b60405160208183030381529060405280519060200120145b5b806116c8575060405160200161163490613856565b604051602081830303815290604052805190602001208260405160200161165b9190613792565b604051602081830303815290604052805190602001201480156116c757506040516020016116889061374c565b60405160208183030381529060405280519060200120816040516020016116af9190613792565b60405160208183030381529060405280519060200120145b5b156116fd5760008085815260200190815260200160002060010160008154809291906116f390613fd7565b9190505550611923565b60405160200161170c9061374c565b60405160208183030381529060405280519060200120816040516020016117339190613792565b6040516020818303038152906040528051906020012014801561179f5750604051602001611760906137f5565b60405160208183030381529060405280519060200120826040516020016117879190613792565b60405160208183030381529060405280519060200120145b8061184857506040516020016117b4906137f5565b60405160208183030381529060405280519060200120816040516020016117db9190613792565b60405160208183030381529060405280519060200120148015611847575060405160200161180890613856565b604051602081830303815290604052805190602001208260405160200161182f9190613792565b60405160208183030381529060405280519060200120145b5b806118f1575060405160200161185d90613856565b60405160208183030381529060405280519060200120816040516020016118849190613792565b604051602081830303815290604052805190602001201480156118f057506040516020016118b19061374c565b60405160208183030381529060405280519060200120826040516020016118d89190613792565b60405160208183030381529060405280519060200120145b5b1561192257600080848152602001908152602001600020600101600081548092919061191c90613fd7565b91905055505b5b50505050565b6000600160025461193a919061401f565b905090565b60035460025410611985576040517f08c379a000000000000000000000000000000000000000000000000000000000815260040161197c9061409f565b60405180910390fd5b66b1a2bc2ec5000034146119ce576040517f08c379a00000000000000000000000000000000000000000000000000000000081526004016119c59061410b565b60405180910390fd5b60006119d861250a565b90506119e48382612520565b6119ee818361253e565b6119f66125a9565b505050565b600080611a06611deb565b90508060050160008573ffffffffffffffffffffffffffffffffffffffff1673ffffffffffffffffffffffffffffffffffffffff16815260200190815260200160002060008473ffffffffffffffffffffffffffffffffffffffff1673ffffffffffffffffffffffffffffffffffffffff16815260200190815260200160002060009054906101000a900460ff1691505092915050565b6000611aa76125c3565b905060008160000160089054906101000a900460ff1615905060008260000160009054906101000a900467ffffffffffffffff1690506000808267ffffffffffffffff16148015611af55750825b9050600060018367ffffffffffffffff16148015611b2a575060003073ffffffffffffffffffffffffffffffffffffffff163b145b905081158015611b38575080155b15611b6f576040517ff92ee8a900000000000000000000000000000000000000000000000000000000815260040160405180910390fd5b60018560000160006101000a81548167ffffffffffffffff021916908367ffffffffffffffff1602179055508315611bbf5760018560000160086101000a81548160ff0219169083151502179055505b611c336040518060400160405280600e81526020017f43727970746f436c6173684361740000000000000000000000000000000000008152506040518060400160405280600381526020017f43434300000000000000000000000000000000000000000000000000000000008152506125eb565b611c3b612601565b33600160006101000a81548173ffffffffffffffffffffffffffffffffffffffff021916908373ffffffffffffffffffffffffffffffffffffffff1602179055508560038190555060006002819055506103e86004819055506101f460058190555060fa6006819055508315611d015760008560000160086101000a81548160ff0219169083151502179055507fc7f505b2f371ae2175ee4913f4499e1f2633a7b5936321eed1cdaeb6115181d26001604051611cf8919061417a565b60405180910390a15b505050505050565b60007f80ac58cd000000000000000000000000000000000000000000000000000000007bffffffffffffffffffffffffffffffffffffffffffffffffffffffff1916827bffffffffffffffffffffffffffffffffffffffffffffffffffffffff19161480611dd457507f5b5e139f000000000000000000000000000000000000000000000000000000007bffffffffffffffffffffffffffffffffffffffffffffffffffffffff1916827bffffffffffffffffffffffffffffffffffffffffffffffffffffffff1916145b80611de45750611de38261260b565b5b9050919050565b60007f80bb2b638cc20bc4d0a60d66940f3ab4a00c1d7b313497ca82fb0b4ab0079300905090565b600080611e1f83612675565b9050600073ffffffffffffffffffffffffffffffffffffffff168173ffffffffffffffffffffffffffffffffffffffff1603611e9257826040517f7e273289000000000000000000000000000000000000000000000000000000008152600401611e899190613238565b60405180910390fd5b80915050919050565b600080611ea6611deb565b905080600401600084815260200190815260200160002060009054906101000a900473ffffffffffffffffffffffffffffffffffffffff16915050919050565b600033905090565b611efb83838360016126c0565b505050565b600080611f0b611deb565b90506000611f1885612675565b9050600073ffffffffffffffffffffffffffffffffffffffff168473ffffffffffffffffffffffffffffffffffffffff1614611f5a57611f59818587612894565b5b600073ffffffffffffffffffffffffffffffffffffffff168173ffffffffffffffffffffffffffffffffffffffff1614611fed57611f9c6000866000806126c0565b60018260030160008373ffffffffffffffffffffffffffffffffffffffff1673ffffffffffffffffffffffffffffffffffffffff168152602001908152602001600020600082825403925050819055505b600073ffffffffffffffffffffffffffffffffffffffff168673ffffffffffffffffffffffffffffffffffffffff16146120725760018260030160008873ffffffffffffffffffffffffffffffffffffffff1673ffffffffffffffffffffffffffffffffffffffff168152602001908152602001600020600082825401925050819055505b8582600201600087815260200190815260200160002060006101000a81548173ffffffffffffffffffffffffffffffffffffffff021916908373ffffffffffffffffffffffffffffffffffffffff160217905550848673ffffffffffffffffffffffffffffffffffffffff168273ffffffffffffffffffffffffffffffffffffffff167fddf252ad1be2c89b69c2b068fc378daa952ba7f163c4a11628f55a4df523b3ef60405160405180910390a480925050509392505050565b6000612137611deb565b9050600073ffffffffffffffffffffffffffffffffffffffff168373ffffffffffffffffffffffffffffffffffffffff16036121aa57826040517f5b08ba180000000000000000000000000000000000000000000000000000000081526004016121a191906131a2565b60405180910390fd5b818160050160008673ffffffffffffffffffffffffffffffffffffffff1673ffffffffffffffffffffffffffffffffffffffff16815260200190815260200160002060008573ffffffffffffffffffffffffffffffffffffffff1673ffffffffffffffffffffffffffffffffffffffff16815260200190815260200160002060006101000a81548160ff0219169083151502179055508273ffffffffffffffffffffffffffffffffffffffff168473ffffffffffffffffffffffffffffffffffffffff167f17307eab39ab6107e8899845ad3d59bd9653f200f220920489ca2b5937696c318460405161229d9190613078565b60405180910390a350505050565b60008373ffffffffffffffffffffffffffffffffffffffff163b111561245c578273ffffffffffffffffffffffffffffffffffffffff1663150b7a026122ef611ee6565b8685856040518563ffffffff1660e01b815260040161231194939291906141ea565b6020604051808303816000875af192505050801561234d57506040513d601f19601f8201168201806040525081019061234a919061424b565b60015b6123d1573d806000811461237d576040519150601f19603f3d011682016040523d82523d6000602084013e612382565b606091505b5060008151036123c957836040517f64a0ae920000000000000000000000000000000000000000000000000000000081526004016123c091906131a2565b60405180910390fd5b805181602001fd5b63150b7a0260e01b7bffffffffffffffffffffffffffffffffffffffffffffffffffffffff1916817bffffffffffffffffffffffffffffffffffffffffffffffffffffffff19161461245a57836040517f64a0ae9200000000000000000000000000000000000000000000000000000000815260040161245191906131a2565b60405180910390fd5b505b50505050565b60007f0542a41881ee128a365a727b282c86fa859579490b9bb45aab8503648c8e7900905090565b606060405180602001604052806000815250905090565b60606124ac82611e13565b5060006124b761248a565b905060008151116124d75760405180602001604052806000815250612502565b806124e184612958565b6040516020016124f2929190613f18565b6040516020818303038152906040525b915050919050565b6000600160025461251b919061401f565b905090565b61253a828260405180602001604052806000815250612a26565b5050565b6000612548612462565b905081816000016000858152602001908152602001600020908161256c9190613b09565b507ff8e1a15aba9398e019f0b49df1a4fde98ee17ae345cb5f6b5e2c27f5033e8ce78360405161259c9190613238565b60405180910390a1505050565b600260008154809291906125bc90613fd7565b9190505550565b60007ff0c57e16840df040f15088dc2f81fe391c3923bec73e23a9662efc9c229c6a00905090565b6125f3612a42565b6125fd8282612a82565b5050565b612609612a42565b565b60007f01ffc9a7000000000000000000000000000000000000000000000000000000007bffffffffffffffffffffffffffffffffffffffffffffffffffffffff1916827bffffffffffffffffffffffffffffffffffffffffffffffffffffffff1916149050919050565b600080612680611deb565b905080600201600084815260200190815260200160002060009054906101000a900473ffffffffffffffffffffffffffffffffffffffff16915050919050565b60006126ca611deb565b905081806127055750600073ffffffffffffffffffffffffffffffffffffffff168373ffffffffffffffffffffffffffffffffffffffff1614155b1561283957600061271585611e13565b9050600073ffffffffffffffffffffffffffffffffffffffff168473ffffffffffffffffffffffffffffffffffffffff161415801561278057508373ffffffffffffffffffffffffffffffffffffffff168173ffffffffffffffffffffffffffffffffffffffff1614155b8015612793575061279181856119fb565b155b156127d557836040517fa9fbf51f0000000000000000000000000000000000000000000000000000000081526004016127cc91906131a2565b60405180910390fd5b821561283757848673ffffffffffffffffffffffffffffffffffffffff168273ffffffffffffffffffffffffffffffffffffffff167f8c5be1e5ebec7d5bd14f71427d1e84f3dd0314c0f7b2291e5b200ac8c7c3b92560405160405180910390a45b505b8481600401600086815260200190815260200160002060006101000a81548173ffffffffffffffffffffffffffffffffffffffff021916908373ffffffffffffffffffffffffffffffffffffffff1602179055505050505050565b61289f838383612abf565b61295357600073ffffffffffffffffffffffffffffffffffffffff168373ffffffffffffffffffffffffffffffffffffffff160361291457806040517f7e27328900000000000000000000000000000000000000000000000000000000815260040161290b9190613238565b60405180910390fd5b81816040517f177e802f00000000000000000000000000000000000000000000000000000000815260040161294a929190613dab565b60405180910390fd5b505050565b60606000600161296784612b80565b01905060008167ffffffffffffffff81111561298657612985612e51565b5b6040519080825280601f01601f1916602001820160405280156129b85781602001600182028036833780820191505090505b509050600082602001820190505b600115612a1b578080600190039150507f3031323334353637383961626364656600000000000000000000000000000000600a86061a8153600a8581612a0f57612a0e614278565b5b049450600085036129c6575b819350505050919050565b612a308383612cd3565b612a3d60008484846122ab565b505050565b612a4a612dcc565b612a80576040517fd7e6bcf800000000000000000000000000000000000000000000000000000000815260040160405180910390fd5b565b612a8a612a42565b6000612a94611deb565b905082816000019081612aa79190613b09565b5081816001019081612ab99190613b09565b50505050565b60008073ffffffffffffffffffffffffffffffffffffffff168373ffffffffffffffffffffffffffffffffffffffff1614158015612b7757508273ffffffffffffffffffffffffffffffffffffffff168473ffffffffffffffffffffffffffffffffffffffff161480612b385750612b3784846119fb565b5b80612b7657508273ffffffffffffffffffffffffffffffffffffffff16612b5e83611e9b565b73ffffffffffffffffffffffffffffffffffffffff16145b5b90509392505050565b600080600090507a184f03e93ff9f4daa797ed6e38ed64bf6a1f0100000000000000008310612bde577a184f03e93ff9f4daa797ed6e38ed64bf6a1f0100000000000000008381612bd457612bd3614278565b5b0492506040810190505b6d04ee2d6d415b85acef81000000008310612c1b576d04ee2d6d415b85acef81000000008381612c1157612c10614278565b5b0492506020810190505b662386f26fc100008310612c4a57662386f26fc100008381612c4057612c3f614278565b5b0492506010810190505b6305f5e1008310612c73576305f5e1008381612c6957612c68614278565b5b0492506008810190505b6127108310612c98576127108381612c8e57612c8d614278565b5b0492506004810190505b60648310612cbb5760648381612cb157612cb0614278565b5b0492506002810190505b600a8310612cca576001810190505b80915050919050565b600073ffffffffffffffffffffffffffffffffffffffff168273ffffffffffffffffffffffffffffffffffffffff1603612d455760006040517f64a0ae92000000000000000000000000000000000000000000000000000000008152600401612d3c91906131a2565b60405180910390fd5b6000612d5383836000611f00565b9050600073ffffffffffffffffffffffffffffffffffffffff168173ffffffffffffffffffffffffffffffffffffffff1614612dc75760006040517f73c6ac6e000000000000000000000000000000000000000000000000000000008152600401612dbe91906131a2565b60405180910390fd5b505050565b6000612dd66125c3565b60000160089054906101000a900460ff16905090565b6000604051905090565b600080fd5b600080fd5b6000819050919050565b612e1381612e00565b8114612e1e57600080fd5b50565b600081359050612e3081612e0a565b92915050565b600080fd5b600080fd5b6000601f19601f8301169050919050565b7f4e487b7100000000000000000000000000000000000000000000000000000000600052604160045260246000fd5b612e8982612e40565b810181811067ffffffffffffffff82111715612ea857612ea7612e51565b5b80604052505050565b6000612ebb612dec565b9050612ec78282612e80565b919050565b600067ffffffffffffffff821115612ee757612ee6612e51565b5b612ef082612e40565b9050602081019050919050565b82818337600083830152505050565b6000612f1f612f1a84612ecc565b612eb1565b905082815260208101848484011115612f3b57612f3a612e3b565b5b612f46848285612efd565b509392505050565b600082601f830112612f6357612f62612e36565b5b8135612f73848260208601612f0c565b91505092915050565b60008060408385031215612f9357612f92612df6565b5b6000612fa185828601612e21565b925050602083013567ffffffffffffffff811115612fc257612fc1612dfb565b5b612fce85828601612f4e565b9150509250929050565b60007fffffffff0000000000000000000000000000000000000000000000000000000082169050919050565b61300d81612fd8565b811461301857600080fd5b50565b60008135905061302a81613004565b92915050565b60006020828403121561304657613045612df6565b5b60006130548482850161301b565b91505092915050565b60008115159050919050565b6130728161305d565b82525050565b600060208201905061308d6000830184613069565b92915050565b600081519050919050565b600082825260208201905092915050565b60005b838110156130cd5780820151818401526020810190506130b2565b60008484015250505050565b60006130e482613093565b6130ee818561309e565b93506130fe8185602086016130af565b61310781612e40565b840191505092915050565b6000602082019050818103600083015261312c81846130d9565b905092915050565b60006020828403121561314a57613149612df6565b5b600061315884828501612e21565b91505092915050565b600073ffffffffffffffffffffffffffffffffffffffff82169050919050565b600061318c82613161565b9050919050565b61319c81613181565b82525050565b60006020820190506131b76000830184613193565b92915050565b6131c681613181565b81146131d157600080fd5b50565b6000813590506131e3816131bd565b92915050565b60008060408385031215613200576131ff612df6565b5b600061320e858286016131d4565b925050602061321f85828601612e21565b9150509250929050565b61323281612e00565b82525050565b600060208201905061324d6000830184613229565b92915050565b60008060006060848603121561326c5761326b612df6565b5b600061327a868287016131d4565b935050602061328b868287016131d4565b925050604061329c86828701612e21565b9150509250925092565b600067ffffffffffffffff8211156132c1576132c0612e51565b5b602082029050602081019050919050565b600080fd5b60006132ea6132e5846132a6565b612eb1565b9050808382526020820190506020840283018581111561330d5761330c6132d2565b5b835b81811015613336578061332288826131d4565b84526020840193505060208101905061330f565b5050509392505050565b600082601f83011261335557613354612e36565b5b81356133658482602086016132d7565b91505092915050565b6000806040838503121561338557613384612df6565b5b600083013567ffffffffffffffff8111156133a3576133a2612dfb565b5b6133af85828601613340565b92505060206133c0858286016131d4565b9150509250929050565b6000602082840312156133e0576133df612df6565b5b60006133ee848285016131d4565b91505092915050565b6134008161305d565b811461340b57600080fd5b50565b60008135905061341d816133f7565b92915050565b6000806040838503121561343a57613439612df6565b5b6000613448858286016131d4565b92505060206134598582860161340e565b9150509250929050565b600067ffffffffffffffff82111561347e5761347d612e51565b5b61348782612e40565b9050602081019050919050565b60006134a76134a284613463565b612eb1565b9050828152602081018484840111156134c3576134c2612e3b565b5b6134ce848285612efd565b509392505050565b600082601f8301126134eb576134ea612e36565b5b81356134fb848260208601613494565b91505092915050565b6000806000806080858703121561351e5761351d612df6565b5b600061352c878288016131d4565b945050602061353d878288016131d4565b935050604061354e87828801612e21565b925050606085013567ffffffffffffffff81111561356f5761356e612dfb565b5b61357b878288016134d6565b91505092959194509250565b6000806040838503121561359e5761359d612df6565b5b60006135ac85828601612e21565b92505060206135bd85828601612e21565b9150509250929050565b600080604083850312156135de576135dd612df6565b5b60006135ec858286016131d4565b925050602083013567ffffffffffffffff81111561360d5761360c612dfb565b5b61361985828601612f4e565b9150509250929050565b6000806040838503121561363a57613639612df6565b5b6000613648858286016131d4565b9250506020613659858286016131d4565b9150509250929050565b7f596f7520617265206e6f7420746865206f776e6572206f662074686973204e4660008201527f5400000000000000000000000000000000000000000000000000000000000000602082015250565b60006136bf60218361309e565b91506136ca82613663565b604082019050919050565b600060208201905081810360008301526136ee816136b2565b9050919050565b600081905092915050565b7f7061706572000000000000000000000000000000000000000000000000000000600082015250565b60006137366005836136f5565b915061374182613700565b600582019050919050565b600061375782613729565b9150819050919050565b600061376c82613093565b61377681856136f5565b93506137868185602086016130af565b80840191505092915050565b600061379e8284613761565b915081905092915050565b7f726f636b00000000000000000000000000000000000000000000000000000000600082015250565b60006137df6004836136f5565b91506137ea826137a9565b600482019050919050565b6000613800826137d2565b9150819050919050565b7f73636973736f7273000000000000000000000000000000000000000000000000600082015250565b60006138406008836136f5565b915061384b8261380a565b600882019050919050565b600061386182613833565b9150819050919050565b7f496e76616c69642061747461636b2c206d75737420626520277061706572272c60008201527f2027726f636b272c206f72202773636973736f72732700000000000000000000602082015250565b60006138c760368361309e565b91506138d28261386b565b604082019050919050565b600060208201905081810360008301526138f6816138ba565b9050919050565b7f4e487b7100000000000000000000000000000000000000000000000000000000600052602260045260246000fd5b6000600282049050600182168061394457607f821691505b602082108103613957576139566138fd565b5b50919050565b60008190508160005260206000209050919050565b60006020601f8301049050919050565b600082821b905092915050565b6000600883026139bf7fffffffffffffffffffffffffffffffffffffffffffffffffffffffffffffffff82613982565b6139c98683613982565b95508019841693508086168417925050509392505050565b6000819050919050565b6000613a06613a016139fc84612e00565b6139e1565b612e00565b9050919050565b6000819050919050565b613a20836139eb565b613a34613a2c82613a0d565b84845461398f565b825550505050565b600090565b613a49613a3c565b613a54818484613a17565b505050565b5b81811015613a7857613a6d600082613a41565b600181019050613a5a565b5050565b601f821115613abd57613a8e8161395d565b613a9784613972565b81016020851015613aa6578190505b613aba613ab285613972565b830182613a59565b50505b505050565b600082821c905092915050565b6000613ae060001984600802613ac2565b1980831691505092915050565b6000613af98383613acf565b9150826002028217905092915050565b613b1282613093565b67ffffffffffffffff811115613b2b57613b2a612e51565b5b613b35825461392c565b613b40828285613a7c565b600060209050601f831160018114613b735760008415613b61578287015190505b613b6b8582613aed565b865550613bd3565b601f198416613b818661395d565b60005b82811015613ba957848901518255600182019150602085019450602081019050613b84565b86831015613bc65784890151613bc2601f891682613acf565b8355505b6001600288020188555050505b505050505050565b6000606082019050613bf06000830186613193565b613bfd6020830185613229565b613c0a6040830184613193565b949350505050565b7f4f6e6c7920746865206f776e65722063616e20616c6c6f63617465207265776160008201527f7264730000000000000000000000000000000000000000000000000000000000602082015250565b6000613c6e60238361309e565b9150613c7982613c12565b604082019050919050565b60006020820190508181036000830152613c9d81613c61565b9050919050565b7f43616e6e6f7420726577617264206d6f7265207468616e2033204e4654730000600082015250565b6000613cda601e8361309e565b9150613ce582613ca4565b602082019050919050565b60006020820190508181036000830152613d0981613ccd565b9050919050565b7f4e487b7100000000000000000000000000000000000000000000000000000000600052603260045260246000fd5b7f496e76616c696420616464726573730000000000000000000000000000000000600082015250565b6000613d75600f8361309e565b9150613d8082613d3f565b602082019050919050565b60006020820190508181036000830152613da481613d68565b9050919050565b6000604082019050613dc06000830185613193565b613dcd6020830184613229565b9392505050565b7f4f6e6c7920746865206f776e65722063616e2077697468647261772066756e6460008201527f7300000000000000000000000000000000000000000000000000000000000000602082015250565b6000613e3060218361309e565b9150613e3b82613dd4565b604082019050919050565b60006020820190508181036000830152613e5f81613e23565b9050919050565b600081905092915050565b50565b6000613e81600083613e66565b9150613e8c82613e71565b600082019050919050565b6000613ea282613e74565b9150819050919050565b7f4661696c656420746f2077697468647261772066756e64730000000000000000600082015250565b6000613ee260188361309e565b9150613eed82613eac565b602082019050919050565b60006020820190508181036000830152613f1181613ed5565b9050919050565b6000613f248285613761565b9150613f308284613761565b91508190509392505050565b7f4f6e65206f662074686520746f6b656e7320646f6573206e6f74206578697374600082015250565b6000613f7260208361309e565b9150613f7d82613f3c565b602082019050919050565b60006020820190508181036000830152613fa181613f65565b9050919050565b7f4e487b7100000000000000000000000000000000000000000000000000000000600052601160045260246000fd5b6000613fe282612e00565b91507fffffffffffffffffffffffffffffffffffffffffffffffffffffffffffffffff820361401457614013613fa8565b5b600182019050919050565b600061402a82612e00565b915061403583612e00565b925082820190508082111561404d5761404c613fa8565b5b92915050565b7f4d6178696d756d206e756d626572206f66204e465473206d696e746564000000600082015250565b6000614089601d8361309e565b915061409482614053565b602082019050919050565b600060208201905081810360008301526140b88161407c565b9050919050565b7f596f75206d7573742073656e6420302e30352045544820746f206d696e740000600082015250565b60006140f5601e8361309e565b9150614100826140bf565b602082019050919050565b60006020820190508181036000830152614124816140e8565b9050919050565b6000819050919050565b600067ffffffffffffffff82169050919050565b600061416461415f61415a8461412b565b6139e1565b614135565b9050919050565b61417481614149565b82525050565b600060208201905061418f600083018461416b565b92915050565b600081519050919050565b600082825260208201905092915050565b60006141bc82614195565b6141c681856141a0565b93506141d68185602086016130af565b6141df81612e40565b840191505092915050565b60006080820190506141ff6000830187613193565b61420c6020830186613193565b6142196040830185613229565b818103606083015261422b81846141b1565b905095945050505050565b60008151905061424581613004565b92915050565b60006020828403121561426157614260612df6565b5b600061426f84828501614236565b91505092915050565b7f4e487b7100000000000000000000000000000000000000000000000000000000600052601260045260246000fdfea2646970667358221220c9e5a658b1482527a573f6c16c65263f81b730c5e10aea85ad9f8af094c5761264736f6c63430008180033",
  "linkReferences": {},
  "deployedLinkReferences": {}
}