{
  "_format": "hh-sol-artifact-1",
  "contractName": "CryptoClashCat",
  "sourceName": "contracts/CryptoClashCat.sol",
  "abi": [
    {
      "inputs": [],
      "name": "ERC721EnumerableForbiddenBatchMint",
      "type": "error"
    },
    {
      "inputs": [
        {
          "internalType": "address",
          "name": "sender",
          "type": "address"
        },
        {
          "internalType": "uint256",
          "name": "tokenId",
          "type": "uint256"
        },
        {
          "internalType": "address",
          "name": "owner",
          "type": "address"
        }
      ],
      "name": "ERC721IncorrectOwner",
      "type": "error"
    },
    {
      "inputs": [
        {
          "internalType": "address",
          "name": "operator",
          "type": "address"
        },
        {
          "internalType": "uint256",
          "name": "tokenId",
          "type": "uint256"
        }
      ],
      "name": "ERC721InsufficientApproval",
      "type": "error"
    },
    {
      "inputs": [
        {
          "internalType": "address",
          "name": "approver",
          "type": "address"
        }
      ],
      "name": "ERC721InvalidApprover",
      "type": "error"
    },
    {
      "inputs": [
        {
          "internalType": "address",
          "name": "operator",
          "type": "address"
        }
      ],
      "name": "ERC721InvalidOperator",
      "type": "error"
    },
    {
      "inputs": [
        {
          "internalType": "address",
          "name": "owner",
          "type": "address"
        }
      ],
      "name": "ERC721InvalidOwner",
      "type": "error"
    },
    {
      "inputs": [
        {
          "internalType": "address",
          "name": "receiver",
          "type": "address"
        }
      ],
      "name": "ERC721InvalidReceiver",
      "type": "error"
    },
    {
      "inputs": [
        {
          "internalType": "address",
          "name": "sender",
          "type": "address"
        }
      ],
      "name": "ERC721InvalidSender",
      "type": "error"
    },
    {
      "inputs": [
        {
          "internalType": "uint256",
          "name": "tokenId",
          "type": "uint256"
        }
      ],
      "name": "ERC721NonexistentToken",
      "type": "error"
    },
    {
      "inputs": [
        {
          "internalType": "address",
          "name": "owner",
          "type": "address"
        },
        {
          "internalType": "uint256",
          "name": "index",
          "type": "uint256"
        }
      ],
      "name": "ERC721OutOfBoundsIndex",
      "type": "error"
    },
    {
      "inputs": [],
      "name": "InvalidInitialization",
      "type": "error"
    },
    {
      "inputs": [],
      "name": "NotInitializing",
      "type": "error"
    },
    {
      "anonymous": false,
      "inputs": [
        {
          "indexed": true,
          "internalType": "address",
          "name": "owner",
          "type": "address"
        },
        {
          "indexed": true,
          "internalType": "address",
          "name": "approved",
          "type": "address"
        },
        {
          "indexed": true,
          "internalType": "uint256",
          "name": "tokenId",
          "type": "uint256"
        }
      ],
      "name": "Approval",
      "type": "event"
    },
    {
      "anonymous": false,
      "inputs": [
        {
          "indexed": true,
          "internalType": "address",
          "name": "owner",
          "type": "address"
        },
        {
          "indexed": true,
          "internalType": "address",
          "name": "operator",
          "type": "address"
        },
        {
          "indexed": false,
          "internalType": "bool",
          "name": "approved",
          "type": "bool"
        }
      ],
      "name": "ApprovalForAll",
      "type": "event"
    },
    {
      "anonymous": false,
      "inputs": [
        {
          "indexed": true,
          "internalType": "uint256",
          "name": "battleId",
          "type": "uint256"
        },
        {
          "indexed": true,
          "internalType": "address",
          "name": "player",
          "type": "address"
        },
        {
          "indexed": false,
          "internalType": "string",
          "name": "attack",
          "type": "string"
        }
      ],
      "name": "AttackSubmitted",
      "type": "event"
    },
    {
      "anonymous": false,
      "inputs": [
        {
          "indexed": false,
          "internalType": "uint256",
          "name": "_fromTokenId",
          "type": "uint256"
        },
        {
          "indexed": false,
          "internalType": "uint256",
          "name": "_toTokenId",
          "type": "uint256"
        }
      ],
      "name": "BatchMetadataUpdate",
      "type": "event"
    },
    {
      "anonymous": false,
      "inputs": [
        {
          "indexed": true,
          "internalType": "uint256",
          "name": "battleId",
          "type": "uint256"
        },
        {
          "indexed": true,
          "internalType": "address",
          "name": "player1",
          "type": "address"
        },
        {
          "indexed": true,
          "internalType": "address",
          "name": "player2",
          "type": "address"
        },
        {
          "indexed": false,
          "internalType": "uint256",
          "name": "tokenId1",
          "type": "uint256"
        },
        {
          "indexed": false,
          "internalType": "uint256",
          "name": "tokenId2",
          "type": "uint256"
        }
      ],
      "name": "BattleStarted",
      "type": "event"
    },
    {
      "anonymous": false,
      "inputs": [
        {
          "indexed": false,
          "internalType": "address",
          "name": "owner",
          "type": "address"
        },
        {
          "indexed": false,
          "internalType": "uint256",
          "name": "amount",
          "type": "uint256"
        }
      ],
      "name": "FundsWithdrawn",
      "type": "event"
    },
    {
      "anonymous": false,
      "inputs": [
        {
          "indexed": false,
          "internalType": "uint64",
          "name": "version",
          "type": "uint64"
        }
      ],
      "name": "Initialized",
      "type": "event"
    },
    {
      "anonymous": false,
      "inputs": [
        {
          "indexed": false,
          "internalType": "uint256",
          "name": "_tokenId",
          "type": "uint256"
        }
      ],
      "name": "MetadataUpdate",
      "type": "event"
    },
    {
      "anonymous": false,
      "inputs": [
        {
          "indexed": true,
          "internalType": "address",
          "name": "from",
          "type": "address"
        },
        {
          "indexed": true,
          "internalType": "address",
          "name": "to",
          "type": "address"
        },
        {
          "indexed": true,
          "internalType": "uint256",
          "name": "tokenId",
          "type": "uint256"
        }
      ],
      "name": "Transfer",
      "type": "event"
    },
    {
      "inputs": [
        {
          "internalType": "address",
          "name": "to",
          "type": "address"
        },
        {
          "internalType": "uint256",
          "name": "tokenId",
          "type": "uint256"
        }
      ],
      "name": "approve",
      "outputs": [],
      "stateMutability": "nonpayable",
      "type": "function"
    },
    {
      "inputs": [
        {
          "internalType": "address",
          "name": "owner",
          "type": "address"
        }
      ],
      "name": "balanceOf",
      "outputs": [
        {
          "internalType": "uint256",
          "name": "",
          "type": "uint256"
        }
      ],
      "stateMutability": "view",
      "type": "function"
    },
    {
      "inputs": [
        {
          "internalType": "uint256",
          "name": "tokenId",
          "type": "uint256"
        },
        {
          "internalType": "string",
          "name": "attack",
          "type": "string"
        }
      ],
      "name": "chooseAttack",
      "outputs": [],
      "stateMutability": "nonpayable",
      "type": "function"
    },
    {
      "inputs": [],
      "name": "firstPlaceReward",
      "outputs": [
        {
          "internalType": "uint256",
          "name": "",
          "type": "uint256"
        }
      ],
      "stateMutability": "view",
      "type": "function"
    },
    {
      "inputs": [
        {
          "internalType": "uint256",
          "name": "tokenId",
          "type": "uint256"
        }
      ],
      "name": "getApproved",
      "outputs": [
        {
          "internalType": "address",
          "name": "",
          "type": "address"
        }
      ],
      "stateMutability": "view",
      "type": "function"
    },
    {
      "inputs": [
        {
          "internalType": "uint256",
          "name": "battleId",
          "type": "uint256"
        }
      ],
      "name": "getBattle",
      "outputs": [
        {
          "components": [
            {
              "internalType": "address",
              "name": "player1",
              "type": "address"
            },
            {
              "internalType": "address",
              "name": "player2",
              "type": "address"
            },
            {
              "internalType": "uint256",
              "name": "tokenId1",
              "type": "uint256"
            },
            {
              "internalType": "uint256",
              "name": "tokenId2",
              "type": "uint256"
            },
            {
              "internalType": "string",
              "name": "attack1",
              "type": "string"
            },
            {
              "internalType": "string",
              "name": "attack2",
              "type": "string"
            },
            {
              "internalType": "bool",
              "name": "player1Played",
              "type": "bool"
            },
            {
              "internalType": "bool",
              "name": "player2Played",
              "type": "bool"
            }
          ],
          "internalType": "struct CryptoClashCat.Battle",
          "name": "",
          "type": "tuple"
        }
      ],
      "stateMutability": "view",
      "type": "function"
    },
    {
      "inputs": [],
      "name": "getBattleCounter",
      "outputs": [
        {
          "internalType": "uint256",
          "name": "",
          "type": "uint256"
        }
      ],
      "stateMutability": "view",
      "type": "function"
    },
    {
      "inputs": [],
      "name": "getNextTokenId",
      "outputs": [
        {
          "internalType": "uint256",
          "name": "",
          "type": "uint256"
        }
      ],
      "stateMutability": "view",
      "type": "function"
    },
    {
      "inputs": [
        {
          "internalType": "uint256",
          "name": "tokenId",
          "type": "uint256"
        }
      ],
      "name": "getWins",
      "outputs": [
        {
          "internalType": "uint256",
          "name": "",
          "type": "uint256"
        }
      ],
      "stateMutability": "view",
      "type": "function"
    },
    {
      "inputs": [
        {
          "internalType": "uint256",
          "name": "maxNFTs",
          "type": "uint256"
        }
      ],
      "name": "initialize",
      "outputs": [],
      "stateMutability": "nonpayable",
      "type": "function"
    },
    {
      "inputs": [
        {
          "internalType": "address",
          "name": "owner",
          "type": "address"
        },
        {
          "internalType": "address",
          "name": "operator",
          "type": "address"
        }
      ],
      "name": "isApprovedForAll",
      "outputs": [
        {
          "internalType": "bool",
          "name": "",
          "type": "bool"
        }
      ],
      "stateMutability": "view",
      "type": "function"
    },
    {
      "inputs": [],
      "name": "name",
      "outputs": [
        {
          "internalType": "string",
          "name": "",
          "type": "string"
        }
      ],
      "stateMutability": "view",
      "type": "function"
    },
    {
      "inputs": [
        {
          "internalType": "uint256",
          "name": "tokenId",
          "type": "uint256"
        }
      ],
      "name": "ownerOf",
      "outputs": [
        {
          "internalType": "address",
          "name": "",
          "type": "address"
        }
      ],
      "stateMutability": "view",
      "type": "function"
    },
    {
      "inputs": [
        {
          "internalType": "address[]",
          "name": "topNFTs",
          "type": "address[]"
        },
        {
          "internalType": "address",
          "name": "cryptoClashContract",
          "type": "address"
        }
      ],
      "name": "rewardTopNFTs",
      "outputs": [],
      "stateMutability": "nonpayable",
      "type": "function"
    },
    {
      "inputs": [
        {
          "internalType": "address",
          "name": "to",
          "type": "address"
        },
        {
          "internalType": "string",
          "name": "uri",
          "type": "string"
        }
      ],
      "name": "safeMint",
      "outputs": [],
      "stateMutability": "payable",
      "type": "function"
    },
    {
      "inputs": [
        {
          "internalType": "address",
          "name": "from",
          "type": "address"
        },
        {
          "internalType": "address",
          "name": "to",
          "type": "address"
        },
        {
          "internalType": "uint256",
          "name": "tokenId",
          "type": "uint256"
        }
      ],
      "name": "safeTransferFrom",
      "outputs": [],
      "stateMutability": "nonpayable",
      "type": "function"
    },
    {
      "inputs": [
        {
          "internalType": "address",
          "name": "from",
          "type": "address"
        },
        {
          "internalType": "address",
          "name": "to",
          "type": "address"
        },
        {
          "internalType": "uint256",
          "name": "tokenId",
          "type": "uint256"
        },
        {
          "internalType": "bytes",
          "name": "data",
          "type": "bytes"
        }
      ],
      "name": "safeTransferFrom",
      "outputs": [],
      "stateMutability": "nonpayable",
      "type": "function"
    },
    {
      "inputs": [],
      "name": "secondPlaceReward",
      "outputs": [
        {
          "internalType": "uint256",
          "name": "",
          "type": "uint256"
        }
      ],
      "stateMutability": "view",
      "type": "function"
    },
    {
      "inputs": [
        {
          "internalType": "address",
          "name": "operator",
          "type": "address"
        },
        {
          "internalType": "bool",
          "name": "approved",
          "type": "bool"
        }
      ],
      "name": "setApprovalForAll",
      "outputs": [],
      "stateMutability": "nonpayable",
      "type": "function"
    },
    {
      "inputs": [
        {
          "internalType": "uint256",
          "name": "tokenId1",
          "type": "uint256"
        },
        {
          "internalType": "uint256",
          "name": "tokenId2",
          "type": "uint256"
        }
      ],
      "name": "startBattle",
      "outputs": [],
      "stateMutability": "nonpayable",
      "type": "function"
    },
    {
      "inputs": [
        {
          "internalType": "uint256",
          "name": "battleId",
          "type": "uint256"
        },
        {
          "internalType": "uint256",
          "name": "tokenId",
          "type": "uint256"
        },
        {
          "internalType": "string",
          "name": "attack",
          "type": "string"
        }
      ],
      "name": "submitAttack",
      "outputs": [],
      "stateMutability": "nonpayable",
      "type": "function"
    },
    {
      "inputs": [
        {
          "internalType": "bytes4",
          "name": "interfaceId",
          "type": "bytes4"
        }
      ],
      "name": "supportsInterface",
      "outputs": [
        {
          "internalType": "bool",
          "name": "",
          "type": "bool"
        }
      ],
      "stateMutability": "view",
      "type": "function"
    },
    {
      "inputs": [],
      "name": "symbol",
      "outputs": [
        {
          "internalType": "string",
          "name": "",
          "type": "string"
        }
      ],
      "stateMutability": "view",
      "type": "function"
    },
    {
      "inputs": [],
      "name": "thirdPlaceReward",
      "outputs": [
        {
          "internalType": "uint256",
          "name": "",
          "type": "uint256"
        }
      ],
      "stateMutability": "view",
      "type": "function"
    },
    {
      "inputs": [
        {
          "internalType": "uint256",
          "name": "index",
          "type": "uint256"
        }
      ],
      "name": "tokenByIndex",
      "outputs": [
        {
          "internalType": "uint256",
          "name": "",
          "type": "uint256"
        }
      ],
      "stateMutability": "view",
      "type": "function"
    },
    {
      "inputs": [
        {
          "internalType": "address",
          "name": "owner",
          "type": "address"
        },
        {
          "internalType": "uint256",
          "name": "index",
          "type": "uint256"
        }
      ],
      "name": "tokenOfOwnerByIndex",
      "outputs": [
        {
          "internalType": "uint256",
          "name": "",
          "type": "uint256"
        }
      ],
      "stateMutability": "view",
      "type": "function"
    },
    {
      "inputs": [
        {
          "internalType": "uint256",
          "name": "tokenId",
          "type": "uint256"
        }
      ],
      "name": "tokenURI",
      "outputs": [
        {
          "internalType": "string",
          "name": "",
          "type": "string"
        }
      ],
      "stateMutability": "view",
      "type": "function"
    },
    {
      "inputs": [],
      "name": "totalSupply",
      "outputs": [
        {
          "internalType": "uint256",
          "name": "",
          "type": "uint256"
        }
      ],
      "stateMutability": "view",
      "type": "function"
    },
    {
      "inputs": [
        {
          "internalType": "address",
          "name": "from",
          "type": "address"
        },
        {
          "internalType": "address",
          "name": "to",
          "type": "address"
        },
        {
          "internalType": "uint256",
          "name": "tokenId",
          "type": "uint256"
        }
      ],
      "name": "transferFrom",
      "outputs": [],
      "stateMutability": "nonpayable",
      "type": "function"
    },
    {
      "inputs": [],
      "name": "withdraw",
      "outputs": [],
      "stateMutability": "nonpayable",
      "type": "function"
    },
    {
      "stateMutability": "payable",
      "type": "receive"
    }
  ],
  "bytecode": "0x608060405234801561001057600080fd5b5061583680620000216000396000f3fe6080604052600436106101d05760003560e01c80636352211e116100f7578063aade6e4211610095578063caa0f92a11610064578063caa0f92a146106b6578063d204c45e146106e1578063e985e9c5146106fd578063fe4b84df1461073a576101d7565b8063aade6e42146105ea578063b88d4fde14610627578063bb5c0c1614610650578063c87b56dd14610679576101d7565b80637a555e9e116100d15780637a555e9e146105405780637c8874301461056b57806395d89b4114610596578063a22cb465146105c1576101d7565b80636352211e146104895780636dd0ce7a146104c657806370a0823114610503576101d7565b80631b8a7e541161016f5780633ccfd60b1161013e5780633ccfd60b146103e35780633daa6ba9146103fa57806342842e0e146104235780634f6ccce71461044c576101d7565b80631b8a7e541461032957806323b872dd146103545780632f745c591461037d5780632f913171146103ba576101d7565b8063081812fc116101ab578063081812fc1461026d578063095ea7b3146102aa57806318160ddd146102d357806319088f1f146102fe576101d7565b80625524c7146101dc57806301ffc9a71461020557806306fdde0314610242576101d7565b366101d757005b600080fd5b3480156101e857600080fd5b5061020360048036038101906101fe9190614060565b610763565b005b34801561021157600080fd5b5061022c60048036038101906102279190614114565b610934565b604051610239919061415c565b60405180910390f35b34801561024e57600080fd5b50610257610946565b60405161026491906141f6565b60405180910390f35b34801561027957600080fd5b50610294600480360381019061028f9190614218565b6109e7565b6040516102a19190614286565b60405180910390f35b3480156102b657600080fd5b506102d160048036038101906102cc91906142cd565b610a03565b005b3480156102df57600080fd5b506102e8610a19565b6040516102f5919061431c565b60405180910390f35b34801561030a57600080fd5b50610313610a34565b604051610320919061431c565b60405180910390f35b34801561033557600080fd5b5061033e610a3a565b60405161034b919061431c565b60405180910390f35b34801561036057600080fd5b5061037b60048036038101906103769190614337565b610a44565b005b34801561038957600080fd5b506103a4600480360381019061039f91906142cd565b610b46565b6040516103b1919061431c565b60405180910390f35b3480156103c657600080fd5b506103e160048036038101906103dc9190614452565b610bfd565b005b3480156103ef57600080fd5b506103f861103c565b005b34801561040657600080fd5b50610421600480360381019061041c91906144ae565b6111fe565b005b34801561042f57600080fd5b5061044a60048036038101906104459190614337565b611527565b005b34801561045857600080fd5b50610473600480360381019061046e9190614218565b611547565b604051610480919061431c565b60405180910390f35b34801561049557600080fd5b506104b060048036038101906104ab9190614218565b6115cb565b6040516104bd9190614286565b60405180910390f35b3480156104d257600080fd5b506104ed60048036038101906104e89190614218565b6115dd565b6040516104fa919061461c565b60405180910390f35b34801561050f57600080fd5b5061052a6004803603810190610525919061463e565b611825565b604051610537919061431c565b60405180910390f35b34801561054c57600080fd5b506105556118ee565b604051610562919061431c565b60405180910390f35b34801561057757600080fd5b506105806118f4565b60405161058d919061431c565b60405180910390f35b3480156105a257600080fd5b506105ab6118fa565b6040516105b891906141f6565b60405180910390f35b3480156105cd57600080fd5b506105e860048036038101906105e39190614697565b61199b565b005b3480156105f657600080fd5b50610611600480360381019061060c9190614218565b6119b1565b60405161061e919061431c565b60405180910390f35b34801561063357600080fd5b5061064e60048036038101906106499190614778565b6119d0565b005b34801561065c57600080fd5b50610677600480360381019061067291906147fb565b6119ed565b005b34801561068557600080fd5b506106a0600480360381019061069b9190614218565b611e26565b6040516106ad91906141f6565b60405180910390f35b3480156106c257600080fd5b506106cb611e38565b6040516106d8919061431c565b60405180910390f35b6106fb60048036038101906106f6919061486a565b611e4e565b005b34801561070957600080fd5b50610724600480360381019061071f91906148c6565b611f0a565b604051610731919061415c565b60405180910390f35b34801561074657600080fd5b50610761600480360381019061075c9190614218565b611fac565b005b3373ffffffffffffffffffffffffffffffffffffffff16610783836115cb565b73ffffffffffffffffffffffffffffffffffffffff16146107d9576040517f08c379a00000000000000000000000000000000000000000000000000000000081526004016107d090614978565b60405180910390fd5b6040516020016107e8906149ef565b604051602081830303815290604052805190602001208160405160200161080f9190614a35565b60405160208183030381529060405280519060200120148061087a575060405160200161083b90614a98565b60405160208183030381529060405280519060200120816040516020016108629190614a35565b60405160208183030381529060405280519060200120145b806108ce575060405160200161088f90614af9565b60405160208183030381529060405280519060200120816040516020016108b69190614a35565b60405160208183030381529060405280519060200120145b61090d576040517f08c379a000000000000000000000000000000000000000000000000000000000815260040161090490614b80565b60405180910390fd5b80600080848152602001908152602001600020600001908161092f9190614dac565b505050565b600061093f82612220565b9050919050565b6060600061095261229a565b905080600001805461096390614bcf565b80601f016020809104026020016040519081016040528092919081815260200182805461098f90614bcf565b80156109dc5780601f106109b1576101008083540402835291602001916109dc565b820191906000526020600020905b8154815290600101906020018083116109bf57829003601f168201915b505050505091505090565b60006109f2826122c2565b506109fc8261234a565b9050919050565b610a158282610a10612395565b61239d565b5050565b600080610a246123af565b9050806002018054905091505090565b60065481565b6000600254905090565b600073ffffffffffffffffffffffffffffffffffffffff168273ffffffffffffffffffffffffffffffffffffffff1603610ab65760006040517f64a0ae92000000000000000000000000000000000000000000000000000000008152600401610aad9190614286565b60405180910390fd5b6000610aca8383610ac5612395565b6123d7565b90508373ffffffffffffffffffffffffffffffffffffffff168173ffffffffffffffffffffffffffffffffffffffff1614610b40578382826040517f64283d7b000000000000000000000000000000000000000000000000000000008152600401610b3793929190614e7e565b60405180910390fd5b50505050565b600080610b516123af565b9050610b5c84611825565b8310610ba15783836040517fa57d13dc000000000000000000000000000000000000000000000000000000008152600401610b98929190614eb5565b60405180910390fd5b8060000160008573ffffffffffffffffffffffffffffffffffffffff1673ffffffffffffffffffffffffffffffffffffffff16815260200190815260200160002060008481526020019081526020016000205491505092915050565b600360009054906101000a900473ffffffffffffffffffffffffffffffffffffffff1673ffffffffffffffffffffffffffffffffffffffff163373ffffffffffffffffffffffffffffffffffffffff1614610c8d576040517f08c379a0000000000000000000000000000000000000000000000000000000008152600401610c8490614f50565b60405180910390fd5b600382511115610cd2576040517f08c379a0000000000000000000000000000000000000000000000000000000008152600401610cc990614fbc565b60405180910390fd5b60008190506000600367ffffffffffffffff811115610cf457610cf3613f35565b5b604051908082528060200260200182016040528015610d225781602001602082028036833780820191505090505b50905060065481600081518110610d3c57610d3b614fdc565b5b60200260200101818152505060075481600181518110610d5f57610d5e614fdc565b5b60200260200101818152505060085481600281518110610d8257610d81614fdc565b5b60200260200101818152505060005b8451811015610ed157600073ffffffffffffffffffffffffffffffffffffffff16858281518110610dc557610dc4614fdc565b5b602002602001015173ffffffffffffffffffffffffffffffffffffffff1603610e23576040517f08c379a0000000000000000000000000000000000000000000000000000000008152600401610e1a90615057565b60405180910390fd5b8273ffffffffffffffffffffffffffffffffffffffff16637d4b7195868381518110610e5257610e51614fdc565b5b6020026020010151848481518110610e6d57610e6c614fdc565b5b60200260200101516040518363ffffffff1660e01b8152600401610e92929190614eb5565b600060405180830381600087803b158015610eac57600080fd5b505af1158015610ec0573d6000803e3d6000fd5b505050508080600101915050610d91565b5060005b845181101561103557600073ffffffffffffffffffffffffffffffffffffffff16858281518110610f0957610f08614fdc565b5b602002602001015173ffffffffffffffffffffffffffffffffffffffff1603610f67576040517f08c379a0000000000000000000000000000000000000000000000000000000008152600401610f5e90615057565b60405180910390fd5b6000858281518110610f7c57610f7b614fdc565b5b602002602001015190508073ffffffffffffffffffffffffffffffffffffffff166340c10f19878481518110610fb557610fb4614fdc565b5b6020026020010151858581518110610fd057610fcf614fdc565b5b60200260200101516040518363ffffffff1660e01b8152600401610ff5929190614eb5565b600060405180830381600087803b15801561100f57600080fd5b505af1158015611023573d6000803e3d6000fd5b50505050508080600101915050610ed5565b5050505050565b600360009054906101000a900473ffffffffffffffffffffffffffffffffffffffff1673ffffffffffffffffffffffffffffffffffffffff163373ffffffffffffffffffffffffffffffffffffffff16146110cc576040517f08c379a00000000000000000000000000000000000000000000000000000000081526004016110c3906150e9565b60405180910390fd5b60004790506000600360009054906101000a900473ffffffffffffffffffffffffffffffffffffffff1673ffffffffffffffffffffffffffffffffffffffff16826040516111199061513a565b60006040518083038185875af1925050503d8060008114611156576040519150601f19603f3d011682016040523d82523d6000602084013e61115b565b606091505b505090508061119f576040517f08c379a00000000000000000000000000000000000000000000000000000000081526004016111969061519b565b60405180910390fd5b7feaff4b37086828766ad3268786972c0cd24259d4c87a80f9d3963a3c3d999b0d600360009054906101000a900473ffffffffffffffffffffffffffffffffffffffff16836040516111f2929190614eb5565b60405180910390a15050565b3373ffffffffffffffffffffffffffffffffffffffff1661121e836115cb565b73ffffffffffffffffffffffffffffffffffffffff1614611274576040517f08c379a000000000000000000000000000000000000000000000000000000000815260040161126b90614978565b60405180910390fd5b600061127f826115cb565b9050600073ffffffffffffffffffffffffffffffffffffffff168173ffffffffffffffffffffffffffffffffffffffff16036112f0576040517f08c379a00000000000000000000000000000000000000000000000000000000081526004016112e790615207565b60405180910390fd5b6002600081548092919061130390615256565b91905055506040518061010001604052803373ffffffffffffffffffffffffffffffffffffffff1681526020018273ffffffffffffffffffffffffffffffffffffffff1681526020018481526020018381526020016040518060200160405280600081525081526020016040518060200160405280600081525081526020016000151581526020016000151581525060016000600254815260200190815260200160002060008201518160000160006101000a81548173ffffffffffffffffffffffffffffffffffffffff021916908373ffffffffffffffffffffffffffffffffffffffff16021790555060208201518160010160006101000a81548173ffffffffffffffffffffffffffffffffffffffff021916908373ffffffffffffffffffffffffffffffffffffffff1602179055506040820151816002015560608201518160030155608082015181600401908161145e9190614dac565b5060a08201518160050190816114749190614dac565b5060c08201518160060160006101000a81548160ff02191690831515021790555060e08201518160060160016101000a81548160ff0219169083151502179055509050508073ffffffffffffffffffffffffffffffffffffffff163373ffffffffffffffffffffffffffffffffffffffff166002547fc441ce4b01dcdafd8c099080e5945a38e6fe9d3dfca01f0e77a26c19b4e0c969868660405161151a92919061529e565b60405180910390a4505050565b611542838383604051806020016040528060008152506119d0565b505050565b6000806115526123af565b905061155c610a19565b83106115a2576000836040517fa57d13dc000000000000000000000000000000000000000000000000000000008152600401611599929190614eb5565b60405180910390fd5b8060020183815481106115b8576115b7614fdc565b5b9060005260206000200154915050919050565b60006115d6826122c2565b9050919050565b6115e5613e5b565b60016000838152602001908152602001600020604051806101000160405290816000820160009054906101000a900473ffffffffffffffffffffffffffffffffffffffff1673ffffffffffffffffffffffffffffffffffffffff1673ffffffffffffffffffffffffffffffffffffffff1681526020016001820160009054906101000a900473ffffffffffffffffffffffffffffffffffffffff1673ffffffffffffffffffffffffffffffffffffffff1673ffffffffffffffffffffffffffffffffffffffff16815260200160028201548152602001600382015481526020016004820180546116d490614bcf565b80601f016020809104026020016040519081016040528092919081815260200182805461170090614bcf565b801561174d5780601f106117225761010080835404028352916020019161174d565b820191906000526020600020905b81548152906001019060200180831161173057829003601f168201915b5050505050815260200160058201805461176690614bcf565b80601f016020809104026020016040519081016040528092919081815260200182805461179290614bcf565b80156117df5780601f106117b4576101008083540402835291602001916117df565b820191906000526020600020905b8154815290600101906020018083116117c257829003601f168201915b505050505081526020016006820160009054906101000a900460ff161515151581526020016006820160019054906101000a900460ff1615151515815250509050919050565b60008061183061229a565b9050600073ffffffffffffffffffffffffffffffffffffffff168373ffffffffffffffffffffffffffffffffffffffff16036118a45760006040517f89c62b6400000000000000000000000000000000000000000000000000000000815260040161189b9190614286565b60405180910390fd5b8060030160008473ffffffffffffffffffffffffffffffffffffffff1673ffffffffffffffffffffffffffffffffffffffff16815260200190815260200160002054915050919050565b60085481565b60075481565b6060600061190661229a565b905080600101805461191790614bcf565b80601f016020809104026020016040519081016040528092919081815260200182805461194390614bcf565b80156119905780601f1061196557610100808354040283529160200191611990565b820191906000526020600020905b81548152906001019060200180831161197357829003601f168201915b505050505091505090565b6119ad6119a6612395565b83836123ed565b5050565b6000806000838152602001908152602001600020600101549050919050565b6119db848484610a44565b6119e78484848461256b565b50505050565b60006001600085815260200190815260200160002090503373ffffffffffffffffffffffffffffffffffffffff168160000160009054906101000a900473ffffffffffffffffffffffffffffffffffffffff1673ffffffffffffffffffffffffffffffffffffffff161480611ab157503373ffffffffffffffffffffffffffffffffffffffff168160010160009054906101000a900473ffffffffffffffffffffffffffffffffffffffff1673ffffffffffffffffffffffffffffffffffffffff16145b611af0576040517f08c379a0000000000000000000000000000000000000000000000000000000008152600401611ae790615339565b60405180910390fd5b604051602001611aff906149ef565b6040516020818303038152906040528051906020012082604051602001611b269190614a35565b604051602081830303815290604052805190602001201480611b915750604051602001611b5290614a98565b6040516020818303038152906040528051906020012082604051602001611b799190614a35565b60405160208183030381529060405280519060200120145b80611be55750604051602001611ba690614af9565b6040516020818303038152906040528051906020012082604051602001611bcd9190614a35565b60405160208183030381529060405280519060200120145b611c24576040517f08c379a0000000000000000000000000000000000000000000000000000000008152600401611c1b906153a5565b60405180910390fd5b3373ffffffffffffffffffffffffffffffffffffffff168160000160009054906101000a900473ffffffffffffffffffffffffffffffffffffffff1673ffffffffffffffffffffffffffffffffffffffff16148015611c865750828160020154145b15611cbf5781816004019081611c9c9190614dac565b5060018160060160006101000a81548160ff021916908315150217905550611d96565b3373ffffffffffffffffffffffffffffffffffffffff168160010160009054906101000a900473ffffffffffffffffffffffffffffffffffffffff1673ffffffffffffffffffffffffffffffffffffffff16148015611d215750828160030154145b15611d5a5781816005019081611d379190614dac565b5060018160060160016101000a81548160ff021916908315150217905550611d95565b6040517f08c379a0000000000000000000000000000000000000000000000000000000008152600401611d8c90615437565b60405180910390fd5b5b3373ffffffffffffffffffffffffffffffffffffffff16847ff685fa501be77ee479d232847278ea7b5190831731962deab7bf115efa6e02ba84604051611ddd91906141f6565b60405180910390a38060060160009054906101000a900460ff168015611e1157508060060160019054906101000a900460ff165b15611e2057611e1f84612722565b5b50505050565b6060611e3182612bb8565b9050919050565b60006001600454611e499190615457565b905090565b60055460045410611e94576040517f08c379a0000000000000000000000000000000000000000000000000000000008152600401611e8b906154d7565b60405180910390fd5b66b1a2bc2ec500003414611edd576040517f08c379a0000000000000000000000000000000000000000000000000000000008152600401611ed490615543565b60405180910390fd5b6000611ee7612cdc565b9050611ef38382612cf2565b611efd8183612d10565b611f05612d7b565b505050565b600080611f1561229a565b90508060050160008573ffffffffffffffffffffffffffffffffffffffff1673ffffffffffffffffffffffffffffffffffffffff16815260200190815260200160002060008473ffffffffffffffffffffffffffffffffffffffff1673ffffffffffffffffffffffffffffffffffffffff16815260200190815260200160002060009054906101000a900460ff1691505092915050565b6000611fb6612d95565b905060008160000160089054906101000a900460ff1615905060008260000160009054906101000a900467ffffffffffffffff1690506000808267ffffffffffffffff161480156120045750825b9050600060018367ffffffffffffffff16148015612039575060003073ffffffffffffffffffffffffffffffffffffffff163b145b905081158015612047575080155b1561207e576040517ff92ee8a900000000000000000000000000000000000000000000000000000000815260040160405180910390fd5b60018560000160006101000a81548167ffffffffffffffff021916908367ffffffffffffffff16021790555083156120ce5760018560000160086101000a81548160ff0219169083151502179055505b6121426040518060400160405280600e81526020017f43727970746f436c6173684361740000000000000000000000000000000000008152506040518060400160405280600381526020017f4343430000000000000000000000000000000000000000000000000000000000815250612dbd565b61214a612dd3565b612152612ddd565b33600360006101000a81548173ffffffffffffffffffffffffffffffffffffffff021916908373ffffffffffffffffffffffffffffffffffffffff1602179055508560058190555060006004819055506103e86006819055506101f460078190555060fa60088190555083156122185760008560000160086101000a81548160ff0219169083151502179055507fc7f505b2f371ae2175ee4913f4499e1f2633a7b5936321eed1cdaeb6115181d2600160405161220f91906155b2565b60405180910390a15b505050505050565b60007f780e9d63000000000000000000000000000000000000000000000000000000007bffffffffffffffffffffffffffffffffffffffffffffffffffffffff1916827bffffffffffffffffffffffffffffffffffffffffffffffffffffffff19161480612293575061229282612de7565b5b9050919050565b60007f80bb2b638cc20bc4d0a60d66940f3ab4a00c1d7b313497ca82fb0b4ab0079300905090565b6000806122ce83612e48565b9050600073ffffffffffffffffffffffffffffffffffffffff168173ffffffffffffffffffffffffffffffffffffffff160361234157826040517f7e273289000000000000000000000000000000000000000000000000000000008152600401612338919061431c565b60405180910390fd5b80915050919050565b60008061235561229a565b905080600401600084815260200190815260200160002060009054906101000a900473ffffffffffffffffffffffffffffffffffffffff16915050919050565b600033905090565b6123aa8383836001612e93565b505050565b60007f645e039705490088daad89bae25049a34f4a9072d398537b1ab2425f24cbed00905090565b60006123e4848484613067565b90509392505050565b60006123f761229a565b9050600073ffffffffffffffffffffffffffffffffffffffff168373ffffffffffffffffffffffffffffffffffffffff160361246a57826040517f5b08ba180000000000000000000000000000000000000000000000000000000081526004016124619190614286565b60405180910390fd5b818160050160008673ffffffffffffffffffffffffffffffffffffffff1673ffffffffffffffffffffffffffffffffffffffff16815260200190815260200160002060008573ffffffffffffffffffffffffffffffffffffffff1673ffffffffffffffffffffffffffffffffffffffff16815260200190815260200160002060006101000a81548160ff0219169083151502179055508273ffffffffffffffffffffffffffffffffffffffff168473ffffffffffffffffffffffffffffffffffffffff167f17307eab39ab6107e8899845ad3d59bd9653f200f220920489ca2b5937696c318460405161255d919061415c565b60405180910390a350505050565b60008373ffffffffffffffffffffffffffffffffffffffff163b111561271c578273ffffffffffffffffffffffffffffffffffffffff1663150b7a026125af612395565b8685856040518563ffffffff1660e01b81526004016125d19493929190615622565b6020604051808303816000875af192505050801561260d57506040513d601f19601f8201168201806040525081019061260a9190615683565b60015b612691573d806000811461263d576040519150601f19603f3d011682016040523d82523d6000602084013e612642565b606091505b50600081510361268957836040517f64a0ae920000000000000000000000000000000000000000000000000000000081526004016126809190614286565b60405180910390fd5b805181602001fd5b63150b7a0260e01b7bffffffffffffffffffffffffffffffffffffffffffffffffffffffff1916817bffffffffffffffffffffffffffffffffffffffffffffffffffffffff19161461271a57836040517f64a0ae920000000000000000000000000000000000000000000000000000000081526004016127119190614286565b60405180910390fd5b505b50505050565b6000600160008381526020019081526020016000209050604051602001612748906149ef565b60405160208183030381529060405280519060200120816004016040516020016127729190615733565b604051602081830303815290604052805190602001201480156127e1575060405160200161279f90614a98565b60405160208183030381529060405280519060200120816005016040516020016127c99190615733565b60405160208183030381529060405280519060200120145b8061289057506040516020016127f690614a98565b60405160208183030381529060405280519060200120816004016040516020016128209190615733565b6040516020818303038152906040528051906020012014801561288f575060405160200161284d90614af9565b60405160208183030381529060405280519060200120816005016040516020016128779190615733565b60405160208183030381529060405280519060200120145b5b8061293f57506040516020016128a590614af9565b60405160208183030381529060405280519060200120816004016040516020016128cf9190615733565b6040516020818303038152906040528051906020012014801561293e57506040516020016128fc906149ef565b60405160208183030381529060405280519060200120816005016040516020016129269190615733565b60405160208183030381529060405280519060200120145b5b156129785760008082600201548152602001908152602001600020600101600081548092919061296e90615256565b9190505550612bb4565b604051602001612987906149ef565b60405160208183030381529060405280519060200120816005016040516020016129b19190615733565b60405160208183030381529060405280519060200120148015612a2057506040516020016129de90614a98565b6040516020818303038152906040528051906020012081600401604051602001612a089190615733565b60405160208183030381529060405280519060200120145b80612acf5750604051602001612a3590614a98565b6040516020818303038152906040528051906020012081600501604051602001612a5f9190615733565b60405160208183030381529060405280519060200120148015612ace5750604051602001612a8c90614af9565b6040516020818303038152906040528051906020012081600401604051602001612ab69190615733565b60405160208183030381529060405280519060200120145b5b80612b7e5750604051602001612ae490614af9565b6040516020818303038152906040528051906020012081600501604051602001612b0e9190615733565b60405160208183030381529060405280519060200120148015612b7d5750604051602001612b3b906149ef565b6040516020818303038152906040528051906020012081600401604051602001612b659190615733565b60405160208183030381529060405280519060200120145b5b15612bb357600080826003015481526020019081526020016000206001016000815480929190612bad90615256565b91905055505b5b5050565b60606000612bc4613184565b9050612bcf836122c2565b5060008160000160008581526020019081526020016000208054612bf290614bcf565b80601f0160208091040260200160405190810160405280929190818152602001828054612c1e90614bcf565b8015612c6b5780601f10612c4057610100808354040283529160200191612c6b565b820191906000526020600020905b815481529060010190602001808311612c4e57829003601f168201915b505050505090506000612c7c6131ac565b90506000815103612c9257819350505050612cd7565b600082511115612cc8578082604051602001612caf92919061574a565b6040516020818303038152906040529350505050612cd7565b612cd1856131c3565b93505050505b919050565b60006001600454612ced9190615457565b905090565b612d0c82826040518060200160405280600081525061322c565b5050565b6000612d1a613184565b9050818160000160008581526020019081526020016000209081612d3e9190614dac565b507ff8e1a15aba9398e019f0b49df1a4fde98ee17ae345cb5f6b5e2c27f5033e8ce783604051612d6e919061431c565b60405180910390a1505050565b60046000815480929190612d8e90615256565b9190505550565b60007ff0c57e16840df040f15088dc2f81fe391c3923bec73e23a9662efc9c229c6a00905090565b612dc5613248565b612dcf8282613288565b5050565b612ddb613248565b565b612de5613248565b565b6000634906490660e01b7bffffffffffffffffffffffffffffffffffffffffffffffffffffffff1916827bffffffffffffffffffffffffffffffffffffffffffffffffffffffff19161480612e415750612e40826132c5565b5b9050919050565b600080612e5361229a565b905080600201600084815260200190815260200160002060009054906101000a900473ffffffffffffffffffffffffffffffffffffffff16915050919050565b6000612e9d61229a565b90508180612ed85750600073ffffffffffffffffffffffffffffffffffffffff168373ffffffffffffffffffffffffffffffffffffffff1614155b1561300c576000612ee8856122c2565b9050600073ffffffffffffffffffffffffffffffffffffffff168473ffffffffffffffffffffffffffffffffffffffff1614158015612f5357508373ffffffffffffffffffffffffffffffffffffffff168173ffffffffffffffffffffffffffffffffffffffff1614155b8015612f665750612f648185611f0a565b155b15612fa857836040517fa9fbf51f000000000000000000000000000000000000000000000000000000008152600401612f9f9190614286565b60405180910390fd5b821561300a57848673ffffffffffffffffffffffffffffffffffffffff168273ffffffffffffffffffffffffffffffffffffffff167f8c5be1e5ebec7d5bd14f71427d1e84f3dd0314c0f7b2291e5b200ac8c7c3b92560405160405180910390a45b505b8481600401600086815260200190815260200160002060006101000a81548173ffffffffffffffffffffffffffffffffffffffff021916908373ffffffffffffffffffffffffffffffffffffffff1602179055505050505050565b6000806130758585856133a7565b9050600073ffffffffffffffffffffffffffffffffffffffff168173ffffffffffffffffffffffffffffffffffffffff16036130b9576130b4846135d4565b6130f8565b8473ffffffffffffffffffffffffffffffffffffffff168173ffffffffffffffffffffffffffffffffffffffff16146130f7576130f68185613630565b5b5b600073ffffffffffffffffffffffffffffffffffffffff168573ffffffffffffffffffffffffffffffffffffffff160361313a57613135846137aa565b613179565b8473ffffffffffffffffffffffffffffffffffffffff168173ffffffffffffffffffffffffffffffffffffffff1614613178576131778585613896565b5b5b809150509392505050565b60007f0542a41881ee128a365a727b282c86fa859579490b9bb45aab8503648c8e7900905090565b606060405180602001604052806000815250905090565b60606131ce826122c2565b5060006131d96131ac565b905060008151116131f95760405180602001604052806000815250613224565b8061320384613932565b60405160200161321492919061574a565b6040516020818303038152906040525b915050919050565b6132368383613a00565b613243600084848461256b565b505050565b613250613af9565b613286576040517fd7e6bcf800000000000000000000000000000000000000000000000000000000815260040160405180910390fd5b565b613290613248565b600061329a61229a565b9050828160000190816132ad9190614dac565b50818160010190816132bf9190614dac565b50505050565b60007f80ac58cd000000000000000000000000000000000000000000000000000000007bffffffffffffffffffffffffffffffffffffffffffffffffffffffff1916827bffffffffffffffffffffffffffffffffffffffffffffffffffffffff1916148061339057507f5b5e139f000000000000000000000000000000000000000000000000000000007bffffffffffffffffffffffffffffffffffffffffffffffffffffffff1916827bffffffffffffffffffffffffffffffffffffffffffffffffffffffff1916145b806133a0575061339f82613b19565b5b9050919050565b6000806133b261229a565b905060006133bf85612e48565b9050600073ffffffffffffffffffffffffffffffffffffffff168473ffffffffffffffffffffffffffffffffffffffff161461340157613400818587613b83565b5b600073ffffffffffffffffffffffffffffffffffffffff168173ffffffffffffffffffffffffffffffffffffffff161461349457613443600086600080612e93565b60018260030160008373ffffffffffffffffffffffffffffffffffffffff1673ffffffffffffffffffffffffffffffffffffffff168152602001908152602001600020600082825403925050819055505b600073ffffffffffffffffffffffffffffffffffffffff168673ffffffffffffffffffffffffffffffffffffffff16146135195760018260030160008873ffffffffffffffffffffffffffffffffffffffff1673ffffffffffffffffffffffffffffffffffffffff168152602001908152602001600020600082825401925050819055505b8582600201600087815260200190815260200160002060006101000a81548173ffffffffffffffffffffffffffffffffffffffff021916908373ffffffffffffffffffffffffffffffffffffffff160217905550848673ffffffffffffffffffffffffffffffffffffffff168273ffffffffffffffffffffffffffffffffffffffff167fddf252ad1be2c89b69c2b068fc378daa952ba7f163c4a11628f55a4df523b3ef60405160405180910390a480925050509392505050565b60006135de6123af565b9050806002018054905081600301600084815260200190815260200160002081905550806002018290806001815401808255809150506001900390600052602060002001600090919091909150555050565b600061363a6123af565b9050600061364784611825565b905060008260010160008581526020019081526020016000205490508181146137345760008360000160008773ffffffffffffffffffffffffffffffffffffffff1673ffffffffffffffffffffffffffffffffffffffff1681526020019081526020016000206000848152602001908152602001600020549050808460000160008873ffffffffffffffffffffffffffffffffffffffff1673ffffffffffffffffffffffffffffffffffffffff1681526020019081526020016000206000848152602001908152602001600020819055508184600101600083815260200190815260200160002081905550505b826001016000858152602001908152602001600020600090558260000160008673ffffffffffffffffffffffffffffffffffffffff1673ffffffffffffffffffffffffffffffffffffffff1681526020019081526020016000206000838152602001908152602001600020600090555050505050565b60006137b46123af565b90506000600182600201805490506137cc919061576e565b905060008260030160008581526020019081526020016000205490506000836002018381548110613800576137ff614fdc565b5b906000526020600020015490508084600201838154811061382457613823614fdc565b5b906000526020600020018190555081846003016000838152602001908152602001600020819055508360030160008681526020019081526020016000206000905583600201805480613879576138786157a2565b5b600190038181906000526020600020016000905590555050505050565b60006138a06123af565b9050600060016138af85611825565b6138b9919061576e565b9050828260000160008673ffffffffffffffffffffffffffffffffffffffff1673ffffffffffffffffffffffffffffffffffffffff168152602001908152602001600020600083815260200190815260200160002081905550808260010160008581526020019081526020016000208190555050505050565b60606000600161394184613c47565b01905060008167ffffffffffffffff8111156139605761395f613f35565b5b6040519080825280601f01601f1916602001820160405280156139925781602001600182028036833780820191505090505b509050600082602001820190505b6001156139f5578080600190039150507f3031323334353637383961626364656600000000000000000000000000000000600a86061a8153600a85816139e9576139e86157d1565b5b049450600085036139a0575b819350505050919050565b600073ffffffffffffffffffffffffffffffffffffffff168273ffffffffffffffffffffffffffffffffffffffff1603613a725760006040517f64a0ae92000000000000000000000000000000000000000000000000000000008152600401613a699190614286565b60405180910390fd5b6000613a80838360006123d7565b9050600073ffffffffffffffffffffffffffffffffffffffff168173ffffffffffffffffffffffffffffffffffffffff1614613af45760006040517f73c6ac6e000000000000000000000000000000000000000000000000000000008152600401613aeb9190614286565b60405180910390fd5b505050565b6000613b03612d95565b60000160089054906101000a900460ff16905090565b60007f01ffc9a7000000000000000000000000000000000000000000000000000000007bffffffffffffffffffffffffffffffffffffffffffffffffffffffff1916827bffffffffffffffffffffffffffffffffffffffffffffffffffffffff1916149050919050565b613b8e838383613d9a565b613c4257600073ffffffffffffffffffffffffffffffffffffffff168373ffffffffffffffffffffffffffffffffffffffff1603613c0357806040517f7e273289000000000000000000000000000000000000000000000000000000008152600401613bfa919061431c565b60405180910390fd5b81816040517f177e802f000000000000000000000000000000000000000000000000000000008152600401613c39929190614eb5565b60405180910390fd5b505050565b600080600090507a184f03e93ff9f4daa797ed6e38ed64bf6a1f0100000000000000008310613ca5577a184f03e93ff9f4daa797ed6e38ed64bf6a1f0100000000000000008381613c9b57613c9a6157d1565b5b0492506040810190505b6d04ee2d6d415b85acef81000000008310613ce2576d04ee2d6d415b85acef81000000008381613cd857613cd76157d1565b5b0492506020810190505b662386f26fc100008310613d1157662386f26fc100008381613d0757613d066157d1565b5b0492506010810190505b6305f5e1008310613d3a576305f5e1008381613d3057613d2f6157d1565b5b0492506008810190505b6127108310613d5f576127108381613d5557613d546157d1565b5b0492506004810190505b60648310613d825760648381613d7857613d776157d1565b5b0492506002810190505b600a8310613d91576001810190505b80915050919050565b60008073ffffffffffffffffffffffffffffffffffffffff168373ffffffffffffffffffffffffffffffffffffffff1614158015613e5257508273ffffffffffffffffffffffffffffffffffffffff168473ffffffffffffffffffffffffffffffffffffffff161480613e135750613e128484611f0a565b5b80613e5157508273ffffffffffffffffffffffffffffffffffffffff16613e398361234a565b73ffffffffffffffffffffffffffffffffffffffff16145b5b90509392505050565b604051806101000160405280600073ffffffffffffffffffffffffffffffffffffffff168152602001600073ffffffffffffffffffffffffffffffffffffffff168152602001600081526020016000815260200160608152602001606081526020016000151581526020016000151581525090565b6000604051905090565b600080fd5b600080fd5b6000819050919050565b613ef781613ee4565b8114613f0257600080fd5b50565b600081359050613f1481613eee565b92915050565b600080fd5b600080fd5b6000601f19601f8301169050919050565b7f4e487b7100000000000000000000000000000000000000000000000000000000600052604160045260246000fd5b613f6d82613f24565b810181811067ffffffffffffffff82111715613f8c57613f8b613f35565b5b80604052505050565b6000613f9f613ed0565b9050613fab8282613f64565b919050565b600067ffffffffffffffff821115613fcb57613fca613f35565b5b613fd482613f24565b9050602081019050919050565b82818337600083830152505050565b6000614003613ffe84613fb0565b613f95565b90508281526020810184848401111561401f5761401e613f1f565b5b61402a848285613fe1565b509392505050565b600082601f83011261404757614046613f1a565b5b8135614057848260208601613ff0565b91505092915050565b6000806040838503121561407757614076613eda565b5b600061408585828601613f05565b925050602083013567ffffffffffffffff8111156140a6576140a5613edf565b5b6140b285828601614032565b9150509250929050565b60007fffffffff0000000000000000000000000000000000000000000000000000000082169050919050565b6140f1816140bc565b81146140fc57600080fd5b50565b60008135905061410e816140e8565b92915050565b60006020828403121561412a57614129613eda565b5b6000614138848285016140ff565b91505092915050565b60008115159050919050565b61415681614141565b82525050565b6000602082019050614171600083018461414d565b92915050565b600081519050919050565b600082825260208201905092915050565b60005b838110156141b1578082015181840152602081019050614196565b60008484015250505050565b60006141c882614177565b6141d28185614182565b93506141e2818560208601614193565b6141eb81613f24565b840191505092915050565b6000602082019050818103600083015261421081846141bd565b905092915050565b60006020828403121561422e5761422d613eda565b5b600061423c84828501613f05565b91505092915050565b600073ffffffffffffffffffffffffffffffffffffffff82169050919050565b600061427082614245565b9050919050565b61428081614265565b82525050565b600060208201905061429b6000830184614277565b92915050565b6142aa81614265565b81146142b557600080fd5b50565b6000813590506142c7816142a1565b92915050565b600080604083850312156142e4576142e3613eda565b5b60006142f2858286016142b8565b925050602061430385828601613f05565b9150509250929050565b61431681613ee4565b82525050565b6000602082019050614331600083018461430d565b92915050565b6000806000606084860312156143505761434f613eda565b5b600061435e868287016142b8565b935050602061436f868287016142b8565b925050604061438086828701613f05565b9150509250925092565b600067ffffffffffffffff8211156143a5576143a4613f35565b5b602082029050602081019050919050565b600080fd5b60006143ce6143c98461438a565b613f95565b905080838252602082019050602084028301858111156143f1576143f06143b6565b5b835b8181101561441a578061440688826142b8565b8452602084019350506020810190506143f3565b5050509392505050565b600082601f83011261443957614438613f1a565b5b81356144498482602086016143bb565b91505092915050565b6000806040838503121561446957614468613eda565b5b600083013567ffffffffffffffff81111561448757614486613edf565b5b61449385828601614424565b92505060206144a4858286016142b8565b9150509250929050565b600080604083850312156144c5576144c4613eda565b5b60006144d385828601613f05565b92505060206144e485828601613f05565b9150509250929050565b6144f781614265565b82525050565b61450681613ee4565b82525050565b600082825260208201905092915050565b600061452882614177565b614532818561450c565b9350614542818560208601614193565b61454b81613f24565b840191505092915050565b61455f81614141565b82525050565b60006101008301600083015161457e60008601826144ee565b50602083015161459160208601826144ee565b5060408301516145a460408601826144fd565b5060608301516145b760608601826144fd565b50608083015184820360808601526145cf828261451d565b91505060a083015184820360a08601526145e9828261451d565b91505060c08301516145fe60c0860182614556565b5060e083015161461160e0860182614556565b508091505092915050565b600060208201905081810360008301526146368184614565565b905092915050565b60006020828403121561465457614653613eda565b5b6000614662848285016142b8565b91505092915050565b61467481614141565b811461467f57600080fd5b50565b6000813590506146918161466b565b92915050565b600080604083850312156146ae576146ad613eda565b5b60006146bc858286016142b8565b92505060206146cd85828601614682565b9150509250929050565b600067ffffffffffffffff8211156146f2576146f1613f35565b5b6146fb82613f24565b9050602081019050919050565b600061471b614716846146d7565b613f95565b90508281526020810184848401111561473757614736613f1f565b5b614742848285613fe1565b509392505050565b600082601f83011261475f5761475e613f1a565b5b813561476f848260208601614708565b91505092915050565b6000806000806080858703121561479257614791613eda565b5b60006147a0878288016142b8565b94505060206147b1878288016142b8565b93505060406147c287828801613f05565b925050606085013567ffffffffffffffff8111156147e3576147e2613edf565b5b6147ef8782880161474a565b91505092959194509250565b60008060006060848603121561481457614813613eda565b5b600061482286828701613f05565b935050602061483386828701613f05565b925050604084013567ffffffffffffffff81111561485457614853613edf565b5b61486086828701614032565b9150509250925092565b6000806040838503121561488157614880613eda565b5b600061488f858286016142b8565b925050602083013567ffffffffffffffff8111156148b0576148af613edf565b5b6148bc85828601614032565b9150509250929050565b600080604083850312156148dd576148dc613eda565b5b60006148eb858286016142b8565b92505060206148fc858286016142b8565b9150509250929050565b7f596f7520617265206e6f7420746865206f776e6572206f662074686973204e4660008201527f5400000000000000000000000000000000000000000000000000000000000000602082015250565b6000614962602183614182565b915061496d82614906565b604082019050919050565b6000602082019050818103600083015261499181614955565b9050919050565b600081905092915050565b7f7061706572000000000000000000000000000000000000000000000000000000600082015250565b60006149d9600583614998565b91506149e4826149a3565b600582019050919050565b60006149fa826149cc565b9150819050919050565b6000614a0f82614177565b614a198185614998565b9350614a29818560208601614193565b80840191505092915050565b6000614a418284614a04565b915081905092915050565b7f726f636b00000000000000000000000000000000000000000000000000000000600082015250565b6000614a82600483614998565b9150614a8d82614a4c565b600482019050919050565b6000614aa382614a75565b9150819050919050565b7f73636973736f7273000000000000000000000000000000000000000000000000600082015250565b6000614ae3600883614998565b9150614aee82614aad565b600882019050919050565b6000614b0482614ad6565b9150819050919050565b7f496e76616c69642061747461636b2c206d75737420626520277061706572272c60008201527f2027726f636b272c206f72202773636973736f72732700000000000000000000602082015250565b6000614b6a603683614182565b9150614b7582614b0e565b604082019050919050565b60006020820190508181036000830152614b9981614b5d565b9050919050565b7f4e487b7100000000000000000000000000000000000000000000000000000000600052602260045260246000fd5b60006002820490506001821680614be757607f821691505b602082108103614bfa57614bf9614ba0565b5b50919050565b60008190508160005260206000209050919050565b60006020601f8301049050919050565b600082821b905092915050565b600060088302614c627fffffffffffffffffffffffffffffffffffffffffffffffffffffffffffffffff82614c25565b614c6c8683614c25565b95508019841693508086168417925050509392505050565b6000819050919050565b6000614ca9614ca4614c9f84613ee4565b614c84565b613ee4565b9050919050565b6000819050919050565b614cc383614c8e565b614cd7614ccf82614cb0565b848454614c32565b825550505050565b600090565b614cec614cdf565b614cf7818484614cba565b505050565b5b81811015614d1b57614d10600082614ce4565b600181019050614cfd565b5050565b601f821115614d6057614d3181614c00565b614d3a84614c15565b81016020851015614d49578190505b614d5d614d5585614c15565b830182614cfc565b50505b505050565b600082821c905092915050565b6000614d8360001984600802614d65565b1980831691505092915050565b6000614d9c8383614d72565b9150826002028217905092915050565b614db582614177565b67ffffffffffffffff811115614dce57614dcd613f35565b5b614dd88254614bcf565b614de3828285614d1f565b600060209050601f831160018114614e165760008415614e04578287015190505b614e0e8582614d90565b865550614e76565b601f198416614e2486614c00565b60005b82811015614e4c57848901518255600182019150602085019450602081019050614e27565b86831015614e695784890151614e65601f891682614d72565b8355505b6001600288020188555050505b505050505050565b6000606082019050614e936000830186614277565b614ea0602083018561430d565b614ead6040830184614277565b949350505050565b6000604082019050614eca6000830185614277565b614ed7602083018461430d565b9392505050565b7f4f6e6c7920746865206f776e65722063616e20616c6c6f63617465207265776160008201527f7264730000000000000000000000000000000000000000000000000000000000602082015250565b6000614f3a602383614182565b9150614f4582614ede565b604082019050919050565b60006020820190508181036000830152614f6981614f2d565b9050919050565b7f43616e6e6f7420726577617264206d6f7265207468616e2033204e4654730000600082015250565b6000614fa6601e83614182565b9150614fb182614f70565b602082019050919050565b60006020820190508181036000830152614fd581614f99565b9050919050565b7f4e487b7100000000000000000000000000000000000000000000000000000000600052603260045260246000fd5b7f496e76616c696420616464726573730000000000000000000000000000000000600082015250565b6000615041600f83614182565b915061504c8261500b565b602082019050919050565b6000602082019050818103600083015261507081615034565b9050919050565b7f4f6e6c7920746865206f776e65722063616e2077697468647261772066756e6460008201527f7300000000000000000000000000000000000000000000000000000000000000602082015250565b60006150d3602183614182565b91506150de82615077565b604082019050919050565b60006020820190508181036000830152615102816150c6565b9050919050565b600081905092915050565b50565b6000615124600083615109565b915061512f82615114565b600082019050919050565b600061514582615117565b9150819050919050565b7f4661696c656420746f2077697468647261772066756e64730000000000000000600082015250565b6000615185601883614182565b91506151908261514f565b602082019050919050565b600060208201905081810360008301526151b481615178565b9050919050565b7f4f70706f6e656e74204e465420646f6573206e6f742065786973740000000000600082015250565b60006151f1601b83614182565b91506151fc826151bb565b602082019050919050565b60006020820190508181036000830152615220816151e4565b9050919050565b7f4e487b7100000000000000000000000000000000000000000000000000000000600052601160045260246000fd5b600061526182613ee4565b91507fffffffffffffffffffffffffffffffffffffffffffffffffffffffffffffffff820361529357615292615227565b5b600182019050919050565b60006040820190506152b3600083018561430d565b6152c0602083018461430d565b9392505050565b7f596f7520617265206e6f74206120706c6179657220696e20746869732062617460008201527f746c650000000000000000000000000000000000000000000000000000000000602082015250565b6000615323602383614182565b915061532e826152c7565b604082019050919050565b6000602082019050818103600083015261535281615316565b9050919050565b7f496e76616c69642061747461636b000000000000000000000000000000000000600082015250565b600061538f600e83614182565b915061539a82615359565b602082019050919050565b600060208201905081810360008301526153be81615382565b9050919050565b7f596f7520617265206e6f74206120706c6179657220696e20746869732062617460008201527f746c65206f722077726f6e6720746f6b656e4964000000000000000000000000602082015250565b6000615421603483614182565b915061542c826153c5565b604082019050919050565b6000602082019050818103600083015261545081615414565b9050919050565b600061546282613ee4565b915061546d83613ee4565b925082820190508082111561548557615484615227565b5b92915050565b7f4d6178696d756d206e756d626572206f66204e465473206d696e746564000000600082015250565b60006154c1601d83614182565b91506154cc8261548b565b602082019050919050565b600060208201905081810360008301526154f0816154b4565b9050919050565b7f596f75206d7573742073656e6420302e30352045544820746f206d696e740000600082015250565b600061552d601e83614182565b9150615538826154f7565b602082019050919050565b6000602082019050818103600083015261555c81615520565b9050919050565b6000819050919050565b600067ffffffffffffffff82169050919050565b600061559c61559761559284615563565b614c84565b61556d565b9050919050565b6155ac81615581565b82525050565b60006020820190506155c760008301846155a3565b92915050565b600081519050919050565b600082825260208201905092915050565b60006155f4826155cd565b6155fe81856155d8565b935061560e818560208601614193565b61561781613f24565b840191505092915050565b60006080820190506156376000830187614277565b6156446020830186614277565b615651604083018561430d565b818103606083015261566381846155e9565b905095945050505050565b60008151905061567d816140e8565b92915050565b60006020828403121561569957615698613eda565b5b60006156a78482850161566e565b91505092915050565b600081546156bd81614bcf565b6156c78186614998565b945060018216600081146156e257600181146156f75761572a565b60ff198316865281151582028601935061572a565b61570085614c00565b60005b8381101561572257815481890152600182019150602081019050615703565b838801955050505b50505092915050565b600061573f82846156b0565b915081905092915050565b60006157568285614a04565b91506157628284614a04565b91508190509392505050565b600061577982613ee4565b915061578483613ee4565b925082820390508181111561579c5761579b615227565b5b92915050565b7f4e487b7100000000000000000000000000000000000000000000000000000000600052603160045260246000fd5b7f4e487b7100000000000000000000000000000000000000000000000000000000600052601260045260246000fdfea2646970667358221220f77a369ec8fd43fc17798b2975a2462e9ffc983e944081f974fb57cce9ffd4dc64736f6c63430008180033",
  "linkReferences": {},
  "deployedLinkReferences": {}
}